:100000000C94A6010C94C3010C94C3010C94C3017D
:100010000C94C3010C94C3010C94C3010C94C30150
:100020000C94C3010C94C3010C94E7220C94BB23E1
:100030000C947F1D0C94C3010C94C3010C94C30158
:100040000C94C3010C94C3010C94C3010C94C30120
:100050000C94C3010C94061E0C94C3010C94C301B0
:100060000C94C3010C94C3010C94C3010C94C30100
:100070000C94C3010C94C3010C94C3010C94C301F0
:100080000C94C3010C94C3010C94C3010C94C301E0
:100090000C94C3010C94C3010C94C3010C94C301D0
:1000A0000C94C3010C94C3010C94C301AC00AE00CA
:1000B000AB00A80061520100010001000100615283
:1000C00000000000000000002A2B280000000000B3
:1000D00000000000000000000000002900000000F7
:1000E0002C1E3420212224342627252E362D373865
:1000F000271E1F202122232425263333362E37386E
:100100001F0405060708090A0B0C0D0E0F1011122B
:10011000131415161718191A1B1C1D2F3130232DF7
:10012000350405060708090A0B0C0D0E0F101112F5
:10013000131415161718191A1B1C1D2F3130354CA6
:1001400000000000000000000000000000000000AF
:10015000000000000000000000000000000000009F
:10016000000000007E0F00D4FFFFFFC700000078F2
:1001700026035B003100780034005D0020002B0076
:100180002000310020004D006100630072006F000C
:1001900070006100640000002403410072007200DE
:1001A0006100790020005000650072006900700055
:1001B00068006500720061006C00730000000403B9
:1001C000090409025B00030100A0FA090400000110
:1001D00003010100092111010001224400070581EA
:1001E00003080001090401000203000000092111B5
:1001F00001000122220007058203200001070503F8
:10020000032000010904020001030000000921117C
:1002100001000122B600070584032000011201003D
:1002200002000000085241464F0100010200010691
:1002300060FF0961A1010962150026FF0095207584
:100240000881020963150026FF00952075089102B8
:10025000C005010902A10185020901A100050919D2
:10026000012908150025019508750181020501097C
:100270003009311581257F950275088106093815E9
:1002800081257F950175088106050C0A38021581C4
:10029000257F950175088106C0C005010980A1016F
:1002A000850319012AB700150126B70095017510BD
:1002B0008100C0050C0901A101850419012AA002D1
:1002C000150126A002950175108100C005010906DF
:1002D000A1018506050719E029E715002501950804
:1002E000750181020507190029EF1500250195F018
:1002F000750181020508190129059505750191020D
:10030000950175039101C005010906A101050719B1
:10031000E029E71500250195087501810295017511
:100320000881010507190029FF150026FF00950621
:100330007508810005081901290515002501950595
:1003400075019102950175039101C00011241FBE32
:10035000CFEFDAE0DEBFCDBF11E0A0E0B1E0E4E234
:10036000FDE402C005900D92A03BB107D9F722E051
:10037000A0EBB1E001C01D92A53AB207E1F70E94DF
:100380002F110C9436260C940000811106C08AEDC2
:10039000611101C089ED0E947E0480E008958230E1
:1003A00090F4611110C0453070F4E42FF0E095E056
:1003B000899FE00DF11D1124EE0FFF1FE455FF4F43
:1003C00085919491089581E090E008959C013A957B
:1003D00021153F4150F5FC01EE27F170BC01662765
:1003E0007270AC01442754709C012227387094FF2E
:1003F0000EC080E1EF2B09F480E0672B09F08062EA
:10040000452B09F08064232B89F08068089581E0F2
:10041000EF2B09F480E0672B09F08260452B09F08F
:100420008460232B19F08860089580E00895CF93AD
:10043000DF93EB010E94E601FE010995DF91CF9168
:100440000895CF93DF93EC01805E9109089720F027
:100450006DEB76E0209711F467E874E0CE010E941E
:1004600017028C2F0E94EA03DF91CF910895CF935A
:10047000DF93EC010E943304CE01805E910908975E
:1004800020F064EC76E0209711F46EE874E0CE0181
:100490000E941702DF91CF9108950F931F93CF937E
:1004A000DF938C01EB010E942102209741F4C801E7
:1004B0000E943702DF91CF911F910F9108958FE92C
:1004C0009FE00197F1F700C000002197EECF70E0A8
:1004D00060E08933910511F460E570E00E944D02FF
:1004E000089581E008950E947102089581E00895C1
:1004F0000E94710208950E947802089508950E9452
:100500007E020895A6E0B0E0E8E8F2E00C949225BF
:1005100049835A839E833091B70189819A81311131
:100520001AC03E81332399F0222389F00E940008EB
:10053000182F682F89819A810E94E50769817A8145
:10054000812F0E941E0F2696E3E00C94AE250E9498
:10055000F207182FF3CF0E94000869817A81F1CF4A
:10056000FC01262F408151816281738184819581B4
:100570000E9482020895CF93DF93EC0161E00E9414
:10058000B002BE010E947302DF91CF910895CF9314
:10059000DF93EC0160E00E94B002BE010E947F0286
:1005A000DF91CF91089581E008950E94D3020895CC
:1005B000CF93C82F0E94E1068C2F0E94D5022FEF07
:1005C00084E39CE0215080409040E1F700C00000AF
:1005D000CF91089581E00E94D8020E942A1E0895BA
:1005E00080E00E94D8020E943B1E08950F931F9343
:1005F000CF93DF938C0161E00E94B002EC01B8015F
:100600000E94B61A811106C080E0DF91CF911F9140
:100610000F910895B801CE010E947B028823A1F3B7
:10062000B801CE010E944F11882371F3B801CE01A9
:100630000E94C319882341F3B801CE010E941F15FF
:10064000882311F3B801CE010E94F5148823E1F24A
:10065000B801CE010E94071A8823B1F2F801858102
:10066000882361F0C330FCE7DF07E9F058F4C115D7
:10067000ECE7DE07A9F0C130DC47B9F0C8010E9401
:100680007602C3CFCB358CE7D807A9F0CC35ECE7A1
:10069000DE0771F0CA35DC4789F70E946C0CEECF9B
:1006A0000E94EA02B1CF0E94740C0E94F002ACCF0B
:1006B0000E94620CE3CF0E94700CE0CF0E94611D8B
:1006C0000E94850308950E9489030E94661D089573
:1006D000089581E008950895CF93DF93D82F0E9465
:1006E0006903C82F882319F08D2F0E946B038C2F6C
:1006F000DF91CF9108950895CF93C82F0E9468038A
:100700008C2F0E946C03CF91089580E00E947C039F
:1007100008950E949E1B0E947C030895CF930E941F
:100720009E1BC82F8091B2018C1779F0C093B20143
:100730000E94EB1D6093B3017093B4018093B501E7
:100740009093B6018C2F0E947C03CF910895ADE069
:10075000B0E0EDEAF3E00C949325488759876A8767
:100760007B878C879D8791110E94720B1F8286E088
:10077000FE013896DE01119601900D928A95E1F7FF
:100780008D8181110DC029813A814B815C816D8100
:100790007E818F810E94B90A2D96E2E00C94AF25EC
:1007A000CE0101960E94BB028111EDCFF5CFFC0175
:1007B0002481213021F4808191810E942D080895A7
:1007C000662329F00E9480160E94651708950E94F2
:1007D000EC16FACFCF93C82F882399F08CEF8C0FAB
:1007E000813A88F48C2F0E94411C882329F08C2F99
:1007F0000E94E11C0E94060C8C2F0E94CA1C0E94C1
:10080000060CCF91089580E28C0F883048F4C770B1
:1008100081E001C0880FCA95EAF70E94520BEFCF22
:10082000EBE5EC0FE33040F4F0E0E05BFE4F80815D
:1008300090E00E94D51BE5CFE8E5EC0FEB3150F4DA
:10084000F0E0EE0FFF1FE65EFE4F808191810E9477
:10085000FA1BD7CF83E38C0F833198F661E08C2F9E
:100860000E94E003CECF882381F19CEF980F913A4C
:1008700028F40E94E11C0E94060C089590E2980F53
:10088000983050F4877091E001C0990F8A95EAF78B
:10089000892F0E94580BEFCF9BE5980F933028F4D7
:1008A00090E080E00E94D51B089598E5980F9B3159
:1008B00028F490E080E00E94FA1B089593E3980FDB
:1008C000933118F460E00E94E00308951F93CF93E2
:1008D000DF93182FEB010E94EA03209739F4812F50
:1008E0000E943304DF91CF911F9108958FE99FE01B
:1008F0000197F1F700C000002197EFCF70E060E0B2
:10090000893311F460E570E00E946604089588233D
:1009100021F00E94520B0E94060C0895882321F0BA
:100920000E94580B0E94060C0895B0E0A0E0EBE98D
:10093000F4E00C948C256C01D62FC72FFC01158197
:10094000068102950F700E94480BE82E8823F9F06B
:10095000E12E1123E1F08C2F807F803461F080E262
:100960008D0F883008F18C2F807E803221F4D230B8
:10097000D8F00023C9F080918E0282FF15C082E07A
:100980000E94360C0E94480B91E0E82EE926BC2E0E
:10099000B2949FE0B922FBE0FB15B8F1EB2DF0E03B
:1009A000E85CF94D0C947625E12CF1CF0C2F0F70FB
:1009B000C07F11F00295007F112399F0002359F0B8
:1009C00080E28D0F883010F0D11107C0802F0E9477
:1009D000520B0E94060C8D2F5AC0802F0E94650B6F
:1009E000F8CF8D2F0E943304002379F080E28D0F21
:1009F000883010F0D11104C0802F0E94580B03C022
:100A0000802F0E946B0B0E94060CEB2DE850FF0B11
:100A1000349720F40E949E1B0E947C03EE2089F0F4
:100A20000E94440B80FD0DC0F60115820E943E0B12
:100A30000E945907C6010E949A060E943E0B0E941E
:100A40006507CDB7DEB7E9E00C94A8252C2F2F70F1
:100A5000F22EC07FC03219F0F29480EFF822DD232D
:100A600041F0D130D1F1112309F444C00023F1F059
:100A7000B2CF80918E0282FD15C0112359F0FF2064
:100A800029F08F2D0E94520B0E94060C80E00E94DC
:100A9000EA03BBCF80E00E943304FF2009F4B5CF06
:100AA0008F2DABCF112369F0011104C08F2D0E944F
:100AB0008704ABCF013009F0A8CF8F2D0E94890B9E
:100AC000A4CF0111A2CF8F2D0E948E048F2D0E94E2
:100AD000950B8F2D0E94790B98CF112321F00630B2
:100AE00008F093CFE3CF053008F08FCF8F2D0E9411
:100AF0008E048BCF0023D1F3D93349F43FEF87EE37
:100B000093E0315080409040E1F700C000008D2F0D
:100B10000E9433047ACF8C2F86958695837069F076
:100B2000813009F072CF8D2F9C2F9370111102C06C
:100B300080E090E00E94FA1B68CF8D2F9C2F93706D
:100B4000111102C080E090E00E94D51B5ECF612FA2
:100B50008D2F0E94E00359CF8C2F837079F51111EE
:100B600054CF4D2F429546954770440F440F8D2F1B
:100B70008F70042E01C0880F0A94EAF72D2F207180
:100B8000D4FF07C02FE030E001C0220F4A95EAF7FA
:100B90002095C695C695C370822BC23049F058F493
:100BA000C13019F00E94350730CF0E942F072DCF9A
:100BB0000E943B072ACF0E942C0727CF869511233E
:100BC00011F08C2F8170882309F41FCF4D2F42958F
:100BD00046954770440F440F8D2F8F70042E01C02F
:100BE000880F0A94EAF72D2F2071D4FF07C02FE059
:100BF00030E001C0220F4A95EAF72095C695C695C8
:100C0000C370822BC23049F058F4C13019F00E94F1
:100C10008407FBCE0E947E07F8CE0E948A07F5CE9D
:100C20000E944707F2CECF70112329F08C2F0E942B
:100C300059078D2F3CCF8D2F0E948E048C2F0E9440
:100C40006507E3CED23F41F160F4D03FB9F0D13F28
:100C500081F0112309F446C00111BDCE8C2F8F7194
:100C60001FC0D33F01F1D43FA1F780918E0282FDD6
:100C700024C08C2F8F71112311F312C0112341F066
:100C8000053008F0C2CE8C2F8F710E947207BDCE46
:100C9000063008F0BACEF7CF8C2F8F711111CFCF5D
:100CA0000E945907B2CE112329F08C2F8F710E9418
:100CB0005007ABCE0E944C07A8CE112349F0CF714C
:100CC0008C2F0E94590763E08C2F0E94180C9DCE38
:100CD00081E00E94360C023008F497CE82E00E9438
:100CE000360C93CE002359F0D93309F010CFEFEF33
:100CF000F7EE23E0E150F0402040E1F706CF8C2FE3
:100D00008F719DCF0F931F93CF93DF93EC01688179
:100D100079818D810E9438088C010E9490070E9481
:100D20002B07B801CE010E949504DF91CF911F914E
:100D30000F910895CF93DF93EC018C81882399F074
:100D4000CE010E94F602811111C00E94480B882337
:100D500051F08D81882339F080918E0282FF03C08B
:100D600082E00E94360CDF91CF910895CE010E945F
:100D70008206CE010E94C702F6CF882321F00E948E
:100D8000650B0E94060C0895882321F00E946B0BCE
:100D90000E94060C089590E080E00E94D51B90E030
:100DA00080E00E94FA1B0E94720B0E94060C0E94B7
:100DB00081170E94651708950E94F81C0E94CB06B7
:100DC00008950E94620B0E94DC06089592959F7020
:100DD000963091F058F4925F9F70923058F4803FB3
:100DE00019F030F4883E30F481E008959A5FF4CF32
:100DF000843FD1F380E00895883EB0F3813FD1F77E
:100E0000F3CFFC012481222339F0808191810E945B
:100E10002D080E94E606089580E00895A6E0B0E05F
:100E2000E4E1F7E00C9493252696E2E00C94AF25DC
:100E3000A7E0B0E0EEE1F7E00C9493252796E2E01E
:100E40000C94AF2508950E94220708950E9423075D
:100E50008093BC01089508950E94260708959091FB
:100E6000BC01892B0E94260708959091BC0189231B
:100E70000E94260708959091BC0189270E942607A9
:100E800008950E94220708950E94410708950E9434
:100E900044078093BB01089580E00E9447070895AE
:100EA00091E001C0990F8A95EAF7892F0E944707C0
:100EB000089521E030E001C0220F8A95EAF7809181
:100EC000BB01822B0E944707089521E030E001C05A
:100ED000220F8A95EAF720958091BB0182230E9418
:100EE0004707089521E030E001C0220F8A95EAF714
:100EF0008091BB0182270E94470708959091BB0112
:100F0000892B0E94470708959091BB0189230E9475
:100F1000470708959091BB0189270E9447070895CC
:100F20000895262F277091E001C0990F2A95EAF7BE
:100F300023E0769567952A95E1F7FB01EE0FFF1FF9
:100F4000E60FF71FE40FF51F50E040E0682F70E058
:100F50008191DF0111979B01042E02C036952795E0
:100F60000A94E2F7217021952827292328272C931A
:100F70004F5F5F4F4330510559F70895A82FA77071
:100F800023E0969587952A95E1F7FC01EE0FFF1F68
:100F9000E80FF91FE60FF71F50E040E080E02191D5
:100FA00030E00A2E02C0369527950A94E2F72170A8
:100FB0003327042E01C0220F0A94EAF7822B4F5FD9
:100FC0005F4F4330510559F70895262F911109C0FD
:100FD000853038F4682F70E048EB51E0822F0E9492
:100FE0009107089591110AC0853030F468EB71E0E3
:100FF00090E00E94BE07982F892F089590E0FCCFC3
:10100000CF92DF92FF920F931F93CF93DF936C01E8
:101010000091BB018091BC01082BC3E0D0E010E03F
:10102000FC2EC8010C2E02C0959587950A94E2F714
:1010300080FD0CC02197A0F7F12C8F2DDF91CF916F
:101040001F910F91FF90DF90CF900895B6018C2FE4
:101050000E942A0F019771F3F0CFCF93DF93EC0139
:101060000E940008BE010E942A0FDF91CF910895CF
:101070001F93CF93DF93EB019091B701992339F040
:10108000CB010E942D08DF91CF911F9108958823F5
:1010900069F0CB010E940008182F682FCE010E9432
:1010A000E507BE01812F0E942A0FEDCFCB010E94E0
:1010B000F207182FF6CFE1E0F0E0DF0102C0AA0F3F
:1010C000BB1F6A95E2F7BD01DF0102C0AA0FBB1F7B
:1010D0004A95E2F76A2B01C0EE0F2A95EAF7962FA0
:1010E0009823961302C08E2B0895E0958E230895C1
:1010F000242F462F682F8091BB010E945B080E941D
:10110000470708951F93CF93DF93C091BD0117E068
:101110008091BE018C1304C0DF91CF911F9108957F
:10112000D0E01C9FF0011D9FF00D1124E154FE4FF3
:1011300020813181428153816481758186810E9441
:1011400018072196C770E4CF2091F7013091F8017C
:101150004091F9015091FA016091FB017091FC01FD
:101160008091FD010E9418070895CF93DF9380912D
:10117000FD01807F09F04DC08091FC01882309F4B6
:1011800048C0E091BD015091BE01C091F801D091DD
:10119000F7016091F9017091FA0147E05E17C9F11A
:1011A0008E2F90E0E49FF0011124E154FE4F248142
:1011B000222391F1489FF001499FF00D1124DF0196
:1011C000A154BE4F11962C9111972C1325C02C9130
:1011D0002D1322C015962C91159721111DC0129622
:1011E0002D913C91261B370B283C3105A8F48091AA
:1011F000FD018F7080618093FD01EB53FE4F808174
:101200008F708061808387EF91E00E949A060E9430
:101210008208DF91CF910895FC013196E770BECF2F
:10122000482F2091BD019091BE0157E0291302C0C3
:1012300080E0089530E0529FF001539FF00D11249B
:10124000E154FE4F8181681306C08081481303C0BA
:1012500085818111EECF2F5F3F4F2770E7CFA4E14B
:10126000B0E0E5E3F9E00C9489258C0186E0F80113
:10127000DE011F9601900D928A95E1F7F8018481B5
:10128000E58097EFA92E91E0B92E9091FB01911185
:101290001FC08823D1F0EE20A9F0C8010E940107E9
:1012A000F82E882379F087E0F801D50101900D929E
:1012B0008A95E1F7C5010E94D7030E94B5080E94F4
:1012C000A4085FC0C8010E949A06FF24F39459C085
:1012D000C080D18082809380F090FC012091F90140
:1012E0003091FA01A401421B530BFF2009F4F9C00D
:1012F000483C510508F0A7C0882309F442C09091EA
:10130000F8018091FD01282F207F09F05CC09D111C
:1013100016C09091F701C91212C0E1104EC08F7033
:1013200080618093FD010E94A40887EF91E00E94F4
:101330009A068091FD01F8018683F12C22C0E1100C
:101340003CC06D2D8C2D0E9410096D2D8C2D0E949E
:101350001009E82E8111F1CFCF86D88A8F85988920
:101360000E942D08292F22952F70243078F49F7029
:101370002230A8F09923B9F0F8019681907F99F472
:10138000FE2C8F2D6496ECE00C94A5252A5F2F701F
:10139000223068F0C8010E949A06EF2CF1CF992301
:1013A00011F0882369F3805E883050F3F3CF803FDB
:1013B00038F3815F833070F7E3CF8091FD01816066
:1013C0008093FD01BACF9D1113C09091F701C9120E
:1013D0000FC0E1100DC08683C8010E949A0687E005
:1013E000F801A7EFB1E001900D928A95E1F767CF80
:1013F000C8010E940107882309F464CFEE2009F494
:1014000061CF8091FD01803288F02091F701309109
:10141000F801398728879B868A869091FB019C87F3
:101420001D868E87CE0108960E949A0687E0F801F5
:10143000A7EFB1E001900D928A95E1F70E94B508FF
:101440000E94A40842CF9091FD01292F207FA1F492
:10145000682D9A8A898AA6017A899E2D0E940E0794
:1014600087EF91E00E949A0687E0F50111928A9534
:10147000E9F70E94A40861CF882309F482CF809104
:10148000F8018D1110C08091F701C8120CC0E11055
:101490000AC09683C8010E949A0687E0F50111925E
:1014A0008A95E9F76ECFC8010E940107882309F4E5
:1014B00009CFEE2009F406CF8091FD01803208F4B7
:1014C000B5CF2091F7013091F8013A8329839C82AE
:1014D0008B829091FB019D831E828F83CE010196AA
:1014E000A3CF483C5105B8F5882309F4EECEFE2C75
:1014F000EE2009F4E7CE8091F8018D111EC0809195
:10150000F701C8121AC08091FD0180FD0DC0982F0F
:10151000907F51F08683903F09F45ECF982F907FA3
:10152000905F8F70892B57CF87E0F801A7EFB1E06C
:1015300001900D928A95E1F724CFC8010E9401071E
:10154000811174CF8091FD0181608093FD01C801FC
:101550000E949A0616CF682D9A8A898AA6017A89EE
:101560009E2D0E940E0787E0F50111928A95E9F7FA
:10157000A6CEAEE0B0E0EFEBFAE00C94922528871F
:1015800039874A875B876C877D878E87CE0108966F
:101590000E942F098823B1F06C85662341F02885CD
:1015A00039854A855B857D858E850E94180717E001
:1015B0008091BD019091BE0189133DC02E96E3E05C
:1015C0000C94AE2587E0FE013896DE01119601905D
:1015D0000D928A95E1F78C85882349F32091BE010D
:1015E00030E0C9010196877099274091BD014817E5
:1015F000190699F097E0929FD001939FB00D1124A6
:10160000A154BE4FFE01319601900D929A95E1F7DB
:101610008093BE010E948208CACF0E94E106109208
:10162000BE011092BD0187E0E7EFF1E0DF011D92FE
:101630008A95E9F7BCCF819FC001112481549E4F48
:101640000E942F09882309F4B9CFE091BD011E9FA4
:10165000F0011124E154FE4F2081318142815381F8
:101660006481758186810E9418078091BD0190E098
:101670000196877099278093BD019ACF80912602A9
:10168000869586958695089580912602877008959F
:1016900090912602977081E009F480E0089580918E
:1016A0005202089590915202892B8093520208951C
:1016B00080959091520298239093520208958093BE
:1016C0005202089510925202089590915102892B6E
:1016D00080935102089580959091510298239093A0
:1016E0005102089510925102089508950E94750BB9
:1016F000089590912702292F282331F0809589237E
:10170000809327020E94760B089508950E94850B0E
:10171000089590912802292F2823281729F0982B23
:10172000909328020E94860B089590912802292FF9
:10173000282331F080958923809328020E94860B0C
:10174000089580912802882329F01092280280E0D1
:101750000E94860B0895CF93C0915202809151024E
:10176000C82B80912802882331F0C82B0E941F1CAF
:1017700081110E94A10B8C2FCF910895CF93DF93FD
:10178000C0910201D09103010E94AB0B8883C091EC
:101790000201D091030148E050E06EE172E0CE0119
:1017A0000E94CE25892B59F088E0FE01AEE1B2E01F
:1017B00001900D928A95E1F7CE010E94AE1BDF9158
:1017C000CF910895CF93DF93C0910001D091010193
:1017D0000E94AB0B8983C0910001D091010140E2CE
:1017E00050E06EEF71E0CE010E94CE25892B59F0BA
:1017F00080E2FE01AEEFB1E001900D928A95E1F733
:10180000CE010E94B91BDF91CF91089580911901FB
:10181000882339F080918D0287FF03C00E94E20B7C
:1018200008950E94BE0B089508950E94140C089517
:1018300090918E0292FF11C098E0899F900111242F
:10184000622B609326020E9459078091260286959A
:10185000869586950E94150C08950E945907089553
:101860001092260280E00E94150C089590912602A5
:101870008095892380932602282F277069F4891781
:1018800059F090918E0292FF07C0869586958695B5
:101890000E9465070E94300C089590918E0292FB81
:1018A000222720F9281769F080FB92F990938E0285
:1018B00080918D0290918E020E94960C82E00E948F
:1018C000360C089580918E0282FB882780F991E082
:1018D00089270E944D0C089581E00E944D0C0895C7
:1018E00080E00E944D0C08956FEF7FEF90E080E064
:1018F0000E942026089590E080E00E94EC25863E1C
:101900009E4F19F40E94501A089580E0089582E0D5
:1019100090E00E94E425089583E090E00E94E42591
:10192000089584E090E00E94EC250895BC0184E0D5
:1019300090E00E9420260895AB01BC018FE090E06A
:101940000E9414260895AB01BC0183E190E00E943F
:101950001426089560E070E0CB010E94A30C089566
:1019600060E070E0CB010E949C0C0E94AA0C0895DC
:10197000A8E0B0E0EEEBFCE00C94932566EE7EEF81
:1019800090E080E00E94202660E082E090E00E94EB
:10199000022681E08093BC0161E083E090E00E9438
:1019A000022660E074E184E090E00E94202660E07E
:1019B00086E090E00E9402266FEF87E090E00E94B0
:1019C000022640E050E0BA0188E090E00E94142630
:1019D00060E084E290E00E94022660E087E190E00F
:1019E0000E94022660E08CE090E00E94022660E007
:1019F0008DE090E00E94022619821A821B821C82CE
:101A00001D821E821F82188648E050E068E170E067
:101A1000CE0101960E94F22540E050E0BA0180E23A
:101A200090E00E94142680E00E94691A0E94981A91
:101A30000E94B00C2896E2E00C94AF250E94B80CEE
:101A40000895682F8EE090E00E9402260895A6E097
:101A5000B0E0EDE2FDE00C9491250E94DF1D8C01C9
:101A600080915302909154028017910781F019825E
:101A70001A820E94DF1D682F49815A81792F80E0E8
:101A800090E00E94A70310935402009353022696FD
:101A9000E4E00C94AD250E94EB1D60935E02709310
:101AA0005F02809360029093610260935A02709388
:101AB0005B0280935C0290935D0208950E94EB1D8F
:101AC00060935E0270935F02809360029093610264
:101AD0006093560270935702809358029093590274
:101AE0000895089508950E94710D089508950E9423
:101AF000760D089580E290E10E943C110E94720DE3
:101B00000E94730D089581E008950E94830D089549
:101B10000E94830D0895089508950E948B0D0E94E0
:101B20008C0D08950E943F100E947B030E949F111C
:101B300008950E94D61D0E94A81A0E94E8120E94D1
:101B4000B6100E94920D0E94770D0895A6E0B0E0B5
:101B5000ECEAFDE00C948D250E94850D81110FC0EB
:101B60000E94270D0E94051381110E945E0D0E94A4
:101B7000A3170E948E032696E8E00C94A9250E94E4
:101B8000C2101091550280E00E946210181741F3B4
:101B90008091620281FD0E9468100E94880DD82EFB
:101BA00080E00E946210182F80915502181729F1C9
:101BB000E12EE82600E0FF24F394CC24C3948E2D7C
:101BC0008F21A9F0DD2099F009831A820E94DF1D80
:101BD0009C838B83CD8291E0812F8F2109F490E04B
:101BE00049815A816B817C818D810E94A7030F5F9F
:101BF000FF0C053021F7109355020E944B0DB2CF18
:101C00001F93CF93DF930E942F0FEC01C11580E546
:101C1000D807F0F5C11580E4D80708F09CC0C03E95
:101C2000D10520F5CD3CD10508F082C0C83AD105D8
:101C300078F4C53AD10508F073C0C130D10519F167
:101C4000209709F1C430D105F0F4D0E0C0E01BC00A
:101C5000C33CD105D0F7C85AD0E0CC0FDD1FCD5A18
:101C6000DE4F0990D881C02DD4640DC0C11580E22B
:101C7000D80708F0D1C0C11581E0D80708F05AC0D4
:101C8000C83ED10510F7CE01DF91CF911F91089585
:101C9000C03682E5D80718F5C03482E5D80708F0C9
:101CA0006BC0C03282E5D80708F05FC0C11582E57D
:101CB000D80708F497C02C2F2695269580E2289FF8
:101CC000900111248C2F8370C1E0D0E002C0CC0FB2
:101CD000DD1F8A95E2F7C22BD32BDD68D4CFC03A43
:101CE00082E5D80760F4C03882E5D80708F459C007
:101CF000CF71D0E0DC2FCC27C46FD06AC4CFC03CFA
:101D000082E5D80708F462C0C03E82E5D80708F033
:101D10009CCFDC2FCC27CC27DF71C06FD06AB3CF2C
:101D2000C55AD0E0C757DE4FC881D0E0D064ABCFF2
:101D3000D065A9CF8D2F0E94D10F182FCE019927E2
:101D40000E942F0FC12FD0E0DC2FCC27CC27DF71D2
:101D5000C82BD92B98CFCE0199270E942F0FCC27C3
:101D6000DF70C82BD92BD06A8ECFCF71D0E0DC2F9B
:101D7000CC27C16FD06A87CF2C2F26952695277048
:101D800080E2289F900111248C2F8370C1E0D0E065
:101D900002C0CC0FDD1F8A95E2F7C22BD32BDC6883
:101DA00072CF2C2F26952695277080E2289F9001D0
:101DB00011248C2F8370C1E0D0E002C0CC0FDD1F56
:101DC0008A95E2F7C22BD32BDA685DCF8C2F8F7107
:101DD0000E94D10FC82FD0E0DC2FCC27CC27DF7199
:101DE000D06251CF8C2F8F710E94D10F55E0D695C4
:101DF000C7955A95E1F7CF70D0E0DC2FCC27282F7C
:101E000030E084FF05C044E0220F331F4A95E1F71C
:101E1000C22BD32BD06937CF8D2F8F710E94D10F5A
:101E2000182FCE0199270E942F0FC12FD0E0DC2F51
:101E3000CC27CC27DF71C82BD92BD2CF462F7111DD
:101E400006C0653020F460E00E940D14089590E013
:101E500080E008950E941E0F0E94000E08958238AF
:101E60009105B9F1B0F48133910509F47DC048F4CE
:101E70008932910509F46DC08A32910509F47BC05D
:101E800008958533910509F45FC08933910509F1FF
:101E90000895833E9105D9F138F4803E910529F1EA
:101EA000823E910579F10895863E9105D9F1873EEC
:101EB000910509F43EC0843E910541F520918E02C2
:101EC00021FF24C080918D0284FD19C087EE90E02F
:101ED000089520918D02237009F05AC020918E023E
:101EE00023FF14C089E290E0089520918D0220FD27
:101EF00038C030918E0230FF09C024FF43C090E00B
:101F000080E0089520918D0222FDF7CF0895209161
:101F10008D0222FD3AC030918E0230FD39C024FF7F
:101F2000F5CFEDCF20918D0223FFF0CF24FDE7CF39
:101F3000CDCF20918D0223FD2EC030918E0231FF36
:101F4000EECF84EE90E0089520918D0225FFDECF44
:101F5000C9CF20918D0225FD21C020918E0223FF43
:101F6000D5CF89E390E0D2CF20918D0226FFCECF4E
:101F70008AE290E0089520918D0226FFC7CF81E389
:101F800090E0089583EE90E0089582EE90E0089549
:101F900080EE90E0089586EE90E0089585E390E06D
:101FA000089590918D0292FF10C041E0282F247176
:101FB000243009F040E031E0282F2871283009F062
:101FC00030E0431711F02CE0822793FF10C041E06E
:101FD000282F2471243109F040E031E0282F2871A6
:101FE000283109F030E0431711F02CE082273091BE
:101FF0008E0230FF10C051E0282F2171213009F0EE
:1020000050E041E0282F2871283009F040E05417B3
:1020100011F029E0822731FF10C041E0282F217103
:10202000213109F040E031E0282F2871283109F0F2
:1020300030E0431711F029E0822794FD877E089550
:1020400080E008950E94740C08950E94C2102FEF42
:1020500086E791E0215080409040E1F700C0000009
:102060000E94C21080E00E94621080FF04C00E94A3
:1020700022100E942A1E08950E94251008950E9491
:102080007B0C811102C00E941E0D0E94870C809360
:1020900062020E94910C90938E0280938D020E94A6
:1020A0003C100E948C0C0E942C078091BB010E9466
:1020B0004407089508950E945A10089508950E94B3
:1020C0005E100895E82FF0E0E057FD4F80810895FD
:1020D0000895CF93ACE8B1E041E951E061E070E0F0
:1020E0008D918F3F91F0E82FE295EF70F0E0C1A164
:1020F0008F709B0101C0220F8A95EAF7922F90956D
:102100009C2391A382A1822B82A34A175B0741F7EC
:10211000CF910895CF93DF93AC01A62FB0E085E077
:10212000689FF0011124E457FE4F75E081E060E004
:1021300091919F3FC9F0C92FC295CF70D0E028A1DF
:1021400030E09F7002C0359527959A95E2F720FD03
:102150000BC0282F622B880F715051F7A40FB51FA9
:102160006C93DF91CF91089520E0F4CF0E94691025
:102170001092900210928F0281E00E94E7100E945C
:102180005B100895A1E0B0E0E8ECF0E10C9492253A
:10219000198260E0CE0101960E948A1090918F0210
:1021A000898121E0981301C020E0981380938F0269
:1021B00041E060E972E08FE892E00E94E810182F99
:1021C0000E945F10812F2196E3E00C94AE250895C4
:1021D000B0E0A0E0EEEEF0E10C948D256C017B0107
:1021E000042FC22F222379F081E0809365020E94A0
:1021F000DF1D909364028093630280E0CDB7DEB769
:10220000E8E00C94A925D0916502DD23B1F380911B
:102210006302909164020E94F71D059770F310E02D
:10222000A801B601C7010E94CE25892B31F0A80173
:10223000B601C7010E94DB25CD2F109265028C2FBD
:10224000DDCF0E94BC1F0E94990D0E94C91F0895F6
:102250000E94CE1F0E94A60D0E94E81F08950E94B2
:10226000781D0E94A21F0E947A0D0E9421110E94D7
:1022700028110E948D0DFBCF9093B1018093B00186
:102280000895FB012581222341F097FF06C09F7727
:10229000BC0190E080E00E94851281E008950F93D8
:1022A0001F93CF93DF93EC018B01FB018581882382
:1022B00089F00E944F0B8272FE01E053FC47E83028
:1022C000F10540F4EC5BF94D0C947625882369F018
:1022D0000E94B711B801CE010E944111DF91CF9148
:1022E0001F910F910895882399F30E94B611F2CFA0
:1022F00080E00E94A811EECF81E0FBCF82E0F9CF11
:1023000083E0F7CF84E0F5CF85E0F3CF90919202A0
:10231000923071F48A3050F490E009966AE070E0EF
:102320000E946225875A0E947E0408958650FBCF42
:102330000E945419089508950E949B1108958CE0FD
:1023400090E00E94E425809392020E949C110895DF
:10235000CF93C82F80939202682F8CE090E00E9468
:1023600002268C2F0E949C11CF9108950895089504
:102370000E94AB1B8093910290919202913029F4BC
:1023800081FF03C089E30E947E040E944F0B80936B
:1023900093020E94620B0E94720B80919202823023
:1023A00021F158F48823C1F08130D1F08FE39CE90A
:1023B0000197F1F700C000000895843051F1853095
:1023C000A9F78BE191E00E94670285E290E00E940C
:1023D000670288E290E006C082EE0E94EA03E6CF40
:1023E00088E193E00E946702E1CF8091910280FD35
:1023F00003C083E50E947E0482EE0E94EA038FE31D
:102400009CE90197F1F700C0000087E50E947E0477
:10241000CDCF86EE0E947E0488E1F8CF80919202B3
:10242000823011F148F4882381F0813091F080915D
:1024300093020E945F0B08958430F9F08530B9F75C
:1024400088E290E00E946702F2CF82EE0E9433049D
:10245000EECF8CE20E947E048091910281FFE7CF53
:1024600089E30E947E04E3CF82EE0E9433048091D0
:10247000910280FDDCCF83E5F4CF88E2F2CF8F922A
:102480009F92AF92BF92EF92FF920F931F93CF93C1
:10249000DF934B015C01D09192028CE1E82EF12C8C
:1024A00007E010E021E0D501C4010E2C04C0B69570
:1024B000A795979587950A94D2F7C82FCF702223B6
:1024C00039F0D43051F4CA3040F080E00E948611D7
:1024D0008C2F0E94861120E005C0C111F9CF043075
:1024E0001105B4F30150110984E0E81AF1080F3F17
:1024F0001007C9F6DF91CF911F910F91FF90EF90D8
:10250000BF90AF909F908F900895CF92DF92EF92FF
:10251000FF926B017C01C114D10481E1E806F10452
:10252000A0F5C114D10481E0E806F10420F0809107
:102530009202823051F10E94B811C114D10481E09D
:10254000E806F10438F180919202811123C081E004
:10255000E81AF108C701B6012AE0969587957795A4
:1025600067952A95D1F778528F4F9F4F0E943F125F
:1025700083E0D822EE24FF24C701B60174528F4FA6
:102580009F4F0E943F120E940E12FF90EF90DF902B
:10259000CF900895C701B601F4CF8FE891E001977D
:1025A000F1F700C000000895CF93DF93D62F0E946B
:1025B000C501C82F882341F06AE070E089EAD11193
:1025C00001C08AEA0E9466048C2FDF91CF910895A2
:1025D00081E0809367028098889A8198899A0E9406
:1025E000CD122091670249E652E0FA018E2F841B3A
:1025F000821708F008958FB18170799904C090E036
:10260000892B8193F3CF92E0FBCFB0E0A0E0EBE029
:10261000F3E10C948D25F12CE12C84E0C82ED12C13
:1026200080916702F81630F08E2DCDB7DEB7E8E066
:102630000C94A9250F2D10E0EFB1E170799940C0FD
:1026400080E08E2BD801A759BD4FEC919E2F93703F
:102650009817A1F1EE0FEE0FE82BEC93EF70F0E07E
:10266000EF56FE4FE801C859DD4F80819881890FF0
:10267000888320E084305CF0F801EA59FD4F8081C6
:102680008F5F808360E08F2D0E94D41221E08881CB
:102690008D3F5CF4F801EA59FD4F808181508083C1
:1026A00061E08F2D0E94D41221E08881082E000C59
:1026B000990BB6010E9462258883E22AF394B0CF79
:1026C00082E0BFCF84E008950F931F93CF93DF93F1
:1026D000843008F561111FC04530E8F4042F10E084
:1026E000000F111F2AE0829F000D111D1124C80147
:1026F00089960E94E425C82FD0E0DC2FCC27C801A2
:102700008A960E94E4259E01282BC901DF91CF9172
:102710001F910F91089590E080E0F8CF1F93CF9321
:10272000DF93122F8430B8F4611115C0453098F44E
:10273000C42FD0E0CC0FDD1F9AE0899FC00DD11DC2
:102740001124632FCE0189960E940226612FCE01AB
:102750008A960E940226DF91CF911F910895CF9310
:10276000DF93D0E0C0E04C2F60E08D2F0E94CF01BE
:102770009C014C2F60E08D2F0E948E13CF5FC530DF
:1027800091F7DF5FD43071F7DF91CF910895EF9229
:10279000FF920F931F93CF93DF93EC018A017C018B
:1027A000E60EF71ECE018996CE15DF0529F4CDB7CA
:1027B000DEB7E6E00C94AB25C832D10540F40E94A8
:1027C000E425F80180830F5F1F4F2196EBCFF801BE
:1027D0001082F9CFB0E0A0E0E0EFF3E10C948D259A
:1027E0007C016A018C01060F171FEC01CE0189964E
:1027F000C017D10729F4CDB7DEB7E8E00C94A925BE
:10280000C832D10540F4FE01EE19FF09EC0DFD1DA3
:1028100060810E9402262196E9CF843038F461114C
:1028200005C0453018F40E946413089590E080E0DC
:10283000089580E108958FEA93E00895EF92FF9262
:102840000F931F93CF93DF93EC018A017C01E60E77
:10285000F71ECE018F5A9F4FCE15DF0529F4CDB755
:10286000DEB7E6E00C94AB25CF3A23E0D20740F484
:102870000E94E425F80180830F5F1F4F2196E9CF66
:10288000F8011082F9CFB0E0A0E0E9E4F4E10C94A3
:102890008D257C016A018C01060F171FEC01CE010A
:1028A0008F5A9F4FC017D10729F4CDB7DEB7E8E0A4
:1028B0000C94A925CF3A23E0D20740F4FE01EE198B
:1028C000FF09EC0DFD1D60810E9402262196E7CFD5
:1028D000CF93DF93C1E5D0E060E0CE010E940226F5
:1028E0002196C11584E0D807B9F7DF91CF910895FB
:1028F000A8E0B0E0EEE7F4E10C948B25F82E8FE031
:102900008F1508F46EC08FEF93E00E94E4258111CB
:1029100068C001E510E0F11035C0FE0131966F018D
:1029200088E011928A95E9F77801FFEFEF1AFF0A24
:10293000C8010E94E42589831A82882309F451C0C2
:102940008130D1F4580182E0A80EB11CC7010E9469
:10295000E4258A83882309F444C09FEF980F9330BD
:10296000F0F4780193E0E90EF11CC5010E94E42522
:102970008B838823B1F11C8260E0C6010E94EE18AF
:102980008701D2CF011594E0190759F1C8010E94BF
:10299000E425811101C0FA940F5F1F4FBCCF750170
:1029A000843051F702E010E07501EFEFEE1AFE0AF5
:1029B000C5010E94E425F601E00FF11F8083882302
:1029C00081F08C3741F4E2E0F0E0EC0FFD1FE00F06
:1029D000F11F1082D1CF0F5F1F4F57010730110534
:1029E00019F72896EAE00C94A725CF93DF93EB0123
:1029F00086319C4711F50E944F0B9D81992399F0D8
:102A00008A7A91E009F490E090936A02811109C0FA
:102A100089E20E94CA1C0E94060C80E0DF91CF91DF
:102A2000089585E3F6CF80916A02811104C089E29E
:102A30000E94E11CF0CF85E3FBCF81E0EFCFCF9385
:102A4000DF93EC01FB018581882309F4D2C09E014C
:102A500030572332310508F0B2C00E94910C909398
:102A60008E0280938D02FE01E150F047E232F105C3
:102A700020F4E45BF94D0C94762580918D02816001
:102A800080938D0293C080918E02886080938E0225
:102A90008DC080918D028260F3CF80918D02846021
:102AA000EFCF80918D028860EBCF80918E028160A4
:102AB000EDCF80918E028260E9CF80918D0280619E
:102AC000DFCF80918D028062DBCF80918D028064A8
:102AD000D7CF0E94E10680918D028068D1CF80918E
:102AE0008D028C60CDCF80918E028360CFCF80919C
:102AF0008D028E7FC5CF80918E02877FC7CF809158
:102B00008D028D7FBDCF80918D028B7FB9CF80915B
:102B10008D02877FB5CF80918E028E7FB7CF809157
:102B20008E028D7FB3CF80918D028F7EA9CF809151
:102B30008D028F7DA5CF80918D028F7BA1CF0E94CA
:102B4000E10680918D028F779BCF80918D02837FEC
:102B500097CF80918E028C7F99CF80918D0282FBDE
:102B6000992790F921E0922790FB82F990FB83F955
:102B700087CF80918E02982F909591708E7F892BB0
:102B800090FB81F983CF90918D02892F8F7B96FFE7
:102B9000806476CF0E94E10690918D02892F97FB89
:102BA00087F980586DCF81E00E94210D80918D02C0
:102BB00090918E020E94960C0E94E10680E0DF91C7
:102BC000CF91089580E0F0CF90918D02892F8F7E74
:102BD00094FF806155CF90918D02892F8E7F90FF59
:102BE00081604ECF90918E02892F877F93FF8860FE
:102BF0004DCF81E0E4CF282F35EB2303C001112412
:102C000097FF04C080589109892F089580589F4FDD
:102C1000FBCF8091710280FF0DC06091090170E0CF
:102C2000660F771F6038710570F56115710569F1E0
:102C3000862F089581FF07C06091090184E0689F95
:102C4000B0011124EFCF6091090182FD0AC080918B
:102C500070028823A9F02091080160910901821770
:102C600010F088E0ECCF869FC001112433E0880F7C
:102C7000991F3A95E1F7622F70E00E946225D2CF4A
:102C800068E070E0D5CF8FE7089581E008958091E6
:102C9000710280FF0CC06091050170E07595679529
:102CA000759567956115710549F1862F089581FF26
:102CB00006C06091050170E075956795F3CF60914E
:102CC000050182FD0BC090916F029923A1F06091E4
:102CD000040180910501961738F0682F70E0603884
:102CE000710500F38FE70895899FC001112470E0FA
:102CF0000E946225F4CF61E070E0D7CF81E00895B3
:102D00009091740220917502922B20917702922B60
:102D100020917602922B31F098E09093700291E02E
:102D200090936F028D3C31F40E9409168195809337
:102D3000750208958E3C19F40E940916F8CF8F3C55
:102D400031F40E9409168195809374020895803DA4
:102D500019F40E940916F8CF893D29F40E944716FC
:102D60008093760208958A3D21F40E94471681954A
:102D7000F7CF8B3D31F40E944716819580937702FF
:102D800008958C3D19F40E944716F8CF9FE2980FE2
:102D9000983070F4815D990B21E030E001C0220F82
:102DA0008A95EAF780917302822B809373020895CB
:102DB0008D3D31F48091710281608093710208959C
:102DC0008E3D21F4809171028260F7CF8F3DB9F77B
:102DD000809171028460F1CF409174028D3C59F46E
:102DE0008091750287FF0DC01092750241110BC0D2
:102DF0001092700208C08E3C81F480917502181602
:102E00009CF3442381F08091760290917702892B84
:102E100009F05AC010926F0208958F3C49F447FFA1
:102E2000F0CF10927402809175028111ECCFE0CF47
:102E3000803D19F41416ACF3E4CF90917602893DED
:102E400029F41916F4F610927602DBCF8A3D19F4B4
:102E500097FFD7CFF8CF909177028B3D29F497FF5A
:102E6000D0CF10927702CDCF8C3D19F41916CCF348
:102E7000C8CF9FE2980F983090F4815D990B21E0C4
:102E800030E0B90102C0660F771F8A95E2F7CB01E7
:102E9000809590917302892380937302B2CF8D3D08
:102EA00031F4809171028E7F80937102AACF8E3DA2
:102EB00021F4809171028D7FF7CF8F3D09F0A1CF72
:102EC000809171028B7FF0CF08950E94DF1D9C01DD
:102ED0009091740280917502982B21F030936E02CC
:102EE00020936D029091760280917702982B21F0C9
:102EF00030936C0220936B0282E792E00E94C71B22
:102F0000089586E0E2E7F2E0DF011D928A95E9F795
:102F10001092700210926F02109271020895FC01DB
:102F2000828181110EC0838181110BC08481811146
:102F300008C091E08581811101C090E0892F8170E6
:102F4000089581E0FCCFA6E0B0E0E9EAF7E10C9457
:102F5000922586E0E2E7F2E0DE01119601900D9203
:102F60008A95E1F71092740210927502109276021F
:102F7000109277028B819C81892B89F080916D0260
:102F800090916E020E94F71DAC01909170029923FE
:102F9000C9F180910A018417150608F440C08D819B
:102FA0009E81892B91F080916B0290916C020E941E
:102FB000F71DAC0190916F02992309F46AC08091CA
:102FC00006018417150608F472C0BE016F5F7F4FBB
:102FD00082E792E00E94121D811105C082E792E013
:102FE0000E948F1781110E94651786E0FE013196BD
:102FF000A2E7B2E001900D928A95E1F72696E3E010
:103000000C94AE2520910B018AE0289F9001112499
:103010002417350720F69F5F9093700202C09F3FF0
:10302000D1F71B81112359F00E9409169FEF111649
:103030000CF491E0899F802D1124809374021C81EF
:10304000112359F00E9409169FEF11160CF491E01C
:10305000899F802D112480937502809174028823AA
:1030600009F49DCF10917502112309F498CF0E94A5
:10307000FB15882351F080937402812F0E94FB1569
:10308000882329F0809375028ACF81E0F4CF81E014
:10309000F9CF209107018AE0289F9001112424177D
:1030A000350708F092CF9F5F90936F0202C09F3F59
:1030B000D1F71D81112359F00E9447169FEF111679
:1030C0000CF491E0899F802D1124809376021E815B
:1030D000112359F00E9447169FEF11160CF491E04E
:1030E000899F802D11248093770280917602882316
:1030F00009F46BCF10917702112309F466CF0E9477
:10310000FB15882351F080937602812F0E94FB15D6
:10311000882329F08093770258CF81E0F4CF81E0B3
:10312000F9CFB0E0A0E0E7E9F8E10C948E25E82FB4
:10313000F0E0E054FF4FD490282F26952695269551
:1031400030E0F901E05AFE4F0491877010E0082E3C
:1031500002C0159507950A94E2F701701127F9014D
:10316000E05BFE4FE490F12C082E02C0F594E7944A
:103170000A94E2F791E0E922FF24F901E05CFE4FB6
:10318000C491D0E002C0D595C7958A95E2F7C17089
:10319000DD270115110519F081EE0E94EA03E11403
:1031A000F10419F086EE0E94EA038D2D0E947E0440
:1031B000E114F10419F086EE0E94330401151105A3
:1031C00019F081EE0E943304CD2B19F08CE20E949D
:1031D0007E04CDB7DEB7E7E00C94AA25EF92FF920C
:1031E0000F931F93CF93DF93EC01162F0AE0888192
:1031F000882309F454C0813009F04EC089818130A0
:1032000099F47E0122E0E20EF11C8A810E947E0484
:10321000E7012196812F815050F3EFE9FFE03197CC
:10322000F1F700C00000F7CF823041F47E0182E068
:10323000E80EF11C8A810E94EA03EACF833041F450
:103240007E01E2E0EE0EF11C8A810E943304E0CFA1
:10325000843011F02196DDCF2A81229690E080E023
:10326000AE014F5F5F4F2053330B2A30310548F0DA
:10327000019778F2EFE9FFE03197F1F700C0000025
:10328000F7CF089FB001099F700D1124C901860F67
:10329000971F2981EA01E4CF0E949118BACFCDB7D8
:1032A000DEB7E6E00C94AB25982F9F709A509630CD
:1032B00020F0805D0E9491180895895AFBCF0F93EA
:1032C0001F93CF93DF93C42FD22FFC0185818823D6
:1032D000C9F040937A020E94DF1D90937902809397
:1032E000780280E28C0F883040F4C77081E001C022
:1032F000880FCA95EAF70E948704DF91CF911F914A
:103300000F91089510917A02141332C080917802BF
:10331000909179020E94F71D883C910548F5C0E222
:10332000CD0F1D17B9F080E2810F883040F417707F
:1033300081E001C0880F1A95EAF70E948E04C83018
:1033400048F481E09D2F977001C0880F9A95EAF7A5
:103350000E948704802F0E947E04C83070F6D770C8
:1033600081E001C0880FDA95EAF70E948E04C5CF8C
:1033700080E28C0F883008F6C77081E001C0880FAA
:10338000CA95EAF7F2CF0F93DB0188519C4787304B
:103390009105A0F5FC01E259F94D0C94762506E261
:1033A00021EE41EE6AE17CE7CD010E945F1980E0E9
:1033B0000F91089507E225EE45EE6BE17CE7F4CF2F
:1033C00006E221EE40EE68E17CE7EECF07E225EE73
:1033D00044EE69E17CE7E8CF06E221EE42EE6CE1E3
:1033E0007CE7E2CF07E225EE46EE6DE17CE7DCCF3D
:1033F00008E221E045EE6EE17CE7D6CF15968C9190
:10340000882319F010927A02D3CF81E0D1CF1F9395
:10341000CF93DF9387372CE7920759F0C1E08837C5
:103420009C47E1F4FB01C581CC2371F10E944A1A4B
:1034300006C0FB01C581CC23B1F00E94471A0E944F
:1034400059070E944D1AD82F0E944A1AC82F0E946D
:10345000471A4D2F6C2F0E947808C0E08C2FDF9107
:10346000CF911F9108950E94471A0E9465070E94FC
:103470004D1A182F0E944A1AD82F0E94471A412F1E
:103480006D2F0E947808EACF0E944A1AEECF8091F1
:103490000E01089580910D01089580910C01089509
:1034A00085E290E00E94E425843289F486E290E08F
:1034B0000E94E425813059F487E290E00E94E425DF
:1034C00091E0893209F090E0892F8170089580E0C1
:1034D000FCCFCF93C82F6FEF811164E285E290E0BB
:1034E0000E9402266FEFC11161E086E290E00E9427
:1034F00002266FEFC11169E287E290E00E94022686
:10350000CF910895089588E290E00E94E425682F05
:1035100070E090E080E008950895CF93C62F0E9458
:103520008C1A6C2F88E290E00E940226CF910895B9
:1035300080E00E94691A60E070E0CB010E948D1A61
:103540000E94AF130E94681481E00E94691A0895D6
:103550000E94821A0E94831A0E948C1A0E94501A9A
:10356000811102C00E94981A089508959C01FB01E0
:103570008581882351F0A90157574038510530F40F
:10358000822F0E94781480E0089581E008952FEF43
:10359000FC01208308950E94C71A089580E00895D1
:1035A000EF92FF920F931F93CF93DF93EC01162FAF
:1035B0000E94CE1A811110C0E881E150E331B8F4C5
:1035C000F0E0EB58F94D0C94762519828CE08A8353
:1035D000612FCE010E94961ECDB7DEB7E6E00C94B7
:1035E000AB2589818230C1F028F4813061F08FEF02
:1035F0008883EECF833099F08430C9F71A821B821A
:103600001C821D82E5CF0E94EB1D0E947C256A83EF
:103610007B838C839D83DCCF0E94831AF6CF0A8143
:10362000802F90E07E0123E0E20EF11C892B81F6D1
:1036300080E00E946210F70181937F0181E090E0B9
:10364000053EA1F7C5CF8981823031F0853079F60A
:103650008A810E94B51ABCCF6A817B818C819D8151
:103660000E947C250E948D1AB3CF4B816A8189818B
:103670000E9464139827892798279D838C83A8CF5D
:103680002C813D813227232732274B816A81898112
:103690000E948E139DCF0E94AF139ACF612FCE014F
:1036A0000E94CB1A95CF0E941914898391CF0E9452
:1036B0001B149827892798279A83898389CF6B8140
:1036C00070E089819A81AE014C5F5F4F982789270E
:1036D00098270E941E147CCF6B8170E089819A81AB
:1036E000AE014C5F5F4F9827892798270E944314AB
:1036F0006FCF0E9468146CCF0E946213D6CF6B818B
:1037000070E089819A81AE014C5F5F4F98278927CD
:1037100098270E94C7135CCF6B8170E089819A81E2
:10372000AE014C5F5F4F9827892798270E94EA13C4
:103730004FCF9093800280937F020895E0917F02A3
:10374000F0918002309729F00190F081E02D0995E9
:10375000089580E008950E949E1B0895E0917F02E5
:10376000F0918002309721F00280F381E02D0995DD
:103770000895E0917F02F0918002309739F026E0C1
:10378000DC012C930480F581E02D09950895E091EA
:103790007F02F0918002309739F022E0DC012C9317
:1037A0000680F781E02D09950895A3E0B0E0EBEDE8
:1037B000FBE10C94932520917D0230917E02281725
:1037C0003907A1F090937E0280937D02E0917F0201
:1037D000F0918002309751F023E029839B838A8304
:1037E0000084F185E02DCE01019609952396E2E053
:1037F0000C94AF25A3E0B0E0E0E0FCE10C9493254D
:1038000020917B0230917C0228173907A1F0909318
:103810007C0280937B02E0917F02F09180023097DE
:1038200051F024E029839B838A830084F185E02D75
:10383000CE01019609952396E2E00C94AF252091E4
:103840000201309103012E5F3F4F809119018823BF
:1038500079F080918D0287FF0BC02091000130919B
:1038600001012E5F3F4F9EE180E0915018F40895D2
:1038700096E0FACFF90141919F014423B1F38F5FA4
:10388000F4CF882321F190911901992311F190919E
:103890008D0297FF1EC0E82FE695E695E695EE317E
:1038A000B0F42091000130910101E20FF32FF11DDE
:1038B000228130E0877041E050E002C0440F551F84
:1038C0008A95E2F72423352381E0232B91F480E0CD
:1038D00008952091020130910301F9013296285F89
:1038E0003F4F9191981721F0E217F307D1F7EFCFEF
:1038F00081E008959C01FC0132969FEF80E04191A8
:10390000461751F09F3F19F4411101C0982F8F5F66
:103910008630A9F79F3F09F40895290F311D97FDBF
:103920003A95F90162830895FC0132960896219137
:10393000261303C0DF0111971C92E817F907B9F7A6
:103940000895E62FE695E695E695EE3168F4E80FE2
:10395000F92FF11D677021E030E001C0220F6A9558
:10396000EAF78281822B82830895E62FE695E69519
:10397000E695EE3170F4E80FF92FF11D677021E044
:1039800030E001C0220F6A95EAF720958281282352
:1039900022830895682F80911901882359F080911E
:1039A0008D0287FF07C080910001909101010E9464
:1039B000A11C089580910201909103010E947A1C3C
:1039C0000895682F80911901882359F080918D0204
:1039D00087FF07C080910001909101010E94B51CF2
:1039E000089580910201909103010E94941C089512
:1039F00080911901882379F080918D0287FF0BC097
:103A0000E0910001F091010132968EE1DF011D92FB
:103A10008A95E9F70895E0910201F0910301329649
:103A200086E0F4CFDC01FB0111969C911197818116
:103A3000981322C012968C911297882319F09281C4
:103A400089131AC013968C911397882319F09381C8
:103A5000891312C015968C911597882319F09581BA
:103A600089130AC014969C91992321F081E0248146
:103A7000291303C080E001C081E08170089508959A
:103A80000E943F1D0895811106C081E0809381024C
:103A90000E94401D089582E0F9CF83E08093810267
:103AA0000E94401D08950E94431D089581E0809367
:103AB00081020E94401D08950E94561D0895089598
:103AC00008950E94601D0895089508950E945F1D45
:103AD00008950E94641D0E94C2100E94651D80E02E
:103AE0000E94621091E0811101C090E0892F089539
:103AF00085B7806885BF85B7806885BF08951F92A8
:103B00001FB61F9211248F939F93AF93BF93809101
:103B10008202811113C08091940290919502A0912C
:103B20009602B09197024196A11DB11D8093940217
:103B300090939502A0939602B0939702BF91AF9194
:103B40009F918F911F901FBE1F90189580919C028E
:103B5000843031F10E945E031092820288E190E08D
:103B600020E40FB6F894A895809360000FBE2093D0
:103B7000600083B7817F846083BF83B7816083BF28
:103B80007894889583B78E7F83BF0FB6F894A895F5
:103B900080916000886180936000109260000FBE89
:103BA00008950E94E1060E946303089582E084BDA7
:103BB00093E095BD9AEF97BD80936E0008952FB75F
:103BC000F8948091940290919502A0919602B09100
:103BD00097022FBF08952FB7F894609194027091C7
:103BE000950280919602909197022FBF08959C01B3
:103BF0004FB7F8948091940290919502A09196020B
:103C0000B09197024FBF821B930B089578941F9237
:103C10001FB61F9211248F939F93AF93BF938091F0
:103C2000940290919502A0919602B091970201960C
:103C3000A11DB11D8093940290939502A0939602CA
:103C4000B0939702BF91AF919F918F911F901FBE2C
:103C50001F90189587E797E79093010880930008D5
:103C600088E19AE00FB6F894A895809360000FBEA3
:103C700090936000FFCF88E19AE00FB6F894A89582
:103C8000809360000FBE90936000FFCF80918B0205
:103C900008959B01BA0190919C029430E9F48F70D1
:103CA0008093E9009FEF8091E800915085FD06C068
:103CB00085ED8A95F1F700009111F5CF8091E8002C
:103CC00085FF0AC050E040E0C9010E948C2080912D
:103CD000E8008E778093E800089543E050E0BC014F
:103CE00084E00E94491E089546E050E0BC0184E053
:103CF0000E94491E089540E250E0BC0184E00E9409
:103D0000491E0895CF93DF93EC0148E050E0BC01D9
:103D100081E00E94491E88E0FE01A3E8B2E0019024
:103D20000D928A95E1F7DF91CF910895603231F4D9
:103D300040E250E0BC0182E00E94491E089580915B
:103D40009B02811109C00E946B220E94C8228091AF
:103D5000E20084608093E200089510929B0208952F
:103D60000E94561D08956091980281E0611101C082
:103D700080E00E944D1D089590919C0281E0943056
:103D800009F080E0609198020E94531D089542E07E
:103D900061EC81E00E94E72142E261EC84E00E9454
:103DA000E72142E261EC82E00E94E72142E260EC1E
:103DB00083E00E94E72190919C0281E0943009F019
:103DC00080E0609198020E94431D089580919E02B8
:103DD000833009F463C030F48130E1F1823009F4BA
:103DE000A0C008958A3009F48CC08B3009F471C0EA
:103DF000893009F052C080919D02813209F04DC096
:103E00008091A1029091A202009719F0029709F007
:103E100044C08091E800877F8093E8008091E800AB
:103E200082FF37C09091F3008091F200029731F445
:103E30008091F100813011F0863021F48091F10001
:103E400080938B028091E8008B778093E8000E943A
:103E50001B2223C080919D02813AF9F48091E800F1
:103E6000877F8093E8008091A1029091A202892B24
:103E700061F468E083E892E070E00E942A2180917A
:103E8000E8008B778093E800089560E090E080E0A0
:103E9000F3CF80919C028111C1CF089580919D0242
:103EA000813AD9F78091A1029091A202892BA9F7BA
:103EB0008091E800877F8093E8008091E80080FF90
:103EC000FCCF809119018093F1008091E8008E77FA
:103ED000BCCF80919D02813201F78091A102909127
:103EE000A202892BD1F68091E800877F8093E800B9
:103EF0000E941B2280919F02809319010E94E1067B
:103F0000089580919D02813241F68091E800877F7B
:103F10008093E8000E941B228091A00280938C0273
:103F2000089580919D02813A09F0B7CF8091E80011
:103F3000877F8093E8008091E80080FFFCCF80912C
:103F40008C02C1CF84B7877F84BF0FB6F894A89541
:103F500080916000886180936000109260000FBEC5
:103F600080E890E00FB6F894809361009093610030
:103F70000FBE0E945C1D08950E946B220E94C82201
:103F8000E2EEF0E080818460808378940E9447258F
:103F900008958FE091E00E94991B089580919C0202
:103FA000853031F480919C02853019F00E94D11D3A
:103FB00008950E94A61D80919A02882399F30E9479
:103FC000691D882379F30E9476200E94E106EACFDA
:103FD000A0E2B0E0EEEEFFE10C94932580919C020C
:103FE000843009F583E08093E9008091E80082FF46
:103FF0001AC08091E80090E085FF09C050E040E0E1
:1040000060E270E0CE0101960E94DB2091E0809199
:10401000E8008B778093E800992329F060E2CE01D5
:1040200001960E94D01AA096E2E00C94AF259A0166
:104030004091A3025091A4020E941F200895492F8D
:1040400055274330510521F168F44130510509F4F9
:1040500043C04230510509F444C090E080E050E094
:1040600040E026C04132510551F142325105A9F7D5
:104070006330710590F7FB01EE0FFF1FEC55FE4F0B
:10408000408151816F557E4FFB01808190E010C0CF
:1040900099278130910581F0009729F00297E9F680
:1040A000E0E7F1E002C0EEEBF1E0849190E0AF01D7
:1040B000F901518340830895E8E9F1E0F6CF6330D8
:1040C000710558F6660F771FFB01E655FE4F4081DC
:1040D000518189E090E0ECCF82E190E04DE152E047
:1040E000E7CF8BE590E042EC51E0E2CF80E189BD83
:1040F00082E189BD09B400FEFDCF8091D8008F7D9B
:104100008093D8008091E00082608093E0008091ED
:10411000E00081FDFCCF0895AF92BF92CF92DF9275
:10412000FF920F931F93CF93DF936C01EB018A01F2
:104130000E943A22F82E811123C00115110539F091
:10414000F80180819181C81BD90BC80ED91EB12CF2
:10415000A12C2097A9F08091E80085FD22C08091D4
:10416000E8008E778093E80001151105A1F0F801B1
:1041700080819181A80EB91EB182A08285E0F82EBF
:104180008F2DDF91CF911F910F91FF90DF90CF90F6
:10419000BF90AF9008950E943A228823D1F2F82E62
:1041A000EFCFF60181916F018093F1002197FFEF2E
:1041B000AF1ABF0ACECFAF92BF92CF92DF92FF92DB
:1041C0000F931F93CF93DF936C01EB018A010E9441
:1041D0003A22F82E811123C00115110539F0F8019A
:1041E00080819181C81BD90BC80ED91EB12CA12C7E
:1041F0002097A9F08091E80085FD22C08091E80019
:104200008B778093E80001151105A1F0F8018081FA
:104210009181A80EB91EB182A08285E0F82E8F2D63
:10422000DF91CF911F910F91FF90DF90CF90BF90C2
:10423000AF9008950E943A228823D1F2F82EEFCF52
:104240008091F100F60181936F012197FFEFAF1A82
:10425000BF0ACECFFC018091A3029091A4028617E1
:104260009707A0F06115710529F49091E8009E77F9
:104270009093E80090E06115710551F4911108C028
:104280008091E80082FF34C080E00895BC01F2CF45
:1042900080919C028823C1F18530C1F18091E800B2
:1042A00083FD30C08091E80082FDEACF8091E80074
:1042B00080FFE1CF8091F3002091F200382F61154B
:1042C000710519F02830310558F091E0283031059A
:1042D00009F090E02091E8002E772093E800CBCF02
:1042E00081918093F100615071092F5F3F4FE7CFBB
:1042F00080919C02882341F0853041F08091E80054
:1043000083FFBECF81E0089582E0089583E00895A1
:10431000FC018091A3029091A40286179707A0F058
:104320006115710529F48091E8008E778093E8008B
:1043300090E06115710551F4911108C08091E80079
:1043400082FF35C080E00895BC01F2CF80919C02CD
:104350008823C9F18530C9F18091E80083FD31C01F
:104360008091E80082FDEACF8091E80080FFE1CFF4
:104370008091F3002091F200382F6115710519F03A
:104380002830310558F091E02830310509F090E0EF
:104390008091E8008E778093E800CBCF8491809362
:1043A000F1003196615071092F5F3F4FE6CF809148
:1043B0009C02882341F0853041F08091E80083FF22
:1043C000BDCF81E0089582E0089583E00895982F9D
:1043D000973028F08F708093E90081E008959093E2
:1043E000E900242F762F50E0981731F07091EC00FF
:1043F0002091ED005091F00021FD02C09F5FE8CFB9
:104400003091EB003E7F3093EB003091ED003D7F2B
:104410003093ED003091EB0031603093EB007093FE
:10442000EC002093ED005093F0002091EE0027FD6A
:10443000E5CF80E0089580919D0287FF13C08091B1
:10444000E80082FF06C08091E8008B778093E80047
:1044500004C080919C028111F2CF089580919C024A
:104460008823D9F38091E80080FFF8CF8091E8009D
:104470008E77ECCF2091E4003091E50095E6A9011C
:104480002091EC00822F817020FF06C08091E8000F
:1044900080FF06C080E008952091E80022FD1AC048
:1044A00080919C02882389F0853089F08091EB000F
:1044B00085FD0FC02091E4003091E50042175307BD
:1044C000F9F29150E1F684E0089582E0089583E0E6
:1044D000089581E008950E94DA220E94E222E0EE2F
:1044E000F0E0808181608083E8EDF0E080818F776B
:1044F000808319BCA7EDB0E08C918E7F8C93808176
:104500008F7E808310929B0208950F931F93CF9309
:10451000DF930E94DA220E94E222C8EDD0E0888177
:104520008F77888388818068888388818F7D88835E
:1045300019BC10929C021092980210929A0210924A
:10454000990200EE10E0F80180818B7F80838881E2
:104550008160888342E060E080E00E94E721E1EE34
:10456000F0E080818E7F8083E2EEF0E080818160E8
:104570008083808188608083F80180818E7F808342
:10458000888180618883DF91CF911F910F91089579
:10459000E8EDF0E080818F7E8083E7EDF0E08081C0
:1045A0008160808384E082BF81E080939B020E94CF
:1045B00085220895E8EDF0E080818E7F808310925F
:1045C000E20008951092DA001092E10008951F921F
:1045D0000F920FB60F9211242F933F934F935F9337
:1045E0006F937F938F939F93AF93BF93EF93FF93BB
:1045F0008091E10082FF0BC08091E20082FF07C042
:104600008091E1008B7F8093E1000E94462580919C
:10461000DA0080FF19C08091D80080FF15C080911A
:10462000DA008E7F8093DA008091D90080FF96C0F7
:1046300080E189BD82E189BD09B400FEFDCF81E042
:1046400080939C020E949F1E8091E10080FF19C010
:104650008091E20080FF15C08091E2008E7F809300
:10466000E2008091E20080618093E2008091D800B6
:1046700080628093D80019BC85E080939C020E94E0
:10468000B31E8091E10084FF2BC08091E20084FF83
:1046900027C080E189BD82E189BD89B5982F9170DD
:1046A00080FFFBCF8091D8008F7D8093D8008091D0
:1046B000E1008F7E8093E1008091E2008F7E809305
:1046C000E2008091E20081608093E2008091980294
:1046D000882309F449C084E080939C020E94BC1E98
:1046E0008091E10083FF29C08091E20083FF25C013
:1046F0008091E100877F8093E10082E080939C02BB
:10470000109298028091E1008E7F8093E100809169
:10471000E2008E7F8093E2008091E20080618093CE
:10472000E20042E060E080E00E94E7218091F0003A
:1047300088608093F0000E94B01EFF91EF91BF91BE
:10474000AF919F918F917F916F915F914F913F9129
:104750002F910F900FBE0F901F90189519BC1092BB
:104760009C020E94AD1E70CF8091E30087FD93E014
:1047700090939C02B3CF1F920F920FB60F92112409
:104780002F933F934F935F936F937F938F939F9359
:10479000AF93BF93CF93DF93EF93FF93D091E90053
:1047A000DF708091EC00C82FC17080FDC0E81092CE
:1047B000E9008091F000877F8093F00078940E9458
:1047C000FF231092E9008091F00088608093F00050
:1047D000CD2BCF70C093E900FF91EF91DF91CF9186
:1047E000BF91AF919F918F917F916F915F914F9109
:1047F0003F912F910F900FBE0F901F901895AAE236
:10480000B0E0E5E0F4E20C9492258DE992E020918D
:10481000F100FC012193CF01F2E0853A9F07B9F73F
:104820000E94E61E8091E80083FF1EC180919D02D8
:1048300090919E029A3008F017C1E92FF0E0E857F6
:10484000F94D0C947625803899F0823809F00CC126
:104850008091A1028F70873008F006C18093E90033
:104860008091EB0085FB882780F91092E90006C053
:104870008091990290919A02911182609091E80042
:10488000977F9093E8008093F1001092F10080915F
:10489000E8008E77E5C0882309F4D3C0823009F0A0
:1048A000E3C080919F028111D6C08091A1028F70D8
:1048B0002FEF280F263008F0D7C08093E900209111
:1048C000EB0020FFC8C0933031F48091EB00806290
:1048D0008093EB00C0C09091EB0090619093EB004F
:1048E00021E030E001C0220F8A95EAF72093EA0028
:1048F0001092EA008091EB008860EACF8111B4C089
:1049000010919F021F778091E3008078812B809324
:10491000E3008091E800877F8093E8000E941B22DB
:104920008091E80080FFFCCF8091E3008068809355
:10493000E30082E0111183E080939C0295C08058CF
:10494000823008F091C080919F029091A0028C3D2E
:1049500023E09207A1F583E08A838AE289834FB737
:10496000F894DE01139620E03EE051E2E32FF0E000
:1049700050935700E49120FF03C0E295EF703F5F32
:10498000EF708E2F90E0EA30C0F0C7968D939D9324
:104990002F5F243159F74FBF8091E800877F8093C4
:1049A000E8006AE270E0CE0101960E942A2180911F
:1049B000E8008B778093E80057C0C096E7CF6091FE
:1049C000A1027091A202AE014F5F5F4F0E941720BB
:1049D000BC01892B09F448C09091E800977F90931F
:1049E000E80089819A810E948821E1CF8038E1F531
:1049F0008091E800877F8093E800809198028093FF
:104A0000F10045CF811130C090919F02923060F546
:104A10008091E800877F8093E800909398020E943D
:104A20001B2280919802882311F084E005C08091B8
:104A3000E30087FDFACF81E080939C020E94C71EAD
:104A400013C080919F02813079F481E0933009F0A6
:104A500080E080939A021092E9008091E800877FBD
:104A60008093E8000E941B228091E80083FF0AC027
:104A70008091E800877F8093E8008091EB0080625E
:104A80008093EB00AA96E3E00C94AE250895CF93B3
:104A900080919C028823A1F0C091E900CF70909191
:104AA000EC00892F817090FD80E8C82B1092E900FE
:104AB0008091E80083FD0E94FF23CF70C093E9003E
:104AC000CF91089597FB072E16F4009407D077FD39
:104AD00009D00E94BA2507FC05D03EF49095819537
:104AE0009F4F0895709561957F4F0895EE0FFF1FBA
:104AF0000590F491E02D0994692796276927782776
:104B00008727782708952F923F924F925F926F9256
:104B10007F928F929F92AF92BF92CF92DF92EF924D
:104B2000FF920F931F93CF93DF93CDB7DEB7CA1BCE
:104B3000DB0B0FB6F894DEBF0FBECDBF09942A88F9
:104B4000398848885F846E847D848C849B84AA84A1
:104B5000B984C884DF80EE80FD800C811B81AA812E
:104B6000B981CE0FD11D0FB6F894DEBF0FBECDBFF9
:104B7000ED010895AA1BBB1B51E107C0AA1FBB1F73
:104B8000A617B70710F0A61BB70B881F991F5A95D9
:104B9000A9F780959095BC01CD010895FB01DC013A
:104BA00004C08D910190801921F441505040C8F704
:104BB000881B990B0895FB01DC0102C001900D9246
:104BC00041505040D8F70895F999FECF92BD81BD6C
:104BD000F89A992780B50895A8E1B0E042E050E046
:104BE0000C942826DC01A40FB51F4150504048F01A
:104BF000CB01840F951F2E910E94032641505040F7
:104C0000D0F70895262FF999FECF92BD81BDF89A6D
:104C1000019700B4021639F01FBA20BD0FB6F89400
:104C2000FA9AF99A0FBE08950396272F0E94032639
:104C30000E940226252F0E940326242F0C9403266F
:104C40000196272F0E9403260C940226DC01CB013B
:104C5000FC01F999FECF06C0F2BDE1BDF89A31968C
:104C600000B40D9241505040B8F70895F894FFCF2A
:104C7000D604D604260526058B05A70505050505DA
:104C8000AC051306220622066611731178117C11F9
:104C90007E118011821184117715EB157F1549154E
:104CA0004D1583155115871593155D15E41561157F
:104CB000971565159B15C31569159F15CA156F15B1
:104CC000A515AD1555158B1559158F157315A91506
:104CD000B915D315E21543157B15F215E019E61940
:104CE000CF19DA19EC19F219F819E51AF11A231B80
:104CF000351B401B4B1B4E1B4E1B4E1BF71AF71A46
:104D0000531B571B5F1B6C1B791B7C1B7F1B8C1B56
:104D100023244B2434254B2434257E249F243425FE
:044D2000F62402254E
:104D240029024902280850011E0A140103020146FF
:104D34001E821E7B1E741E6D1E01E200E900EA0045
:104D4400B500B600B700CD008301CC008A01920102
:104D540094012102230224022502260227022A02A8
:104D6400B300B4006F0070009F01CB019F02A0024A
:104D7400818283E200E900EA00B500B600B700CD05
:104D8400008301CC008A01920194012102230224B0
:104D9400022502260227022A02B300B4006F007023
:104DA400009F01CB019F02A002818283673796F5A1
:104DB400F700FF0100010000FFFF0000010001FFF8
:104DC400004422B607032F025102D401ED010D0263
:00000001FF
