:100000000C94A3020C94C0020C94C0020C94C00285
:100010000C94C0020C94C0020C94C0020C94C00258
:100020000C94C0020C94C0020C94C8290C9484292E
:100030000C94C52A0C94C0020C94C0020C94C0020B
:100040000C94C0020C94C0020C94C0020C94C00228
:100050000C94C0020C94A12A0C94C0020C94C0020F
:100060000C94C0020C94C0020C94C0020C94C00208
:100070000C94C0020C94C0020C94C0020C94C002F8
:100080000C94C0020C94C0020C94C0020C94C002E8
:100090000C94C0020C94C0020C94C0020C94C002D8
:1000A0000C94C0020C94C0020C94C0020501090219
:1000B000A10185020901A1000509190129081500FE
:1000C0002501950875018102050109300931158165
:1000D000257F95027508810609381581257F9501D0
:1000E00075088106050C0A38021581257F95017572
:1000F000088106C0C005010980A101850319012AF4
:10010000B700150126B700950175108100C0050CD8
:100110000901A101850419012AA002150126A002E6
:10012000950175108100C005010906A1018506052C
:100130000719E029E71500250195087501810205D9
:1001400007190029EF1500250195F07501810205B9
:10015000081901290595057501910295017503910D
:1001600001C00660FF0961A1010962150026FF00B8
:100170009520750881020963150026FF00952075FA
:10018000089102C005010906A101050719E029E748
:1001900015002501950875018102950175088101F9
:1001A0000507190029FF150026FF0095067508812F
:1001B000000508190129051500250195057501910E
:1001C00002950175039101C0FD377A585A00000469
:1001D000E6D6B4460200210116000000742FE5A304
:1001E000E000C5009F5D003D8889C65436C3174FA7
:1001F000E4EAC894E45AFAFA82876514E6B83F76CE
:10020000D4625D0547EBF6B42D0EFE69177E88EECD
:100210003D31B99BF283209E3019395AB939038494
:10022000066EA69415F8A6A8D63B43A7F8B94CEFDE
:10023000256B842B9A7CB10044B58371F6380F810D
:10024000FD55736F649DFAF6682F2CF197A0534A01
:10025000AD5FCCE6C280B2D499B224B465A3573B5B
:10026000A3F4CA34F5BCB466AFB2EC457E7CC539A4
:100270002D6A2C52BE3004C50E98D58B9A85AEAB34
:1002800095376F1A5B800000A622F8EC3F69E8D131
:100290000001BB01C601000036C5DCDCB1C467FB50
:1002A000020000000004595A010001008004730E8E
:1002B000580E0000020002007C04730E580E00006D
:1002C000030001008104730E580E000004000200B8
:1002D0006604730E580E4E07050001008204730E6B
:1002E000580E0000060002006804730E580E00004D
:1002F000070002007E04730E580E00000800010083
:100300008304730E580E0000090002006A04730E85
:10031000580E29070A0002006C04730E580E2907B4
:100320000B0002006E04730E580E29070C00020029
:100330007004730E580E29070D0002007204730E2C
:10034000580E29070E0002007404730E580E290778
:100350000F0002007604730E580E290710000200E9
:100360007804730E580E2907110002007A04730EE8
:10037000580E2907120002008404730E580E000064
:10038000130002008604730E580E000014000100D2
:100390008804730E580E0000150000000000AF0620
:1003A0003B140000AC00AE00AB00A800615201009D
:1003B0000100010001006152000000000000000087
:1003C000000000000000000000000000000000002D
:1003D0000000000000000000000000007E0F00D4BC
:1003E000FFFFFFC7000000780000000000000000D1
:1003F0002A2B280000000000000000000000000080
:1004000000000029000000002C1E3420212224348A
:100410002627252E362D3738271E1F20212223245C
:1004200025263333362E37381F0405060708090AF8
:100430000B0C0D0E0F101112131415161718191A94
:100440001B1C1D2F3130232D350405060708090A12
:100450000B0C0D0E0F101112131415161718191A74
:100460001B1C1D2F3130354C09025B00030100A01D
:10047000FA09040000010301010009211101000132
:10048000224400070581030800010904010002035A
:10049000000000092111010001222200070582034A
:1004A00020000107050303200001090402000103E5
:1004B00000000009211101000122B6000705840394
:1004C00020000112010002000000085241464F01C5
:1004D00000010203011C037600690061006C003A10
:1004E00000660036003400630032006200330063AF
:1004F00000000026035B003100780034005D00201E
:10050000002B002000310020004D006100630072CC
:10051000006F00700061006400000024034100725D
:1005200000720061007900200050006500720069CF
:1005300000700068006500720061006C00730000CC
:1005400000040309040011241FBECFEFDAE0DEBF70
:10055000CDBF11E0A0E0B1E0EAEBF8E602C0059003
:100560000D92AE37B107D9F725E0AEE7B1E001C093
:100570001D92AA30B207E1F70E94EC2A0C940734CE
:100580000C940000482F209108059091BF0459E079
:10059000291302C080E0089530E0529FF001539F7C
:1005A000F00D1124E054FB4F8181681306C0808157
:1005B000481303C085818111EECF2F5F3F4F277015
:1005C000E7CFE8EDF0E080818E7F80831092E2003B
:1005D0001092DA001092E100A0EEB0E08C91816000
:1005E0008C9380818F77808319BCA7EDB0E08C91CC
:1005F0008E7F8C9380818F7E80831092A8040895D3
:100600002091E4003091E50095E6A9012091EC00ED
:10061000822F817020FF06C08091E80080FF06C015
:1006200080E008952091E80022FD1AC08091B50471
:10063000882389F0853089F08091EB0085FD0FC01B
:100640002091E4003091E50042175307F9F29150F0
:10065000E1F684E0089582E0089583E0089581E062
:1006600008958091B70487FF13C08091E80082FF4E
:1006700006C08091E8008B778093E80004C08091E9
:10068000B5048111F2CF08958091B5048823D9F380
:100690008091E80080FFF8CF8091E8008E77ECCF62
:1006A000982F9093E900242F762F50E0891731F08E
:1006B0007091EC002091ED005091F00021FD07C0F9
:1006C0009F5F973071F78093E90081E00895309142
:1006D000EB003E7F3093EB003091ED003D7F309397
:1006E000ED003091EB0031603093EB007093EC0043
:1006F0002093ED005093F0002091EE0027FDE0CF15
:1007000080E00895B0E0A0E0E8E8F3E00C944A331C
:10071000C8EDD0E088818F7E8883E7EDF0E08081AE
:100720008160808384E082BF81E08093A804888117
:100730008E7F888302EE10E0F80110821092DA00BA
:1007400081EEC82ED12CF601108288818F778883A4
:1007500088818068888388818F7D888319BC109206
:10076000B5041092B6041092B4041092B30490EE43
:10077000E92EF12CF70180818B7F80838881816055
:10078000888342E060E080E00E945003F6018081AF
:100790008E7F8083F8018081816080838081886082
:1007A0008083F70180818E7F808388818061888348
:1007B000CDB7DEB7E8E00C946633FC018091BD0450
:1007C0009091BE0486179707A0F06115710529F472
:1007D0009091E8009E779093E80090E06115710594
:1007E00051F4911108C08091E80082FF34C080E08C
:1007F0000895BC01F2CF8091B5048823C1F1853002
:10080000C1F18091E80083FD30C08091E80082FD55
:10081000EACF8091E80080FFE1CF8091F300209142
:10082000F200382F6115710519F02830310558F0A4
:1008300091E02830310509F090E02091E8002E7712
:100840002093E800CBCF81918093F1006150710932
:100850002F5F3F4FE7CF8091B504882341F085306B
:1008600041F08091E80083FFBECF81E0089582E0EF
:10087000089583E008958091AA04089587E797E793
:10088000909301088093000888E19AE00FB6F894ED
:10089000A895809360000FBE90936000FFCF9C01ED
:1008A0004FB7F8948091A4049091A504A091A60458
:1008B000B091A7044FBF821B930B08952FB7F894F4
:1008C0006091A4047091A5048091A6049091A7045E
:1008D0002FBF08952FB7F8948091A4049091A50498
:1008E000A091A604B091A7042FBF0895909117017D
:1008F0009923D1F09091A10497FF16C0E82FE695B7
:10090000E695E695EE31E0F4F0E0E857FE4F282F4B
:10091000277081E090E001C0880F2A95EAF7809562
:100920009281892382830895E2E8F1E0919189130D
:1009300003C0DF0111971C9291E0E838F907B1F785
:100940000895909117019923C1F09091A10497FF08
:1009500014C0E82FE695E695E695EE31F8F4F0E060
:10096000E857FE4F877021E030E001C0220F8A95E2
:10097000EAF78281822B82830895A2E8B1E0EFEF4B
:1009800090E02D91821751F0EF3F19F4211101C031
:10099000E92F9F5F9630A9F7EF3F09F408950E2ED7
:1009A000000CFF0BE058FE4FE6CFA3E0B0E0EBED0C
:1009B000F4E00C94503320919F043091A004281748
:1009C0003907A1F09093A00480939F04E0919D04C7
:1009D000F0919E04309751F024E029839B838A8311
:1009E0000084F185E02DCE01019609952396E2E081
:1009F0000C946C33A3E0B0E0E0E0F5E00C945033ED
:100A000020919B0430919C0428173907A1F0909302
:100A10009C0480939B04E0919D04F0919E04309788
:100A200051F023E029839B838A830084F185E02DA4
:100A3000CE01019609952396E2E00C946C33E09187
:100A40009D04F0919E04309729F00190F081E02DF3
:100A50000995089580E008954115510511F0FA01B6
:100A6000099508950E946A049C01909192048091D6
:100A70009304982B21F030938F0420938E0490914F
:100A8000940480919504982B21F030938D04209349
:100A90008C04E0919D04F0919E04309749F082E02F
:100AA000809390040680F781E02D80E994E0099519
:100AB000089580918B0480FF0CC06091160170E056
:100AC00075956795759567956115710549F1862F3F
:100AD000089581FF06C06091160170E075956795D5
:100AE000F3CF6091160182FD0BC090918A04992387
:100AF000A1F06091150180911601961738F0682FCA
:100B000070E06038710500F38FE70895899FC00198
:100B1000112470E00E941F33F4CF61E070E0D7CF62
:100B200081E0089580918B0460916E0470916F0450
:100B300080FF16C020911401269FC001279F900DB1
:100B40001124BC0176956795769567956038710597
:100B500008F043C06115710509F441C0862F08955E
:100B600081FF0BC020911401269FC001279F900D8B
:100B70001124BC0176956795E9CF82FF09C0809169
:100B800014019B01829FB001839F700D1124DECF61
:100B9000209165042223D1F29091130180911401D8
:100BA000482F50E0291748F0CB01849FB001859F62
:100BB000700D949F700D1124C9CF289F90011124AE
:100BC000269FA001279F500D369F500D1124692F9D
:100BD00070E0CA010E940B33B9CF8FE7089581E01E
:100BE0000895282F35EB2303C001112497FF04C07B
:100BF00080589109892F089580589F4FFBCFCF933C
:100C0000DF93EC0140915A0450915B0460915C04C5
:100C100070915D042FB7F8948091A4049091A5047D
:100C2000A091A604B091A7042FBF841B950BA60B1F
:100C3000B70B843F9140A105B10518F580915A0486
:100C400090915B04A0915C04B0915D048093560484
:100C500090935704A0935804B093590484EF91E003
:100C6000A0E0B0E08093520490935304A093540406
:100C7000B0935504D0936204C0936104DF91CF9187
:100C800008950E945E046093560470935704809305
:100C900058049093590482E390E0A0E0B0E0E2CFE2
:100CA000FC018481862351F492819923B9F0692350
:100CB000808583FF05C081E061110FC080E0089549
:100CC000892F8F7092959F70982B862F8F706295C9
:100CD0006F70682B81E09613F1CF089581E0FDCF0E
:100CE000DC0160914C0480914D04962F891301C062
:100CF0000895292F30E0F901EE0FFF1FEC5BFB4F49
:100D0000408151814A175B07A1F487E08A9FA001C7
:100D10008B9F500D11244D555C4F81E0FA01848367
:100D20009613E6CF2F5F3F4F2370332720934C0459
:100D300008952F5F3F4F922F9370D8CF1092A10349
:100D40001092A003E3EAF3E08581811102C01482CE
:100D50001682379683E0EB3DF807B1F70895B0E0CF
:100D6000A0E0E5EBF6E00C9448338FEF9FEF4430C2
:100D7000510508F469C04091A10441FB882780F91E
:100D800090E0880F991F42FB002700F910E0000F48
:100D9000111F000F111F802B912B40FBCC24C0F89A
:100DA000D12C8C299D2943FB222720F9C22FE0E07A
:100DB000DE2F53E0CC0FDD1F5A95E1F78C2B9D2BD6
:100DC00044FBAA27A0F9B0E0E4E0AA0FBB1FEA9514
:100DD000E1F78A2B9B2B45FBEE27E0F9F0E0A5E03D
:100DE000EE0FFF1FAA95E1F78E2B9F2B46FB2227C4
:100DF00020F930E0B6E0220F331FBA95E1F7822BDD
:100E0000932B47FB222720F930E03695322F2227FB
:100E100037952795822B932B2091A204322F317086
:100E2000F32EE82EF92A26952170B22EBB0CA82E9F
:100E3000BF28C501BB0CAA0BBB0BFB0180839183B0
:100E4000A283B38390E080E0CDB7DEB7EAE00C94F4
:100E50006433E6E6F4E0848195812AE030E0B9016C
:100E60000E940B3360930E01868180930D01828571
:100E70008093140184858093130186859785B90139
:100E80000E940B3360930C01808980930B0182894F
:100E900080931601848980931501089580916604DA
:100EA000909167049093100180930F010895EFE1F2
:100EB000F2E090E080E065EC78E24CEE58E22BE363
:100EC00038E2778366835187408733872287978705
:100ED0008687019670968830910599F70895811557
:100EE0002CE7920741F42091500430915104232BB8
:100EF00011F490E080E0089580E008959091A104BD
:100F000092FF10C041E0282F2471243009F040E006
:100F100031E0282F2871283009F030E0431711F014
:100F20002CE0822793FF10C041E0282F2471243148
:100F300009F040E031E0282F2871283109F030E035
:100F4000431711F02CE082273091A20430FF10C02B
:100F500051E0282F2171213009F050E041E0282F85
:100F60002871283009F040E0541711F029E0822759
:100F700031FF10C041E0282F2171213109F040E0FC
:100F800031E0282F2871283109F030E0431711F0A3
:100F900029E0822794FD877E089582389105B9F172
:100FA000B0F48133910509F47DC048F4893291058C
:100FB00009F46DC08A32910509F47BC00895853328
:100FC000910509F45FC08933910509F10895833EC5
:100FD0009105D9F138F4803E910529F1823E9105C1
:100FE00079F10895863E9105D9F1873E910509F47E
:100FF0003EC0843E910541F52091A20421FF24C00A
:101000008091A10484FD19C087EE90E0089520919D
:10101000A104237009F05AC02091A20423FF14C038
:1010200089E290E008952091A10420FD38C030911C
:10103000A20430FF09C024FF43C090E080E008957F
:101040002091A10422FDF7CF08952091A10422FD53
:101050003AC03091A20430FD39C024FFF5CFEDCF66
:101060002091A10423FFF0CF24FDE7CFCDCF209125
:10107000A10423FD2EC03091A20431FFEECF84EEF7
:1010800090E008952091A10425FFDECFC9CF2091E3
:10109000A10425FD21C02091A20423FFD5CF89E31F
:1010A00090E0D2CF2091A10426FFCECF8AE290E03B
:1010B00008952091A10426FFC7CF81E390E0089511
:1010C00083EE90E0089582EE90E0089580EE90E047
:1010D000089586EE90E0089585E390E008951F93CB
:1010E000CF93DF930E94CD07EC01C11580E5D807AF
:1010F000F0F5C11580E4D80708F09CC0C03ED105CA
:1011000020F5CD3CD10508F082C0C83AD10578F46D
:10111000C53AD10508F073C0C130D10519F1209747
:1011200009F1C430D105F0F4D0E0C0E01BC0C33CED
:10113000D105D0F7C85AD0E0CC0FDD1FCD5DDE4F12
:101140000990D881C02DD4640DC0C11580E2D807A4
:1011500008F0D1C0C11581E0D80708F05AC0C83ED8
:10116000D10510F7CE01DF91CF911F910895C036C0
:1011700082E5D80718F5C03482E5D80708F06BC0BF
:10118000C03282E5D80708F05FC0C11582E5D807F4
:1011900008F497C02C2F2695269580E2289F900171
:1011A00011248C2F8370C1E0D0E002C0CC0FDD1F72
:1011B0008A95E2F7C22BD32BDD68D4CFC03A82E503
:1011C000D80760F4C03882E5D80708F459C0CF7159
:1011D000D0E0DC2FCC27C46FD06AC4CFC03C82E5FE
:1011E000D80708F462C0C03E82E5D80708F09CCF5B
:1011F000DC2FCC27CC27DF71C06FD06AB3CFC55AA4
:10120000D0E0C05EDE4FC881D0E0D064ABCFD06507
:10121000A9CF8D2F0E947E07182FCE0199270E94FB
:10122000CD07C12FD0E0DC2FCC27CC27DF71C82B16
:10123000D92B98CFCE0199270E94CD07CC27DF70FC
:10124000C82BD92BD06A8ECFCF71D0E0DC2FCC2722
:10125000C16FD06A87CF2C2F26952695277080E204
:10126000289F900111248C2F8370C1E0D0E002C030
:10127000CC0FDD1F8A95E2F7C22BD32BDC6872CF2F
:101280002C2F26952695277080E2289F9001112407
:101290008C2F8370C1E0D0E002C0CC0FDD1F8A9597
:1012A000E2F7C22BD32BDA685DCF8C2F8F710E94AF
:1012B0007E07C82FD0E0DC2FCC27CC27DF71D0628F
:1012C00051CF8C2F8F710E947E0755E0D695C79520
:1012D0005A95E1F7CF70D0E0DC2FCC27282F30E0F3
:1012E00084FF05C044E0220F331F4A95E1F7C22B6B
:1012F000D32BD06937CF8D2F8F710E947E07182F87
:10130000CE0199270E94CD07C12FD0E0DC2FCC273A
:10131000CC27DF71C82BD92BD2CF8091E90188234C
:1013200031F01092E9011092E8011092E70108955E
:10133000CF93C82F8091A20482FF0CC08091E90155
:101340008C1741F00E946A049093E8018093E701B2
:10135000C093E901CF9108959091E901292F2823A5
:1013600061F0809589238093E901882339F00E94F8
:101370006A049093E8018093E701089590E080E08B
:10138000F8CF8095909109059823909309050895C9
:10139000809590917B03982390937B03089590917F
:1013A0007B03892B80937B0308951092BE011092DA
:1013B000BD011092BC010895809168049091690468
:1013C000892B89F00E946A042091E7013091E8019D
:1013D000AC01421B530B81E02091680430916904F9
:1013E0004217530708F480E081700895CF938091ED
:1013F0007B03C0910905C82B8091E9018823F9F08E
:101400008091680490916904892B29F00E94DC097D
:1014100081110E948D098091E901C82B80911701EB
:101420008823B1F08091A10487FF12C08EE12AE8E1
:1014300031E090E0815080F491110E948D098091FB
:101440005E0480958C2390915F04892BCF91089541
:1014500086E022E831E0EDCFF90141919F0144237C
:1014600049F39F5FE7CF9091BB01292F282321F0FB
:10147000809589238093BB01089580910805909100
:10148000BF04981301C008958F5F8770FACF911140
:101490001DC08530C8F4EFEAF1E050E040E0219152
:1014A00030E0082E02C0369527950A94E2F72170A5
:1014B0003327042E01C0220F0A94EAF7922B4F5FC4
:1014C0005F4F4330510559F7892F089590E0FCCFC5
:1014D000911122C0853000F591E001C0990F8A95E5
:1014E000EAF7292FEFEAF1E050E040E070E03191B7
:1014F000DF011197CB01042E02C0969587950A94BF
:10150000E2F7817081958327822383278C934F5F35
:101510005F4F4330510559F708958093F1010895C5
:101520009091F10121E030E0F90101C0EE0F8A95C0
:10153000EAF7D90102C0AA0FBB1F6A95E2F7EA2BAE
:1015400001C0220F4A95EAF7892F8E23E81305C0C0
:10155000292B822F0E948D0A089520952923F9CFE7
:1015600021E030E001C0220F8A95EAF720958091B2
:10157000F10182230E948D0A08959091BE01809509
:1015800089238093BE01282F277069F4891759F0A9
:101590009091A20492FF07C08695869586950E9439
:1015A000B00A0E94D509089521E030E001C0220F61
:1015B0008A95EAF78091F101822B0E948D0A0895A5
:1015C0009091A20492FF10C098E0899F900111248D
:1015D000622B6093BE010E94D40A0E946A04909319
:1015E000BD018093BC0108950E94D40A08958093A0
:1015F000F001089592959F70963091F058F4925FA3
:101600009F70923058F4803F19F030F4883E30F4E7
:1016100081E008959A5FF4CF843FD1F380E008958C
:10162000883EB0F3813FD1F7F3CF4091920490917F
:10163000940420919504662309F469C0942B922B9D
:1016400020919304922B31F098E09093650491E0FF
:1016500090938A048D3C41F40E9492058195809379
:1016600093040E94320508958E3C19F40E9492055D
:10167000F6CF8F3C31F40E949205819580939204BD
:10168000F0CF803D19F40E949205F8CF893D29F4EE
:101690000E94590580939404E4CF8A3D21F40E946E
:1016A00059058195F7CF8B3D31F40E9459058195FD
:1016B00080939504D6CF8C3D19F40E945905F8CF3C
:1016C0009FE2980F983070F4815D990B21E030E033
:1016D00001C0220F8A95EAF780919104822B8093B2
:1016E0009104BFCF8D3D31F480918B048160809354
:1016F0008B04B7CF8E3D21F480918B048260F7CFAD
:101700008F3D09F0AECF80918B048460F0CF8D3C8B
:1017100059F48091930487FF0DC0109293044111F6
:101720000BC01092650408C08E3C81F48091930434
:1017300018169CF3442381F08091940490919504B1
:10174000892B09F08ECF10928A048BCF8F3C49F4FD
:1017500047FFF0CF10929204809193048111ECCF57
:10176000E0CF803D19F41416ACF3E4CF893D29F4A1
:10177000191604F710929404DDCF8A3D19F497FFEF
:10178000D9CFF8CF8B3D29F427FFD4CF1092950401
:10179000D1CF8C3D19F41216CCF3CCCF9FE2980F29
:1017A000983090F4815D990B21E030E0B90102C0DE
:1017B000660F771F8A95E2F7CB018095909191048F
:1017C000892380939104B6CF8D3D31F480918B04B1
:1017D0008E7F80938B04AECF8E3D21F480918B045D
:1017E0008D7FF7CF8F3D09F0A5CF80918B048B7F44
:1017F000F0CF9C013A9521153F4150F5FC01EE27B1
:10180000F170BC0166277270AC01442754709C01D2
:101810002227387094FF0EC080E1EF2B09F480E09E
:10182000672B09F08062452B09F08064232B89F037
:101830008068089581E0EF2B09F480E0672B09F0C0
:101840008260452B09F08460232B19F0886008958D
:1018500080E008950F931F93CF93DF938B01EA01EC
:101860009091B504943061F58093E9008FEF9091E9
:10187000E800815095FD06C095ED9A95F1F70000BE
:101880008111F5CF8091E80085FF1AC00E94000306
:10189000811111C08091E80085FD06C08091E800AB
:1018A0008E778093E800F2CFF80181918F018093C9
:1018B000F100219779F78091E8008E778093E80016
:1018C000DF91CF911F910F91089543E050E0BC014B
:1018D00084E00E942A0C089546E050E0BC0184E0B8
:1018E0000E942A0C089540E250E0BC0184E00E946E
:1018F0002A0C0895CF93DF93EC0148E050E0BC013F
:1019000081E00E942A0C88E0FE01ABEAB4E001907D
:101910000D928A95E1F7DF91CF910895019708F430
:101920000895EFE9FFE03197F1F700C00000F6CF2E
:10193000CF93C82F6FEF811169EE85E290E00E948E
:10194000CB336FEFC1116BEE86E290E00E94CB3398
:101950006FEFC11165E787E290E00E94CB33CF9132
:101960000895CF93DF93C5E7D1E060E0CE010E94F8
:10197000CB332196C11584E0D807B9F7DF91CF9119
:1019800008951F93CF93DF93122F8430B8F4611121
:1019900015C0453098F4C42FD0E0CC0FDD1F9AE07D
:1019A000899FC00DD11D1124632FCE0189960E94FD
:1019B000CB33612FCE018A960E94CB33DF91CF913A
:1019C0001F91089580937A03682F8CE090E00E9425
:1019D000CB33089585E290E00E94AD33893E89F4CF
:1019E00086E290E00E94AD338B3E59F487E290E0AE
:1019F0000E94AD3391E0853709F090E0892F817026
:101A0000089580E0FCCF0F931F93CF93DF93843032
:101A100008F561111FC04530E8F4042F10E0000FF5
:101A2000111F2AE0829F000D111D1124C801899603
:101A30000E94AD33C82FD0E0DC2FCC27C8018A9696
:101A40000E94AD339E01282BC901DF91CF911F91D8
:101A50000F91089590E080E0F8CF462F2091090281
:101A600030910A02232B99F4703F39F4603F79F4E6
:101A700080910B0290910C020895711108C065309D
:101A800030F4843020F460E00E94030D089590E06B
:101A900080E00895CF92DF92FF920F931F93CF9330
:101AA000DF936C010091F1018091F001082BC3E0FC
:101AB000D0E010E0FC2EC8010C2E02C09595879551
:101AC0000A94E2F780FD0CC02197A0F7F12C8F2D2E
:101AD000DF91CF911F910F91FF90DF90CF900895EC
:101AE000B6018C2F0E942D0D0E946F08019761F3A3
:101AF000EECFCF93DF93EC010E944A0DBE010E940E
:101B00002D0D0E946F08DF91CF910895FC01848113
:101B1000882371F087819085009729F00E946F08D3
:101B20000E94FA0A0895808191810E94790DF8CF70
:101B300080E00895A6E0B0E0E0EAFDE00C944F33C9
:101B400049835A8349815A819923A1F0222391F034
:101B5000CA010E944A0D182F682F89819A810E941C
:101B6000680A69817A81812F0E942D0D2696E3E013
:101B70000C946B33CA010E94470A182FF2CFFC0164
:101B8000262F87819085009741F4408151816281A1
:101B90007381848195810E949A0D08950F931F93FC
:101BA000CF93DF9306E614E0C1E6D0E0CE010E94B9
:101BB000AD33F80161918F01681719F0CE010E94D1
:101BC000CB332196C538D10589F7DF91CF911F918D
:101BD0000F9108950F931F93CF93DF9306E614E0C0
:101BE000C1E6D0E0CE010E94AD33F80181938F01B0
:101BF0002196C538D105B1F7C2EBD2E0FE0185913F
:101C00009491009711F0FC0109952C96F3E0CE3ADF
:101C1000DF07A1F7DF91CF911F910F9108959B01ED
:101C2000883070F49AE0899FB00111246B577F4F80
:101C30004AE050E0C9010E949D3390E080E00895A1
:101C40008FEF9FEF0895AAE0B0E0E9E2FEE00C9488
:101C500050339C0137552F3F310509F068F4BE0120
:101C60006F5F7F4F0E940F0E892B31F489859A8513
:101C70002A96E2E00C946C3380917E0490917F046C
:101C8000F7CF9091A20492FB222720F9281779F030
:101C900080FB92F99093A2046091A1047091A20438
:101CA00084E090E00E94E93382E00E94BD0A08953A
:101CB000DA019C012E5F3F4FF90145915491F901E2
:101CC00025913491A217B30758F0FC013496859101
:101CD00094910E948D330E94CE0D90E080E0089593
:101CE0008FEF9FEF0895DB01FC013296259134912F
:101CF0004217530758F0FC01349665917491A9017D
:101D0000CD010E948D3390E080E008958FEF9FEF2A
:101D10000895AAE0B0E0EFE8FEE00C94463302E05C
:101D200013E080EFC82E82E0D82E95E2E92EFF2442
:101D3000F39427E0922E3FEEA32E32E0B32E8824B8
:101D40008394D6010D931D936D014AE050E0B701D5
:101D5000CE0101960E949D33F8013896DF01892D4E
:101D60001D928A95E9F789819A81D80111969C93F1
:101D70008E938F8112968C9312978D8113968C93EC
:101D80001397888514968C931497898515968C9350
:101D900015978B819C8117969C938E931697189616
:101DA0001C9218978A8587FF3CC01E961C921E9233
:101DB0001D9780FF03C0D80118968C9281FF04C044
:101DC000F80190859260908782FF07C0D80118962D
:101DD0009C911897946018969C9383FF04C0F80117
:101DE00090859860908784FF07C0D80118969C91D1
:101DF0001897906118969C9385FF04C0F801808520
:101E000080628087015F1F4FFAE0EF0EF11C85E7CB
:101E1000E81681E0F80609F094CF2A96ECE00C94DD
:101E20006233F801B686A586C4CFAAE0B0E0EBE144
:101E3000FFE00C944A33EFE9F2E080E5DF011D9208
:101E40008A95E9F7E3EAF3E088E3DF011D928A95DA
:101E5000E9F78FE9C82E82E0D82E7F0105ED10E06A
:101E6000F701D182C0824AE050E0B801CE0101966C
:101E70000E949D3388E0FE013196D60101900D92BB
:101E80008A95E1F789859A85D70113969C938E935D
:101E90001297BAE0CB0ED11CE7E0EE0EF11C065F04
:101EA0001F4F0532F1E01F07D9F62A96E8E00C949F
:101EB0006633CF93E9E5F1E030E041E021912F3F37
:101EC00049F1A22FA295AF70B0E090968C9190E06E
:101ED0002F7002C0959587952A95E2F780FD1AC06C
:101EE000842F382B440F81E0EE35F80739F78091C5
:101EF000EF01831799F03093EF0181E08093EE01B9
:101F00000E946A049093ED018093EC01C0E08C2F55
:101F1000CF91089580E0E5CFC0E014C0C091EE01FC
:101F2000CC23A1F38091EC019091ED010E944F042C
:101F3000059760F38091EF0190910802981761F383
:101F4000809308021092EE01E2CF8091170188235E
:101F500059F18091A10487FF27C00E94F609809360
:101F6000890140E250E06FEB71E088E891E00E9467
:101F70008033892BC1F080E2E8E8F1E0AFEBB1E01B
:101F800001900D928A95E1F7E0919D04F0919E04F5
:101F9000309749F086E0809388010480F581E02D38
:101FA00088E891E0099508950E94F60980938001E0
:101FB00048E050E06FED71E080E891E00E948033EE
:101FC000892B89F388E0E0E8F1E0AFEDB1E0019022
:101FD0000D928A95E1F7E0919D04F0919E0430976F
:101FE00011F30280F381E02D80E891E0DBCFCF9305
:101FF000DF93EC014A855B856E857F850E942C0509
:102000008B810E94C1098C810E94C8090E94A50F82
:1020100086E0FE0111928A95E9F7DF91CF9108954C
:10202000CF93DF93EC018D8181FD14C082608D839D
:10203000809109059B81892B809309058C810E94E1
:10204000CF090E94A50F488559856E857F85CE01F1
:102050000E942C0510929A04109299048D8180FDA3
:1020600003C0CE010E94F70FDF91CF9108958091B8
:102070001101877F8093110182E00E94C109809144
:10208000110184FF06C08F7E8093110182E00E94BF
:10209000CF098091110185FF06C08F7D80931101CA
:1020A00080E20E94CF090E94A50F089510927B0341
:1020B00080911701882339F18091A10487FF23C003
:1020C000EAE8F1E08EE1DF011D928A95E9F790E000
:1020D00080E00E94FA0490E080E00E94D504109213
:1020E00009050E94A50F86E0E0E9F4E0DF011D92FA
:1020F0008A95E9F71092650410928A0410928B0475
:102100000E9432050895E2E8F1E086E0DCCFAAE221
:10211000B0E0EDE8F0E10C944F3387EB94E02091D0
:10212000F100DC012D93CD01B4E08F3B9B07B9F7A3
:102130008091B804833009F472C0B8F4813009F496
:1021400049C0823009F4B3C08091E80083FF96C291
:102150008091B7049091B8049A3008F08FC2E92FAB
:10216000F0E0E75FFB4C0C9433338A3009F48EC007
:102170008B3009F471C0893039F78091B70481320E
:1021800019F78091BB049091BC04009711F002975D
:10219000D9F68091E800877F8093E8008091E8007D
:1021A00082FF38C09091F3008091F200029731F4E1
:1021B0008091F100813011F0863021F48091F1009E
:1021C0008093AA048091E8008B778093E8000E94B6
:1021D0003103BACF8091B704813A09F0B5CF80912D
:1021E000E800877F8093E8008091BB049091BC0455
:1021F000892B61F468E08BEA94E070E00E94DD03D3
:102200008091E8008B778093E8009ECF60E090E0BB
:1022100080E0F3CF8091B5048111C0CF95CF80913C
:10222000B704813A09F090CF8091BB049091BC042F
:10223000892B09F089CF8091E800877F8093E8009F
:102240008091E80080FFFCCF809117018093F1001E
:102250008091E8008E77B9CF8091B704813209F080
:1022600073CF8091BB049091BC04892B09F06CCF93
:102270008091E800877F8093E8000E94310380917D
:10228000B904809317010E9456105ECF8091B70465
:10229000813209F059CF8091E800877F8093E80070
:1022A0000E9431038091BA048093A9044DCF80919C
:1022B000B704813A09F048CF8091E800877F809386
:1022C000E8008091E80080FFFCCF8091A904BECF98
:1022D000803899F0823809F0D1C18091BB048F70A9
:1022E000873008F0CBC18093E9008091EB0085FB3B
:1022F000882780F91092E90006C08091B30490917C
:10230000B404911182609091E800977F9093E80067
:102310008093F1001092F1008091E8008E77AAC1BD
:10232000882309F498C1823009F0A8C18091B904CA
:1023300081119BC18091BB048F702FEF280F263035
:1023400008F09CC18093E9002091EB0020FF8DC133
:10235000933031F48091EB0080628093EB0085C173
:102360009091EB0090619093EB0021E030E001C090
:10237000220F8A95EAF72093EA001092EA008091F2
:10238000EB008860EACF811179C11091B9041F7701
:102390008091E3008078812B8093E3008091E800B6
:1023A000877F8093E8000E9431038091E80080FFDE
:1023B000FCCF8091E30080688093E30082E01111FC
:1023C00083E08093B5045AC18058823008F056C12A
:1023D0002091B9043091BA042C3DE3E03E07A1F509
:1023E00083E08A838AE289834FB7F894DE011396EB
:1023F00020E03EE051E2E32FF0E050935700E491FB
:1024000020FF03C0E295EF703F5FEF708E2F90E0EA
:10241000EA30C0F0C7968D939D932F5F243159F712
:102420004FBF8091E800877F8093E8006AE270E008
:10243000CE0101960E94DD038091E8008B778093A6
:10244000E8001CC1C096E7CF8091BB049091BC040A
:10245000432F55274330510509F44AC078F54130E0
:10246000510509F485C08BE590E0E8E6F4E04230E0
:10247000510509F003C12091E800277F2093E8006F
:102480002091BD043091BE048217930708F49C018B
:1024900040E02115310509F070C041116EC08091F6
:1024A000E80082FDC9CF8091B504882329F28530E8
:1024B00019F28091E80083FFF2CFBECF413251057F
:1024C00009F447C04232510509F0D8C08330910564
:1024D00008F0D4C0FC01EE0FFF1FEF58FE4F019033
:1024E000F081E02D82599E4FDC018C9190E01DC05F
:1024F000332721303105E9F02115310579F02230FB
:102500003105F9F02330310509F0B8C0E5EDF4E00C
:10251000E4918E2F90E0E5EDF4E007C0E1E4F5E012
:10252000E4918E2F90E0E1E4F5E0009709F4A6C075
:10253000A2CFEBE1F5E0E4918E2F90E0EBE1F5E046
:10254000F4CFE3EFF4E0E4918E2F90E0E3EFF4E0DA
:10255000ECCF8330910508F091C0880F991FFC01E2
:10256000E958FE4F0190F081E02D89E090E083CFA3
:1025700082E190E0E3ECF4E07ECF8091B504882323
:1025800009F45ACF853009F457CF8091E80083FDD4
:1025900053CF8091E80082FD82CF8091E80080FFD8
:1025A00078CF9091F3008091F2002115310519F058
:1025B0008830910550F041E0089709F040E08091A3
:1025C000E8008E778093E80064CF44914093F10057
:1025D0003196215031090196E8CF803809F04EC07C
:1025E0008091E800877F8093E8008091B604809313
:1025F000F10092CE811142C01091B9041230F0F571
:102600008091E800877F8093E8001093B6040E94D1
:102610003103112311F084E005C08091E30087FDB0
:10262000FACF81E08093B50442E061EC81E00E9442
:10263000500342E261EC84E00E94500342E261EC0C
:1026400082E00E94500342E260EC83E00E9450036B
:102650008091B50413C08091B904813079F481E090
:10266000933009F080E08093B4041092E9008091E7
:10267000E800877F8093E8000E9431038091E800A2
:1026800083FF0AC08091E800877F8093E8008091F3
:10269000EB0080628093EB00AA96E3E00C946B332E
:1026A000E6E6F4E0128E138E8FEA90E09183808349
:1026B00025E0248F88E893E1938382838AE090E089
:1026C0009583848344E150E05783468348E050E09B
:1026D00051874087938782876EE170E075876487B2
:1026E0009787868780E590E0918B808B538B428B18
:1026F00048E250E0558B448B42E350E0578B468BC9
:1027000048EC50E0518F408F158E178E168E91A396
:1027100080A322A30E94CE0D0E9456101092A20404
:102720001092A104E2EAF4E08081846080836091E9
:10273000A1047091A20484E090E00E94E9330E9419
:10274000EA0D0895AEE1B0E0E8EAF3E10C94493314
:10275000E0905004F090510481E090E09093510497
:102760008093500494EAC92E93E0D92EB12C10E046
:1027700000E0402F81E021E030E08B1540F0F801CF
:10278000EE0FFF1FEC0DFD1D859194919C0160E003
:102790008B2D0E94C10C0F5F1F4F0530110549F7AB
:1027A000B394EAE0CE0ED11CF4E0BF12E0CF0E9459
:1027B00050131A8219821C821B821E821D82188667
:1027C0001F8288EC90E09A87898705E810E04AE04C
:1027D00050E0B801CE0101960E94EF33065F1F4F13
:1027E000053D1105A1F76E018BE0C80ED11C8AE0F2
:1027F000F60111928A95E9F74AE050E0B801C60166
:102800000E94EF33065F1F4F0532F1E01F07A1F76B
:102810006E0185E1C80ED11C8AE0F60111928A95FD
:10282000E9F78FEF9FEF9A8F898F87E08E8F4AE0CD
:1028300050E0B801C6010E94EF33065F1F4F053715
:10284000F1E01F07A1F7F0925104E09250046E9658
:10285000E9E00C94653380E00E94980C60E088E227
:1028600090E00E94CB330E94A2130E94B10C81E041
:102870000E94980C0895CF92DF92EF92FF928FEF13
:102880009FEF4430510508F46CC0FB01C080D1803B
:10289000E280F3800E9456108091A104C0FA80F972
:1028A000B701A601769567955795479540FB81F945
:1028B000B701A60122E076956795579547952A9529
:1028C000D1F740FB82F9B701A60133E07695679511
:1028D000579547953A95D1F740FB83F9B701A60183
:1028E000E4E07695679557954795EA95D1F740FBD3
:1028F00084F9B701A601F5E0769567955795479558
:10290000FA95D1F740FB85F9B701A601A6E07695C7
:10291000679557954795AA95D1F740FB86F9B7017A
:10292000A601B7E07695679557954795BA95D1F783
:1029300040FB87F98093A1048091A204D0FA80F92A
:10294000D1FACC24C0F8C0FA81F98093A204609136
:10295000A1047091A20484E090E00E94E93390E029
:1029600080E0FF90EF90DF90CF9008950E94561086
:102970002FEF84E39CE0215080409040E1F700C0BD
:10298000000088E19AE00FB6F894A8958093600063
:102990000FBE90936000FFCF882321F00E94C109F1
:1029A0000E94A50F0895882339F090910905982B6E
:1029B000909309050E94A50F0895882321F00E9495
:1029C000C8090E94A50F0895882321F00E94CF090D
:1029D0000E94A50F0895882381F19CEF980F913AEA
:1029E00028F40E9476040E94A50F089590E2980FA3
:1029F000983050F4877091E001C0990F8A95EAF7FA
:102A0000892F0E94C809EFCF9BE5980F933028F4D7
:102A100090E080E00E94FA04089598E5980F9B31B9
:102A200028F490E080E00E94D504089593E3980F85
:102A3000933118F460E00E94150B0895FF920F93F4
:102A40001F93CF93DF93F82E0091630410916404D9
:102A50000115110509F449C0109262041092610435
:102A600010925E0410925F04D8011696CD91DC910D
:102A70009E013A9521153F4108F4D07ED1E0C11165
:102A800001C0D0E0D8011996ED91FC911A973097CA
:102A900031F01B966D917C9180E00995D823DD2360
:102AA00039F08CEF8C0F813A30F58C2F0E94760430
:102AB000FF2099F0E0916304F0916404808584FD27
:102AC0000CC080916004882341F0808191819C0139
:102AD000215031092F333E47A0F00E94A50F1092DC
:102AE00064041092630410926004C801CDB7DEB78D
:102AF000E5E00C9469330E94A50F8C2F0E94EB1423
:102B0000D7CF0E94FF05E9CFCF93DF93EC010E945E
:102B1000EB14CE010E94F90B9E01205E3109283092
:102B2000310510F0CD2B29F40E94DD14DF91CF91F7
:102B300008950E94CC14FACFCF93C82F8823B9F1FF
:102B40008CEF8C0F813AA8F580911701882301F151
:102B50008091A10487FF1CC0EC2FE695E695E695D1
:102B6000F0E0E857FE4F828190E04C2F477021E063
:102B700030E002C0220F331F4A95E2F782239323ED
:102B8000892B81F08C2F0E9476040E94A50F0AC029
:102B9000E2E8F1E088E891E02191C21799F38E17FD
:102BA0009F07D1F78C2F0E94A1040E94A50FCF91FF
:102BB000089580E28C0F883048F4C77081E001C02E
:102BC000880FCA95EAF70E94CF09EFCFEBE5EC0F2B
:102BD000E33040F4F0E0E05EFE4F808190E00E9440
:102BE000FA04E5CFE8E5EC0FEB3150F4F0E0EE0F3E
:102BF000FF1FED5DFE4F808191810E94D504D7CFEC
:102C000083E38C0F833198F661E08C2F0E94150BC3
:102C1000CECF1F93CF93DF93182FEB010E949C150B
:102C2000209739F4812F0E94EB14DF91CF911F91EF
:102C300008958FE99FE00197F1F700C00000219708
:102C4000EFCF6091860470918704893321F0609101
:102C50008404709185040E9409160895B0E0A0E0F4
:102C6000E4E3F6E10C9448337C015B01C42FD22FDE
:102C7000FC0185818823A9F0409398040E946A048E
:102C80009093970480939604C77081E001C0880FE9
:102C9000CA95EAF70E94E414CDB7DEB7EAE00C94D7
:102CA000643310919804141338C080919604909165
:102CB00097040E944F046C01B701C5010E94230EC6
:102CC000C816D90650F5C0E2CD0F1D17C1F080E23D
:102CD000810F883048F4177081E0012E01C0880F01
:102CE0000A94EAF70E94DD14C83048F481E09D2F71
:102CF000977001C0880F9A95EAF70E94E414802F1C
:102D00000E942116C83040F6D77081E001C0880FBC
:102D1000DA95EAF70E94DD14BFCFC77081E001C0E9
:102D2000880FCA95EAF7F6CFB0E0A0E0EAE9F6E14D
:102D30000C944B33E82FF0E0E851FC4FD490282F4F
:102D400026952695269530E0F901E852FC4F04912E
:102D5000877010E0082E02C0159507950A94E2F7D7
:102D600001701127F901E853FC4FE490F12C082E73
:102D700002C0F594E7940A94E2F791E0E922FF2477
:102D8000F901E854FC4FC491D0E002C0D595C79535
:102D90008A95E2F7C170DD270115110519F081EE62
:102DA0000E949C15E114F10419F086EE0E949C1516
:102DB0008D2D0E942116E114F10419F086EE0E9477
:102DC000EB140115110519F081EE0E94EB14CD2BC7
:102DD00019F08CE20E942116CDB7DEB7E7E00C9423
:102DE00067331F93CF93DF93EC011AE08881882328
:102DF00009F43EC08130C9F599818A81913029F466
:102E000022960E9421162196F1CF923021F422962B
:102E10000E949C15F8CF933021F422960E94EB1467
:102E2000F2CF943011F02196EECF229630E020E0E0
:102E3000AE014F5F5F4F8053990B8A30910550F080
:102E40002150310900F38FE99FE00197F1F700C0AD
:102E50000000F6CF129FB001139F700D11249C014A
:102E6000260F371F8981EA01E3CF0E949416CBCF4A
:102E7000DF91CF911F91089590917A03923071F470
:102E80008A3050F490E009966AE070E00E941F33A7
:102E9000875A0E94211608958650FBCF96EF980F0F
:102EA000963020F0805D0E9494160895895AFBCFD9
:102EB0008F929F92AF92BF92EF92FF920F931F93C8
:102EC000CF93DF934B015C01D0917A038CE1E82E24
:102ED000F12C07E010E021E0D501C4010E2C04C064
:102EE000B695A795979587950A94D2F7C82FCF7076
:102EF000222339F0D43051F4CA3040F080E00E94EF
:102F00003C178C2F0E943C1720E005C0C111F9CF5F
:102F100004301105B4F30150110984E0E81AF108F6
:102F20000F3F1007C9F6DF91CF911F910F91FF90CE
:102F3000EF90BF90AF909F908F900895CF93DF93C5
:102F4000EC010E94F90B9E01205E31092830310509
:102F500010F0209741F40E94E4148C2F0E949C15DD
:102F6000DF91CF9108950E94D314F7CF662329F003
:102F7000209109052260209309059C0130522115FA
:102F8000304308F499270E949E170895B0E0A0E00E
:102F9000ECECF7E10C944A336C018B01E42E809148
:102FA000110182FF87C0C0919E03D0919F03CC1571
:102FB000DD0521F0C114D10409F07CC0809111011C
:102FC0008B7F8093110181FD6EC080919C03909155
:102FD0009D03A801481B590B81E020910F013091FE
:102FE00010014217530708F480E08170F82E809199
:102FF0001101F0FA81F980931101FE0183E0F69549
:10300000E7958A95E1F7EE71FF27E458FC4F2081A0
:103010003181AE014F70552781E090E002C0880FEA
:10302000991F4A95E2F7FF2009F43FC0822B932BAA
:103030009183808380917B0381FF08C0809111017F
:1030400080618093110182E00E94C80980917B0316
:1030500085FF08C08091110180628093110180E298
:103060000E94C8096F2DCE010E94B617EE2031F0E4
:103070008091810485FF02C086FF30C08091840466
:10308000909185040E948E0C80919E0390919F03E5
:103090009C0130522115304308F499270E94841571
:1030A0000E94371017C081E0A0CF809590958223B1
:1030B0009323BECFC601905281159043A0F4C60160
:1030C00099270E94841580919E0390919F038C15EF
:1030D0009D0531F310939D0300939C03CDB7DEB79C
:1030E000E8E00C946633C601ECCF0F931F93CF93A7
:1030F000DF938C01EB010E949E17209741F4C801D9
:103100000E948415DF91CF911F910F9108958FE94F
:103110009FE00197F1F700C000002197EECFA7E0F4
:10312000B0E0E5E9F8E10C9440337C01DC01149651
:103130008C91882309F457C161E0C7010E94BF0D3B
:103140008C01F7018581882319F180919904909170
:103150009A040097E9F008171907D1F09927F4E0CD
:10316000880F991FFA95E1F7FC01EC5DFD4F208176
:1031700024602083815E9D4FDC010D931C930E948F
:1031800010101092090561E0C7010E94BF0D8C016B
:10319000F7018581882309F4B1C0C80197578038A9
:1031A000910508F0DEC0D02EFFE0F01708F40BC147
:1031B0008FEF93E00E94AD33811105C105E711E067
:1031C000D11036C019821A821B821C8299249A94CB
:1031D00068013FEFC31AD30AC8010E94AD33898347
:1031E0001A82882309F4EFC0813009F081C05801A8
:1031F00042E0A40EB11CC6010E94AD33C82E8A83E2
:10320000882309F4E0C0C5010E94AD33D82E8FEFAA
:103210008C0D8330D8F4580153E0A50EB11CDB822D
:10322000DD2021F0CE0101960E94F1168501D0CF5C
:10323000011524E0120709F4C6C0C8010E94AD338D
:10324000811101C0DA940F5F1F4FBACF8BEF8C0D45
:10325000833030F5C8010396DB825C01DD2031F359
:103260005801A4E0AA0EB11C0E94AD338C838823C0
:10327000E9F28B819C818130BFEF9B0710F0982F82
:103280008827E6E0CE1631F0F7E0CF1631F00E9445
:10329000B428CCCF0E948F28C9CF0E941628C6CF51
:1032A00024E0C212C3CF580134E0A30EB11CC80100
:1032B00003960E94AD33DD2009F485C0882309F40C
:1032C00082C08150990B989E9001999E300D1124D7
:1032D0004D2D4150550BCA01820F931F019708F4E1
:1032E000A5CFAFE9BFE01197F1F700C00000F6CF1E
:1032F000CE0101960E94F116560198CF6801E7E5CC
:10330000DE1AFFEFCF16D10409F058F565E172E03F
:103310008C2D0E940F0E892B21F5C60174E0880FB9
:10332000991F7A95E1F7FC01E15EFD4F2281213082
:10333000A1F52091150230911602232B91F02091D6
:10334000170230911802232B61F02091190230915D
:103350001A0240911B0250911C02242B352B232B67
:1033600021F1D70115965C90552009F440C00E3527
:10337000BCE71B0729F10F35ECE71E0741F00D35BF
:10338000FCE71F07A1F5809100018823C9F0109286
:10339000000180E00E941E1516C0223011F7209116
:1033A000190230911A02232BE1F2FC01EC5DFD4F72
:1033B00020812E7F2083815E9D4F0E941010D1CFEF
:1033C00081E0809300018091BE01877061F0D70198
:1033D00015968C91882339F08091A20482FF03C056
:1033E00082E00E94BD0A2796E2E10C945C33809152
:1033F0000001882309F45FC7480120EE821A910872
:103400004090E9018091BB01482A80917B03482AC2
:1034100038E08316910408F086C09801277033279E
:1034200081E090E001C0880F2A95EAF7552009F461
:1034300077C0482AD7018D919C910E94470A21E0CC
:1034400030E0390102C0660C771C8A95E2F7E09102
:103450006304F0916404FF83EE832090A801309010
:10346000A9011D822D81E22FF0E0EE0FFF1FE05138
:10347000FD4FC080D180C114D10409F480C7411030
:1034800005C0D60112968C91811187C0F601838107
:1034900090E086219721892B09F47FC08085982FA1
:1034A000977009F487E0F8E08F16910408F055C092
:1034B000552009F44EC086958170882309F46DC0AB
:1034C000D601AD90BC900A151B0519F4552009F4DE
:1034D00064C0EE81FF81CE16DF0609F45EC0D6011E
:1034E0001D96ED91FC91309721F08081882309F49D
:1034F00054C0642DC6010E945006882309F44DC0B3
:103500000A151B0509F068C70115110509F469C7FB
:10351000511069C7A214B30409F03FC0512C63C70E
:103520008095482287CF552009F412C71093A9012E
:103530000093A8010E945E0460935A0470935B0498
:1035400080935C0490935D04109262041092610475
:1035500071CF82FB882780F9B0CF5520F1F08170C0
:10356000ACCF0E94EB145EC70497813A910548F4F2
:103570008A2D0E94A104552009F49DC60E94A50F22
:1035800022CF0E94A50F8FE39CE90197F1F700C0BD
:1035900000008A2D0E949C15EECF9D819F5F9D8328
:1035A00061CFFC01208131810217130709F07CC62D
:1035B00051107CC61092600480E00E941E157BC6EC
:1035C000902F812FC0C6D9011C964D915C911D97FB
:1035D0001E966D917C91C9010E942C05F601858192
:1035E00081FFE1C6C6010E94F70F80919904909176
:1035F0009A040817190709F0D6C610929A04109277
:103600009904D1C606333CE7130709F4ABC008F4AC
:10361000A7C007335CE7150729F485E001C080E007
:103620000E94E20CD70115968C91882309F441C0C1
:1036300017FF3FC00E941F058093AB0190917A0352
:10364000913029F481FF03C089E30E942116809103
:103650007B038093AA0110927B031092090580914D
:103660007A03823009F4A9C008F07EC0882309F4E7
:1036700097C0813009F498C08FE39CE90197F1F776
:1036800000C00000B8017F7790E080E00E945817EA
:1036900080917A03823009F4C6C008F0A7C088235D
:1036A00009F4B2C0813009F4B3C08091AA018093BB
:1036B0007B038091810480FFFBC00E946A046C013F
:1036C000D70115968C91882309F4C7C08091110108
:1036D00082FF08C026EF31E040E0B60190E080E0D4
:1036E0000E94C6170431BCE71B0709F4B2C00531BC
:1036F000ECE71E0709F4A2C00331FCE71F0729F419
:1037000080911101816080931101C801905281154F
:10371000904308F0B0C010929F0310929E03F701EF
:103720002581222309F47FC210929804C801905782
:10373000839708F078C284E090E00E94B5339093BC
:10374000A2048093A104F801E150F047E232F105B0
:1037500008F0ACC1ED5EFB4C0C94333382E060CFDB
:1037600083E05ECF84E05CCF8430D9F1853009F00E
:1037700083CF60918404709185048BE191E00E9475
:103780007518609184047091850485E290E00E9430
:103790007518609184047091850488E290E00AC0F5
:1037A00082EE0E949C1568CF60918404709185041C
:1037B00088E193E00E9475185FCF8091AB0180FD96
:1037C00003C083E50E94211682EE0E949C15EFE360
:1037D000FCE93197F1F700C0000087E50E9421164F
:1037E0004BCF86EE0E94211688E1F8CF843021F17C
:1037F000853009F05ACF609184047091850488E285
:1038000090E00E94751851CF82EE0E94EB144DCFCC
:103810008CE20E9421168091AB0181FF46CF89E3A3
:103820000E94211642CF82EE0E94EB148091AB01E0
:1038300080FD3BCF83E5F4CF88E2F2CF9091110178
:10384000892F8E7F90FF8160809311010E94371035
:103850005CCF809111018E7FF7CF809111018F7E17
:10386000013E110531F0053E1105E9F48091110189
:103870008F7D809311018091110180FF19C0D701C4
:1038800015968C9108321105F0F40E31110508F0EF
:103890006BC00430110548F5882351F010929F0346
:1038A00010929E0305C0C80190528115904318F7ED
:1038B000F801E851FC47E730F10508F030CFEB5C48
:1038C000FB4C0C9433330933110558F40D321105B8
:1038D00018F40B32110501F79091810492FDDCCFB1
:1038E00008C004361105C1F3D7CF9091810494FD2F
:1038F000D3CF882309F4A6C08091E90190917B037E
:10390000892B8D7FB1F110929F0310929E038091BD
:10391000810481FD2EC0F80143E0F695E7954A95B4
:10392000E1F7EE71FF27E458FC4F98012F70332721
:1039300081E090E002C0880F991F2A95E2F78095F8
:10394000909520813181822393239183808360E04D
:10395000C8010E94B6178091E9018D7F0E949809E5
:1039600082E00E94BD0A2FCD9091810493FD94CFF7
:10397000C0CF89E0F701A6EFB1E001900D928A95E2
:10398000E1F71092F9011092F80180919E03909155
:103990009F0308171907D1F52091810425FF36C030
:1039A0003091110131FF02C026FF30C020919C03ED
:1039B00030919D035601A21AB30AB7010E94230E4B
:1039C000A816B90618F580917B0381FF08C0809185
:1039D000110180618093110182E00E94C8098091E9
:1039E0007B0385FF08C080911101806280931101E3
:1039F00080E20E94C8096091110166956170809112
:103A00009E0390919F030E94B617DDCC8091E9013F
:103A100090917B03982B2091110191FB21F9209328
:103A200011018D7F0E94980910939F0300939E03BC
:103A3000D0929D03C0929C03809111018460809379
:103A400011018ECF970140E0B601C8010E94C61750
:103A5000BACC06E221EE41EE6AE17CE7C7010E94A2
:103A60002E16B1CC07E225EE45EE6BE17CE7F6CFF2
:103A700006E221EE40EE68E17CE7F0CF07E225EEBA
:103A800044EE69E17CE7EACF06E221EE42EE6CE12A
:103A90007CE7E4CF07E225EE46EE6DE17CE7DECF82
:103AA00008E221E045EE6EE17CE7D8CF8091A104E9
:103AB00081608093A10495C08091A2048860809366
:103AC000A2048FC08091A1048260F3CF8091A104F1
:103AD0008460EFCF8091A1048860EBCF8091A20435
:103AE0008160EDCF8091A2048260E9CF8091A10432
:103AF0008061DFCF8091A1048062DBCF8091A1043F
:103B00008064D7CF0E9456108091A1048068D1CFE5
:103B10008091A1048C60CDCF8091A2048360CFCF2F
:103B20008091A1048E7FC5CF8091A204877FC7CFEB
:103B30008091A1048D7FBDCF8091A1048B7FB9CFEF
:103B40008091A104877FB5CF8091A2048E7FB7CFEB
:103B50008091A2048D7FB3CF8091A1048F7EA9CFE5
:103B60008091A1048F7DA5CF8091A1048F7BA1CFEF
:103B70000E9456108091A1048F779BCF8091A10461
:103B8000837F97CF8091A2048C7F99CF8091A104ED
:103B900082FB992790F921E0922790FB82F990FB14
:103BA00083F987CF8091A204982F909591708E7F92
:103BB000892B90FB81F983CF9091A104892F8F7B72
:103BC00096FF806476CF0E9456109091A104892FB1
:103BD00097FB87F980586DCF61E08EE090E00E94FE
:103BE000CB336091A1047091A20484E090E00E9424
:103BF000E9330E945610E7CB60E0EFCF9091A1042B
:103C0000892F8F7E94FF806154CF9091A104892FDA
:103C10008E7F90FF81604DCF9091A204892F877F86
:103C200093FF88604CCF0631FCE71F07A9F5809110
:103C30007B03982F9A7A3091800430FF04C0482F7C
:103C4000447409F090E031FF04C0482F417109F03D
:103C500090E032FF04C0482F487809F090E033FF2D
:103C600003C0827209F090E0222361F081E091119B
:103C700001C080E08093AC0189E2911185E30E944C
:103C8000A1047CCC8091AC01811104C089E20E9426
:103C9000760474CC85E3FBCF07373CE7130709F4C0
:103CA0005AC008374CE7140709F460C0222381F09A
:103CB00003305CE7150709F479C008F05CC0011512
:103CC0009CE7190709F465C001301C4709F474C06A
:103CD000F70187819085009709F47CC00E946F08E6
:103CE000182F092FF701C580B680B2943FE0B322A8
:103CF0008091BE01877001F1AC2CCC20F1F0892FAE
:103D0000807F803461F080E2810F8830A8F0892FB5
:103D1000807E803221F4123078F0BB2069F08091EF
:103D2000A20482FF09C082E00E94BD0A8091BE0108
:103D30008770AA24A3948111A12C902E92942FE035
:103D40009222FBE0F91508F4B7C0E92DF0E0E45C3D
:103D5000FB4C0C94333381E0222351F00E94D40AAF
:103D600043E062E081E00E94900A2DCB82E0F4CF34
:103D70000E94B00AF5CF0B35BCE71B0749F10C35A3
:103D8000ECE71E07D9F00A351C4709F0A1CF81E006
:103D90001CC00E9456102FEF34E34CE021503040FD
:103DA0004040E1F700C000000E943E046FEF7FEF4B
:103DB00090E080E00E94E9330E94B6148091A20452
:103DC00082FB882780F991E089270E94410E80CFED
:103DD00080E0FBCF858100811181882369F0C801D3
:103DE0000E944A0DD82E682FC8010E94680AB801A7
:103DF0008D2D0E942D0D72CFC8010E94470AD82E2A
:103E0000F6CF202F2F70D22E802F807F19F0D294E2
:103E100090EFD922CC20A9F0DD2059F080E2810F6B
:103E2000883010F0111107C08D2D0E94CF090E941B
:103E3000A50F812F3FC080910905D82AD09209058E
:103E4000F6CF812F0E94EB14DD20B1F180E2810FCB
:103E5000883010F0111104C08D2D0E94C80903C0D4
:103E60008D2D0E94C1090E94A50F26C0302F3F70E2
:103E7000D32E802F807F803219F0D29480EFD82209
:103E8000112351F0113009F498C0CC2009F4A4C0DA
:103E9000BB2009F448C0CDCF8091A20482FD3FC071
:103EA000CC20B9F1DD2029F08D2D0E94CF090E9490
:103EB000A50F80E00E949C15E92DE850FF0B349778
:103EC00010F40E941F05812F902F0E94FA0A811181
:103ED000C2C11092AE011092AD01AA20A9F080914A
:103EE000BE0180FD11C0F7011582869586958695E5
:103EF0000E94D40AC7010E948F188091BE01869546
:103F0000869586950E94B00A60E0C7010E94BF0DA9
:103F10006ACA80E00E94EB14DD2071F29DCFCC20B4
:103F200091F1B11004C08D2D0E94E414C5CF41E081
:103F3000B41211C08090E9018D2D8821D81609F4A2
:103F4000BBCF0E946A049093E8018093E701D828D0
:103F5000D092E901B1CF80918204823008F4ACCFD5
:103F6000B812AACF8D2D0E94E4148D2D0E94AC09A9
:103F70008091BB019D2D9823D91609F49DCFD82A95
:103F8000D092BB0199CFB1100AC08D2D0E94DD14D3
:103F90008D2D0E94AC098D2D0E94330A8DCF80910A
:103FA0008204823008F488CF51E0B51285CF809129
:103FB0007B038D2109F480CFE8CF80918804CC2049
:103FC00021F08B1508F478CFAECFB81608F074CF77
:103FD0008D2D0E94DD1470CFBB20D1F3809186041B
:103FE00090918704193321F0809184049091850485
:103FF0000E948E0C812F0E94EB145ECF802F86953D
:104000008695837069F0813009F056CF812F902F0B
:104010009370C11002C080E090E00E94D5044CCFA4
:10402000812F902F9370C11002C080E090E00E9419
:10403000FA0442CF6C2D812F0E94150B3DCF802FAB
:10404000837091F5C11038CF412F42954695477046
:10405000440F440F812F8F70042E01C0880F0A94E3
:10406000EAF7212F207114FF07C02FE030E001C0D4
:10407000220F4A95EAF72095302F36953695337002
:10408000323069F050F44091F001313029F0822B48
:1040900084230E94F70A10CF842B822BFACF282B7F
:1040A0008091F0018227F5CF8695CC2011F0802FEA
:1040B0008170882309F400CF412F429546954770BF
:1040C000440F440F812F8F70042E01C0880F0A9473
:1040D000EAF7212F207114FF07C02FE030E001C064
:1040E000220F4A95EAF72095302F36953695337092
:1040F000323069F050F44091F101313029F0822BD7
:1041000084230E948D0AD8CE842B822BFACF282BB1
:104110008091F1018227F5CF802F8F70D82ECC208F
:1041200021F00E94D40A812FFFCE812F0E94DD143E
:104130008D2D0E94B00AC0CE123F89F160F4103F6D
:10414000B9F0113F81F0CC2009F480C0B11071CEDC
:10415000802F8F7128C0133F49F1143FA1F7809140
:10416000A20482FD2FC0802F8F71CC2011F31BC0C1
:1041700080918804CC2079F0B81608F09DCE202FCD
:104180002F7181E090E001C0880F2A95EAF79091A5
:10419000F1018927B6CF8B1508F48ECEF0CF802F92
:1041A0008F71C110C6CF0E94D40A86CE80E0CC2089
:1041B00009F4A7CF81E0902F9F7101C0880F9A95D5
:1041C000EAF79FCF80918204823040F1CC20D1F079
:1041D0009091BE019770943041F40E94D509802FD0
:1041E0008F710E94B00AA12C67CEB816E0F7902F0D
:1041F0009F71D92E892F0E94D40A63E08D2D0E94D1
:10420000E00AF1CFB81630F00E94D50964E0802FA3
:104210008F71F5CF81E00E94BD0AE5CFCC2059F027
:10422000A02FAF71DA2E8A2F0E94D40A63E08D2D61
:104230000E94E00A41CE81E00E94BD0AB1E0BB15B8
:1042400008F03ACE82E00E94BD0A36CEB110C6CE4A
:10425000802F8F716ECFCC2019F0B1103ACE3DCEA9
:10426000B11037CE20E0D7014C9111965C91119797
:1042700012966C91129713967C91139714968C91C9
:10428000149715969C910E949A0D8091830483FF48
:1042900020CE8091AD019091AE01029709F019CE28
:1042A000812F0E94211615CE552029F0DC01189689
:1042B0008C9185FF81C9C80197558F3F910511F0F9
:1042C00008F071C0F7018581F801FF2754E0EE0F77
:1042D000FF1F5A95E1F79F01215E3D4F6901EC5D9B
:1042E000FD4F908180FB90F99083882309F46BC97E
:1042F0000E946A049093F5018093F401D60112960E
:104300008C9112978F5F12968C931297809109056A
:1043100090917B03892B13968C9313978091E901DD
:1043200014968C93149716964D915C9117971E9640
:104330006D917C91C6010E942C05F601858181FF5B
:104340003FC990E080E09093990480939A042BC039
:104350008091A8019091A9010817190781F4109282
:10436000A9011092A80110925A0410925B041092B5
:104370005C0410925D0410926204109261048091BA
:10438000630490916404009709F495CFA8E08A161D
:10439000910408F006C9642D0E945006811103C0E3
:1043A00081E00E941E15D70115968C91882309F48F
:1043B00039C90433BCE71B0709F4D0C908F022C986
:1043C0000233FCE71F0709F42AC903332CE712075D
:1043D00009F028C981E024C9A114B10409F09AC8E0
:1043E000512CB12CA12C80E00E941E15D0926404A7
:1043F000C092630481E080936004D60115968C918D
:1044000080935E0451100EC0AB2861F0F6018081EC
:1044100091819C0124503109213A310508F0A1C84D
:104420000E947604D6011696AD90BC90C5019A956F
:1044300081159F4110F4E0EEBE2277247394C501EC
:1044400001978F339E4708F0712CD6011996ED9194
:10445000FC911A97309731F01B966D917C9181E019
:1044600009957822772079F0F601868197810E945C
:10447000F90B80935F04C501F8E08F16910408F0F2
:1044800073C80E94FF050E94A50F75C8B0E0A0E0A8
:10449000ECE4F2E20C944B338091B801807F09F098
:1044A00054C08091B701882309F44FC0E0910805FA
:1044B00089E0D82E8091BF048E1709F446C00E2FD4
:1044C00010E0ED9DF0011124E054FB4F848188231E
:1044D00009F440C0D09EE001D19ED00D1124FE0110
:1044E000E054FB4F91818091B301981333C09081C8
:1044F0008091B20198132EC0858181112BC0E2807A
:10450000F3808091B4019091B501E81AF90A60E056
:1045100082EB91E00E94BF0D62EB71E00E94230EDE
:10452000E816F906B8F48091B8018F708061809325
:10453000B801CA53DB4F88818F708061888382EB1A
:1045400091E00E948F180E943D0ACDB7DEB7E7E0E8
:104550000C946733F8013196E770ACCFA8E1B0E076
:10456000E4EBF2E20C9443338C0186E0F801DE01C7
:10457000539601900D928A95E1F7D80114967C909C
:1045800014971596EC9082EBA82E81E0B82E8091BE
:10459000B60181112AC0711003C0FF24F3941CC01E
:1045A000EE20F9F0C8010E94860DF82E8823C9F08C
:1045B00089E0F801A2EBB1E001900D928A95E1F754
:1045C0008091B601813031F48091B2019091B301B4
:1045D0000E94790D0E9446228F2D6896EFE00C9480
:1045E0005F33C8010E948F18D8CFF80150806180D6
:1045F000C280D38060E082EB91E00E94BF0DF0901A
:10460000B7018091B4019091B5014601881A990AC9
:1046100060E082EB91E0FF2009F428C10E94BF0D09
:1046200062EB71E00E94230E8816990608F0D1C053
:10463000772009F4B2CF8091B801382F307F2091D4
:10464000B301D80111969C911197311171C02913B2
:104650001FC02091B2019C9129131AC04091B90149
:104660005091BA0117962D913C914217530781F44E
:10467000E11054C08F7080618093B80182EB91E0AB
:104680000E948F188091B801F8018683F12CA4CF85
:10469000E11044C0662D852D0E94C202E82E8823B9
:1046A00081F08091830480FFF1CF82EB91E00E9442
:1046B0008F1889E0E2EBF1E0DF011D928A95E9F7BE
:1046C000E5CF5B8A6C8A8B899C890E94790D292FA2
:1046D00022952F70243058F49F70223088F099234F
:1046E00099F0F8019681907F79F4FE2C75CF2A5FBE
:1046F0002F70223068F0C8010E948F18EF2CF5CF80
:10470000992311F0882389F3805E883070F3F3CF0A
:10471000803F58F3815F833070F7E7CF8091B80115
:1047200081608093B8018091830481FDAFCFBDCFBC
:10473000291320C02091B2019C9129131BC04091E4
:10474000B9015091BA0117962D913C9118974217D3
:10475000530781F4E1100EC016968C93C8010E9495
:104760008F1889E0F801A2EBB1E001900D928A95D3
:10477000E1F732CFC8010E94860D882309F431CFBA
:10478000EE2009F42ECF8091B8018032B8F020914C
:10479000B2013091B3013B872A87DD86CC869091A8
:1047A000B6019E871F86888B8091B9019091BA01CE
:1047B0009A8B898BCE010A960E948F1889E0F801A6
:1047C000A2EBB1E001900D928A95E1F70E9446229A
:1047D000E4CE8091B801982F907F09F466CF7720BE
:1047E00009F4DBCE2091B301F801918129131AC09D
:1047F0002091B2019081291315C04091B9015091C7
:10480000BA01278130854217530761F4E1100AC0CD
:104810008683C8010E948F1889E0D5011D928A9570
:10482000E9F7DACEC8010E94860D882309F4D9CEB3
:10483000EE2009F4D6CE8091B801803208F4BECFC4
:104840002091B2013091B3013A832983DC82CB827B
:104850009091B6019D831E828F838091B9019091C2
:10486000BA0199878887CE010196A6CF0E94BF0D15
:1048700062EB71E00E94230E8816990608F04AC088
:10488000772009F48ACEFE2CEE2009F4AACE90916E
:10489000B301F801818198132FC09091B2018081FA
:1048A00098132AC02091B9013091BA01878190856F
:1048B0002817390709F58091B4019091B501C81AFC
:1048C000D90AF8ECCF16D10408F04BCF9091B8017B
:1048D00090FD47CF907F09F444CF8091B801D80173
:1048E00016968C931697903F09F438CF982F907FA7
:1048F000905F8F70892B30CFC8010E94860D811187
:104900005DCF8091B80181608093B801C8010E9499
:104910008F1862CE89E0F50111928A95E9F75CCE95
:10492000A2E1B0E0E6E9F4E20C944E330A871B877B
:104930002C873D874E875F87688B798B8A8BCE016A
:104940000A960E94AE2281110CC089E0FE013A96BF
:10495000DE01119601900D928A95E1F78E85811105
:104960000BC019E0809108059091BF04891331C0F4
:104970006296E4E00C946A332091BF0430E0C901F0
:10498000019687709927409108054817190699F0F4
:1049900099E0929FD001939FB00D1124A054BB4F7A
:1049A000FE01319601900D929A95E1F78093BF0434
:1049B0000E943D0AD6CF0E9456101092BF0410925A
:1049C000080589E0E2EBF1E0DF011D928A95E9F745
:1049D000C8CF819FC001112480549B4F0E94AE22FA
:1049E000882331F28091080590E00196877099271D
:1049F00080930805B7CFEF92FF920F931F93CF9349
:104A0000DF938091DB03882361F0E091A2038DE0C6
:104A1000F82E8091DB03E81748F01092DB03109228
:104A2000A203CDB7DEB7E6E00C946833EE24E3943E
:104A3000EE0EE092A203CE2FD0E0EF9DF001112404
:104A4000E452FC4F84818823E9F087819085892B8B
:104A500021F481859285019659F40081118122818A
:104A60003381448155816681778180850E949024BD
:104A7000FC9EF001FD9EF00D1124E452FC4F1482C7
:104A800010920905EE2DC5CF10924F0410924E04DE
:104A90001092120180914D0480934C040E949E0656
:104AA0000E94FB240895B0E0A0E0E9E5F5E20C9453
:104AB0004133C0914C0497E0992E01E010E02DE0C5
:104AC000322E34E0432E5524539480914D048C13A0
:104AD00009C00E94FB240E949E06CDB7DEB7E1E12B
:104AE0000C945D33D0E0FE01EE0FFF1FEC5BFB4F3B
:104AF00080819181989ED001999EB00D1124AD5571
:104B0000BC4F14962C911497211159C06090DB036F
:104B1000ECEDF3E030E020E0812C5D01261508F09B
:104B20004CC0E384F484D501CD90DC906FEF7FEF2F
:104B3000712C472D50E0DA01AA0FBB1FAC0DBD1D33
:104B40000D90BC91A02D109731F0EA16FB0609F4E8
:104B5000BA017394EECF6F3F7607A9F1D80102C076
:104B6000AA0FBB1F6A95E2F78A2AB801072C02C078
:104B7000660F771F0A94E2F7AB0141505109841682
:104B8000150601F5329EF001339EF00D1124E4521A
:104B9000FC4F989ED001999EB00D1124AD55BC4F8D
:104BA00012962D913C91139730872783448210826F
:104BB00011829287818715965C920E9470062196D9
:104BC000C37083CF14822F5F3F4F3D96A7CFAEE1D6
:104BD000B0E0EDEEF5E20C9440334B8B5C8B6D8BCB
:104BE0007E8B8F8B988F882349F08091AD019091B7
:104BF000AE0101969093AE018093AD01888D811135
:104C000010920905188A198A1A8A86E0FE0173969D
:104C1000DE011A9601900D928A95E1F78091A20427
:104C200082FF1EC08091680490916904892BC1F0B5
:104C30000E946A042091BC013091BD01821B930B3C
:104C400020916804309169048217930720F08091C5
:104C5000BE0182FFE7C10E94DC0981110E948D091B
:104C60008E85882389F061E0CE010A960E94BF0DEF
:104C70006C018F8520E5C2162CE7D20689F48823C3
:104C800029F181E0809312010A851B852C853D85E1
:104C90004E855F85688979898A890E949024CDC074
:104CA00031E5C3163CE7D30629F4882379F00E9446
:104CB0004425EACF42E5C4164CE7D40639F48823EC
:104CC00029F0809112018111F2CFDBCF93EAE92E16
:104CD00093E0F92E412CB12CA12C88248394912CA3
:104CE000BE016F5F7F4F7A8F698F22242394F70173
:104CF0004081518166246A94762C20E0822F90E0D6
:104D0000FC01EE0FFF1FE40FF51F6081718161153B
:104D1000710531F0C616D70609F43C012F5FEECFBE
:104D2000312CFFEF6F167F0609F448C0F70144816C
:104D300030901201832D411180E0F82FF1703F2E49
:104D4000F701558086819F85992309F4F7C03320A8
:104D500009F4F4C000917C0410917D04511013C03B
:104D6000A401062C01C0440F0A94EAF7842B868321
:104D70008091A0039091A1038017910720F41093D4
:104D8000A1030093A003C40102C0880F991F2A95B4
:104D9000E2F70197F70126812817190679F4809127
:104DA0004E0490914F04009709F44BC00E944F04A9
:104DB0000817190708F045C0F70124824328FFEFC0
:104DC000AF1ABF0A27E0E20EF11C38E0A316B104C7
:104DD00009F08DCF8F85882309F410C1442009F490
:104DE0000DC10E946A0490934F0480934E048091F9
:104DF000DB03883010F591E0980F9093DB0399E086
:104E0000FE013A96DE01119601900D929A95E1F716
:104E10004DE0849FC001112484529C4F29E0FE0183
:104E20003196DC0101900D922A95E1F72FEF3FEFCB
:104E3000FC0132872187D486C3866E96E2E10C940A
:104E40005C3380914C0450914D04982FF0E0E0E0E9
:104E5000851314C090934C04EE16FF0609F4AECFF0
:104E600090E0FC01EE0FFF1FEC5BFB4FB182A082D4
:104E700001968370992780934D04A0CF682E712CE2
:104E8000F301EE0FFF1FEC5BFB4F20813181F7E058
:104E9000F29FD001F39FB00D1124AD55BC4F2D9161
:104EA0003C9111973E8F2D8F40E020E030E0E32FC2
:104EB000F0E0EE0FFF1F6D8D7E8DE60FF71F008176
:104EC000118101151105E1F0F7010190F081E02D4C
:104ED000FC8FEB8F20E005C00617170709F4432D60
:104EE0002F5FE22FF0E0EE0FFF1F6B8D7C8DE60F42
:104EF000F71F608171816115710571F73F5FD7CF31
:104F00004423C9F0F701231708F0FD012482EE16AF
:104F1000FF0621F490934C04342E50CF981305C013
:104F2000AE17BF0711F49F5F937093012F5F3F4F40
:104F3000822F83708DCFF0E0E0E0F7CF90E051104A
:104F400020C0B40102C0660F771F2A95E2F79B01CB
:104F5000215031098217930731F4442309F44CC0DE
:104F6000C5010E947006C401062C01C0880F0A9476
:104F7000EAF7982F9095F701868189238683352C4F
:104F80001DCFAC01062C02C0559547950A94E2F757
:104F9000BA01617077279C01215031098223932344
:104FA000892B31F5672B21F1F70182819381892BC0
:104FB000E1F0E98DFA8D27E011922A95E9F70E9438
:104FC0006A04282F8B839C8334E03D83F701828120
:104FD0009381782F8887998709811A813C8144E0E1
:104FE0005E816F81892F0E949024F7011582BBCFCB
:104FF000F42FF1705F2EB7CF532CB5CF90914C04A6
:1050000080914D04981729F00E945325411015CF27
:105010003BCE0E94FB2410924F0410924E040E943B
:105020009E06F4CF82E00E94BD0A15CEA6E0B0E055
:10503000ECE1F8E20C94503390930C0280930B0255
:10504000811520E2920730F40E9484152696E2E052
:105050000C946C3380EF89838A830E946A04816098
:10506000682F9C838B8349815A817C8181E090E009
:105070000E94E725EBCF0F931F93CF93DF938C0113
:10508000EB0165E172E08C2F0E940F0E892BA1F4D9
:1050900080918404909185040E948E0CDD27C35F6B
:1050A000DD4F8881F801128218828330F1F048F4D4
:1050B000813059F0823081F0DF91CF911F910F91B3
:1050C00008958430B9F08530B9F780911502909138
:1050D0001602009789F306C080911702909118027A
:1050E000009799F30E941628E7CF809119029091BA
:1050F0001A02F6CF80911B0290911C02009791F743
:105100002091150230911602809117029091180299
:1051100021153105F1F2009729F7C901E3CFA6E087
:10512000B0E0E5E9F8E20C94503390930C028093E0
:105130000B02811520E2920730F40E949E172696FA
:10514000E2E00C946C3380EF89838A830E946A04C6
:105150008160682F9C838B8349815A817C8181E0A7
:1051600091E00E94E725EBCFCF93DF93EC010E9403
:105170008F2880918404909185040E948E0CCE012A
:105180000E941628DF91CF9108950F931F93CF931C
:10519000DF938C01862F65E172E00E940F0E892B50
:1051A000B1F4C0911502D0911602209781F0F80158
:1051B0008281833051F4CE010E94B428CE010E9436
:1051C000B428CE010E94B42802C08430D0F7DF9109
:1051D000CF911F910F9108950F931F93CF93DF935A
:1051E0008C01EB0165E172E08C2F0E940F0E892B80
:1051F00009F05CC0FE01FF27D80112968C9112972E
:10520000E35FFD4F8130B9F415969C9192FF02C087
:1052100080830AC090FFFCCF82E0808380911702D8
:10522000909118020097B9F480911502909116029E
:105230000097E1F110C08230B9F515968C9182FD8E
:1052400028C080FD0BC083E080838091190290917B
:105250001A02009701F10E948F2828C084E0808301
:1052600080911B0290911C020097A9F78091150272
:10527000909116020097F9F00E94B42880911702CD
:1052800090911802009739F78091150290911602BB
:10529000E2CF85E0808380911502909116020097FD
:1052A00029F00E94B428F0CF86E08083DF91CF916F
:1052B0001F910F9108958091170290911802B8CF15
:1052C000A6E0B0E0E6E6F9E20C944E330E946A04F0
:1052D0008C018091EA019091EB018017910781F098
:1052E00019821A820E946A04682F49815A81792F93
:1052F00080E090E00E94E7251093EB010093EA0123
:105300002696E4E00C946A331F920F920FB60F9228
:1053100011242F933F934F935F936F937F938F93BA
:105320009F93AF93BF93CF93DF93EF93FF93D0916E
:10533000E900DF708091EC00C82FC17080FDC0E8EB
:105340001092E9008091F000877F8093F0007894BC
:105350000E9487101092E9008091F000886080938D
:10536000F000CD2BCF70C093E900FF91EF91DF915A
:10537000CF91BF91AF919F918F917F916F915F91ED
:105380004F913F912F910F900FBE0F901F90189546
:105390001F920F920FB60F9211242F933F934F93AA
:1053A0005F936F937F938F939F93AF93BF93EF938D
:1053B000FF938091E10082FF09C08091E20082FFAB
:1053C00005C08091E1008B7F8093E1008091DA003D
:1053D00080FF24C08091D80080FF20C08091DA0037
:1053E0008E7F8093DA008091D90080FF9DC080E19C
:1053F00089BD82E189BD09B400FEFDCF81E08093C3
:10540000B5048091A804811109C00E94E1020E94A4
:1054100082038091E20084608093E2008091E10049
:1054200080FF17C08091E20080FF13C08091E200EE
:105430008E7F8093E2008091E20080618093E200A1
:105440008091D80080628093D80019BC85E0809359
:10545000B5048091E10084FF2BC08091E20084FFBD
:1054600027C080E189BD82E189BD89B5982F9170FF
:1054700080FFFBCF8091D8008F7D8093D8008091F2
:10548000E1008F7E8093E1008091E2008F7E809327
:10549000E2008091E20081608093E2008091B60496
:1054A000882309F447C084E08093B5048091B50453
:1054B0008091E10083FF27C08091E20083FF23C039
:1054C0008091E100877F8093E10082E08093B504C2
:1054D0001092B6048091E1008E7F8093E10080916C
:1054E000E2008E7F8093E2008091E20080618093F1
:1054F000E20042E060E080E00E9450038091F00012
:1055000088608093F000FF91EF91BF91AF919F91E0
:105510008F917F916F915F914F913F912F910F905C
:105520000FBE0F901F90189519BC1092B5041092E1
:10553000A80474CF8091E30087FD93E09093B504B5
:10554000B5CF78941F921FB61F9211248F939F930B
:10555000AF93BF938091A4049091A504A091A60459
:10556000B091A7040196A11DB11D8093A40490934E
:10557000A504A093A604B093A704BF91AF919F91F7
:105580008F911F901FBE1F9018951F921FB61F92DC
:1055900011248F939F93AF93BF938091A3048111A4
:1055A00013C08091A4049091A504A091A604B09189
:1055B000A7044196A11DB11D8093A4049093A50456
:1055C000A093A604B093A704BF91AF919F918F9130
:1055D0001F901FBE1F901895CDB7DEB7EB970FB683
:1055E000F894DEBF0FBECDBF85B7806885BF85B795
:1055F000806885BF84B7877F84BF0FB6F894A8956D
:1056000080916000886180936000109260000FBEFE
:1056100080E890E00FB6F894809361009093610069
:105620000FBE8CE797E090937F0180937E010E94EC
:1056300057070E94150F0E94890E0E94EA0D0E94D2
:10564000E1020E9482038091E20084608093E20084
:1056500078948091B5048823A1F01091E9001F701F
:105660009091EC00892F817090FD80E8182B1092AA
:10567000E9008091E80083FD0E9487101F7010935D
:10568000E90082E084BD93E095BD9AEF97BD8093D9
:105690006E000E94EA0C811102C00E942B1481E06E
:1056A000809301028098889A8198899A8FE891E086
:1056B0000197F1F700C000002091010242E052E0A2
:1056C000FA018E2F841B821708F4BCC0A9E5B1E053
:1056D0004EE551E061E070E08D918F3F91F0E82F51
:1056E000E295EF70F0E011A18F709B0101C0220FD5
:1056F0008A95EAF7922F9095912391A382A1822B0C
:1057000082A34A175B0741F7109208021092EF013B
:1057100090E080E00E94B533863E9E4F21F40E94C7
:10572000EA0C811168C066EE7EEF90E080E00E9496
:10573000E93360E082E090E00E94CB3381E0809327
:10574000F00161E083E090E00E94CB3360E074E11F
:1057500084E090E00E94E93360E086E090E00E94FF
:10576000CB336FEF87E090E00E94CB3340E050E016
:10577000BA0188E090E00E94DD3360E084E290E0CE
:105780000E94CB3360E087E190E00E94CB3360E081
:105790008CE090E00E94CB3360E08DE090E00E94CE
:1057A000CB3319821A821B821C821D821E821F82A9
:1057B000188648E050E068E170E0CE0101960E9452
:1057C000BB3340E050E0BA0180E290E00E94DD335C
:1057D00080E00E94980C0E942B1440E050E0BA0137
:1057E0008FE090E00E94DD3340E050E0BA0183E1B9
:1057F00090E00E94DD3382E090E00E94AD33809320
:10580000F20184E090E00E94B5339093A20480936B
:10581000A1040E94590FBFEFE6E7F1E0B150E0406C
:10582000F040E1F700C000000E94590F809108028B
:1058300080FF12C06FEF7FEF90E080E00E94E933BD
:105840000E943E048FB18170799904C090E0892B49
:10585000819337CF92E0FBCF83E090E00E94AD339D
:105860000E94F70A8CE090E00E94AD3380937A03A7
:1058700081E091E090939E0480939D041E012BE2B1
:10588000220E311C8E010F5F1F4F8091B504E0E1A5
:10589000EE2EF2E1FF2E853009F4F8C00E94590F78
:1058A0008091F301F09008028F11FAC00E946029E4
:1058B0008091610490916204892B09F43EC040916B
:1058C00056045091570460915804709159042FB7B1
:1058D000F8948091A4049091A504A091A604B0919D
:1058E000A7042FBF841B950BA60BB70B4091520446
:1058F0005091530460915404709155048417950796
:10590000A607B707D0F080916104909162040E94CD
:105910009E17109262041092610410925604109225
:105920005704109258041092590410925204109285
:1059300053041092540410925504E0909904F0908E
:105940009A04E114F10439F18091F4019091F50188
:105950000E944F046C0189E0F10111928A95E9F7E8
:10596000B101C7010E94230E8C159D05A0F4809102
:10597000990490919A04992774E0880F991F7A9559
:10598000E1F7FC01EC5DFD4F208122FD04C0815E4A
:105990009D4F0E94101080911201882301F1809187
:1059A0004E0490914F040097D1F00E944F04209133
:1059B000A0033091A1032817390788F490914C0473
:1059C00080914D04981709F493C00E9453251092BA
:1059D000A1031092A00310924F0410924E048091E4
:1059E000810480FF1EC08091110182FF1AC00E94B5
:1059F0006A0420919C0330919D03AC01421B530B20
:105A000020910F01309110014217530750F026EFFB
:105A100031E041E0BC0180919E0390919F030E9480
:105A2000C617B12CA12CBAC08091B504843021F1E5
:105A30001092A30488E190E0A0E40FB6F894A89532
:105A4000809360000FBEA093600083B7817F846065
:105A500083BF83B7816083BF7894889583B78E7F37
:105A600083BF0FB6F894A8958091600088618093F9
:105A70006000109260000FBE8091B404882331F062
:105A80000E94590F80910802811174C58091B5045C
:105A9000853009F4C9CF0E9456100E941F05FECE22
:105AA000C82ECF24E12CDD24D394BB24B3948C2DB9
:105AB0008D21A1F0ECAA1DAA0E946A049FAB8EABB7
:105AC000B8AE91E08F2D8D2109F490E099AF4CA9EB
:105AD0005DA96EA97FA988AD0E94E725E394DD0C3E
