:100000007DC50000B4C50000B2C50000B0C5000049
:10001000AEC50000ACC50000AAC50000A8C5000020
:10002000A6C50000A4C500000C948F2F0C945B3073
:100030000C948A299CC500009AC5000098C5000050
:1000400096C5000094C5000092C5000090C5000050
:100050008EC500000C94012A8AC5000088C50000E6
:1000600086C5000084C5000082C5000080C5000070
:100070007EC500007CC500007AC5000078C5000080
:1000800076C5000074C5000072C5000070C5000090
:100090006EC500006CC500006AC5000068C50000A0
:1000A00066C5000064C5000062C5000029001E008E
:1000B0001F0020002100220023002400250026002C
:1000C00027002D002E002A0000002B0014001A002B
:1000D0000800150017001C0018000C001200130087
:1000E0002F0030003100A90039000400160007007D
:1000F00009000A000B000D000E000F003300340051
:1001000028000000AA00E10000001D001B000600FE
:100110001900050011001000360037003800E50016
:1001200052004C00E000E300E2000000000000008C
:100130002C0000000000E6002152500051004F004A
:10014000000035023A003B003C003D003E003F000D
:10015000400041004200430044004500010000000F
:100160000100010001000100010001000100010087
:100170000100010001000100010001004B0001002D
:100180000100010001000100010001000100010067
:10019000010001000100010000004E00010000000C
:1001A0000100010001000100010001000100010047
:1001B00001000100A8000100010001000100010090
:1001C000000000000000010000000000010001002C
:1001D00001000100010000006C65645F7461736BD5
:1001E0003A20253032580A004F6E6573686F743AB2
:1001F000206163746976653A2025640A00444542AB
:1002000055473A2064697361626C65642E0A004444
:10021000454255473A20656E61626C65642E0A005E
:100220000A002530313662003A200025303258006D
:100230000A722F6320303132333435363738394142
:1002400042434445460A007267626C6967687420DD
:1002500074696D65722064697361626C652E0A0051
:100260007267626C696768742074696D6572206575
:100270006E61626C65642E0A007267626C69676801
:100280007420736574207370656564205B4E4F4500
:100290004550524F4D5D3A2025750A007267626CD9
:1002A0006967687420736574207370656564205B8A
:1002B000454550524F4D5D3A2025750A00726762E0
:1002C0006C696768742073657420687376205B4E70
:1002D0004F454550524F4D5D3A2025752C25752CC4
:1002E00025750A007267626C6967687420736574AB
:1002F00020687376205B454550524F4D5D3A20256E
:10030000752C25752C25750A007267626C69676803
:1003100074207261696E626F7720736574206873F0
:10032000763A2025642C25642C25642C25750A003A
:100330007267626C696768742064697361626C6576
:10034000205B4E4F454550524F4D5D3A20726762DB
:100350006C696768745F636F6E6669672E656E614E
:10036000626C65203D2025750A007267626C6967C2
:1003700068742064697361626C65205B4545505206
:100380004F4D5D3A207267626C696768745F636F96
:100390006E6669672E656E61626C65203D2025750D
:1003A0000A007267626C6967687420656E61626CCE
:1003B00065205B4E4F454550524F4D5D3A20726768
:1003C000626C696768745F636F6E6669672E656EDD
:1003D00061626C65203D2025750A007267626C6958
:1003E00067687420656E61626C65205B454550529C
:1003F0004F4D5D3A207267626C696768745F636F26
:100400006E6669672E656E61626C65203D2025759C
:100410000A007267626C6967687420746F67676C42
:1004200065205B4E4F454550524F4D5D3A207267F7
:10043000626C696768745F636F6E6669672E656E6C
:1004400061626C65203D2025750A007267626C69E7
:1004500067687420746F67676C65205B4545505210
:100460004F4D5D3A207267626C696768745F636FB5
:100470006E6669672E656E61626C65203D2025752C
:100480000A007267626C69676874206D6F6465202A
:100490005B4E4F454550524F4D5D3A2025750A0041
:1004A0007267626C69676874206D6F6465205B4574
:1004B0004550524F4D5D3A2025750A007267626CB7
:1004C000696768745F696E6974207267626C6967D6
:1004D00068745F636F6E6669672E6D6F6465203D3B
:1004E00020302E2057726974652064656661756CD2
:1004F000742076616C75657320746F204545505289
:100500004F4D2E0A007267626C696768745F696E8E
:100510006974207374617274210A007267626C6975
:100520006768745F636F6E6669672E737065656474
:10053000203D2025640A007267626C696768745FF9
:10054000636F6E6669672E76616C203D2025640AB4
:10055000007267626C696768745F636F6E66696773
:100560002E736174203D2025640A007267626C69F5
:100570006768745F636F6E6669672E687565203D96
:100580002025640A007267686C696768745F636F2E
:100590006E6669672E6D6F6465203D2025640A00D4
:1005A0007267626C696768745F636F6E6669672EF5
:1005B00076656C6F63696B6579203D2025640A0060
:1005C0007267626C696768745F636F6E6669672ED5
:1005D000656E61626C65203D2025640A0072676269
:1005E0006C696768745F636F6E6669672045455024
:1005F000524F4D3A0A0000047F3F1F6432146432A8
:1006000014783C1E1E140A052223252628292A2C8C
:100610002D2F3032333536383A3B3D3E404243454C
:1006200047494A4C4E5051535557595A5C5E606287
:10063000646668696B6D6F71737577797B7D7F8197
:10064000838587898A8C8E90929496989A9C9E9F97
:10065000A1A3A5A7A8AAACAEAFB1B3B4B6B8B9BBB5
:10066000BCBEBFC1C2C3C5C6C7C9CACBCCCDCED024
:10067000D1D2D2D3D4D5D6D7D7D8D9D9DADADBDB11
:10068000DBDCDCDCDCDCDDDDDDDDDCDCDCDCDCDBA8
:10069000DBDBDADAD9D9D8D7D7D6D5D4D3D2D2D1F1
:1006A000D0CECDCCCBCAC9C7C6C5C3C2C1BFBEBCE4
:1006B000BBB9B8B6B4B3B1AFAEACAAA8A7A5A3A155
:1006C0009F9E9C9A98969492908E8C8A8987858317
:1006D000817F7D7B79777573716F6D6B69686664F7
:1006E00062605E5C5A5957555351504E4C4A4947C7
:1006F000454342403E3D3B3A3836353332302F2D6C
:100700002C2A292826252322FFAA7F5540000101F3
:1007100001010101010101020202020202020202C0
:100720000303030303030303040404040404040590
:100730000505050506060606060707070707080854
:100740000808090909090A0A0A0B0B0B0C0C0C0D05
:100750000D0D0E0E0E0F0F0F10101111111212139E
:10076000131414151516161717181819191A1A1B19
:100770001B1C1D1D1E1E1F20202122222324242578
:100780002626272829292A2B2C2D2D2E2F303132B1
:1007900032333435363738393A3B3C3D3E3F4041C1
:1007A00042434445464748494A4C4D4E4F505153A9
:1007B00054555658595A5B5D5E5F61626465666860
:1007C000696B6C6D6F7072737577787A7B7D7E80E4
:1007D00082838587888A8C8E8F91939596989A9C30
:1007E0009EA0A2A3A5A7A9ABADAFB1B3B5B7BABC44
:1007F000BEC0C2C4C6C9CBCDCFD1D4D6D8DBDDDF15
:10080000E2E4E7E9EBEEF0F3F5F8FAFDFF290A0080
:100810002575002F002575005D2800256400200047
:10082000256400200025640020002564007C00254C
:10083000303258006D6F7573656B6579205B62743B
:100840006E7C782079207620685D287265702F6133
:10085000636C293A205B0000000000000000002AC1
:100860002B28000000000000000000000000000035
:10087000000029000000002C1E34202122243426F0
:1008800027252E362D3738271E1F202122232425E9
:10089000263333362E37381F0405060708090A0B9E
:1008A0000C0D0E0F101112131415161718191A1B10
:1008B0001C1D2F3130232D350405060708090A0BAE
:1008C0000C0D0E0F101112131415161718191A1BF0
:1008D0001C1D2F3130354C000000000000000000CE
:1008E0000000000000000000000000000000000008
:1008F00000000000000000000000007E0F00D4FF98
:10090000FFFFC7000000780A002530325820006B36
:100910006579626F6172645F7265706F72743A209C
:1009200025303258207C200073757370656E6469C1
:100930006E67206B6579626F6172640D0A005B57A8
:100940005D005B535D005B525D005B445D005B439B
:100950005D000E03460075006A0069003600350030
:100960000000160343004D004D002E00530074009C
:100970007500640069006F000000040309040902A7
:100980007400040100A0FA09040000010301010041
:10099000092111010001224400070581030800011B
:1009A00009040100020300000009211101000122D5
:1009B0002200070582032000010705030320000130
:1009C00009040200010300000009211101000122B5
:1009D0007D000705840320000109040300010300D2
:1009E00000000921110100012215000705850320DF
:1009F000000112010002000000084D434D360100C5
:100A0000010200010631FF0974A1010975150026D4
:100A1000FF00952075088102C00660FF0961A101F1
:100A20000962150026FF00952075088102096315EB
:100A30000026FF00952075089102C005010902A15A
:100A40000185020901A100050919012908150025E0
:100A500001950875018102050109300931158125CB
:100A60007F95027508810609381581257F950175E6
:100A7000088106050C0A38021581257F9501750845
:100A80008106C0C005010980A10185031A01002A61
:100A90008F00160100268F00950175108100C0059A
:100AA0000C0901A101850419012AA002150126A043
:100AB00002950175108100C005010906A101050715
:100AC00019E029E7150025019508750181029501B6
:100AD000750881010507190029FF150026FF0095FB
:100AE00006750881000508190129051500250195DD
:100AF0000575019102950175039101C011241FBE76
:100B0000CFEFDAE0DEBFCDBF04B603FE19C080919F
:100B1000090390910A03A0910B03B0910C03873055
:100B2000904BA740B04B61F41092090310920A0356
:100B300010920B0310920C03E0E0F8E3099500C05B
:100B400011E0A0E0B1E0EEE0F7E602C005900D9202
:100B5000A23FB107D9F723E0A2EFB1E001C01D9297
:100B6000A930B207E1F70E9455150C94153348CA15
:100B7000FF93EF93E091F201F091F301309709F0C8
:100B80000995EF91FF910895FC018591803011F056
:100B9000EFDFFBCF0895FF27E0E230E247FF0CC014
:100BA000419597FF09C0EDE260957095809590950D
:100BB000611D711D811D911D27FF02C0219530E32C
:100BC00050E2AA27660F771F881F991FAA1FA41734
:100BD00010F0A41B63955A95A9F7AA3008F0A95FF5
:100BE000A05DAF93F395611571058105910541F7FE
:100BF000ED3211F4EF93F395F21718F43F93F39558
:100C0000FBCF8F91B5DFFA95E1F70895E991F9915E
:100C10008591803021F0853219F0AADFF9CF08954F
:100C200020E0E89455915532C1F3503311F46894A3
:100C300055915A3348F4505390F3220F022E220F4D
:100C4000220F200D250FF4CF0EF421958991999153
:100C5000533619F3533729F1533559F1BC0188271D
:100C60009927E8945C3621F489919991689455917B
:100C7000543639F446EF7EF077FF0DC08FEF9FEFCB
:100C80000AC055374AE039F0583540E121F0523674
:100C900042E009F00895FF93EF937DDFEF91FF911C
:100CA000B7CFFF93EF93FC0181918030B9F360DF00
:100CB000FBCFFF93EF9368DFF1CFDF93CF93CDB7F7
:100CC000DEB72596A3DFCF91DF9108958230E0F45F
:100CD0006530D0F44F30C0F450E09FE0699F400D84
:100CE000511D112490E09195819591098B7490E0AC
:100CF000FC01E40FF51FEE0FFF1FE455FF4F859138
:100D00009591282F822F089521E090E0FBCF81E07C
:100D1000089581E00895FBCF089581E0089581E072
:100D20000895FDCF089508950895FDCF089508957D
:100D30000895A6E0B0E0EFE9F6E00C948432498330
:100D40005A839E833091F90189819A81311117C0AC
:100D50003E81311589F0211579F00BD5182F682FB8
:100D600089819A81E5D469817A81812F0E94CF118E
:100D70002696E3E00C94A032ECD4182FF4CFF9D4EB
:100D800069817A81F3CFFC01262F408151816281F4
:100D9000738184819581CDCFCF93DF93EC0161E0A6
:100DA000F2DFBE01B6DF811529F061E0CE01EBDF95
:100DB000BE01B1DFDF91CF9108950F931F93CF93C1
:100DC000DF93EC0160E0DFDF8C01BE01ADDFBE012F
:100DD000C801ABDFDF91CF911F910F9108950F9361
:100DE0001F93CF93DF93EC0161E0CDDF8C018D8108
:100DF00081110E94EA1CBE01C8018FDF811106C06B
:100E000080E0DF91CF911F910F910895BE01C8013D
:100E100088DF8115A9F3BE01C8010E94D425811580
:100E200079F3BE01C8010E941025811549F3BE0166
:100E3000C8010E94E61F811519F3BE01C8010E9476
:100E4000BB1F8115E9F2BE01C8010E946F15811513
:100E5000B9F2BE01C8010E945025811589F2BE0178
:100E6000C8010E94D012811559F2BE01C8010E942A
:100E7000E212811529F2BE01C8010E94FC12C1CF05
:100E800091E001C0990F8A95EAF7892FB0C3CF93FB
:100E9000C82F81E00C2E01C0880F0A94EAF70E9447
:100EA000DF0F8C2FEDDFCF91089581E0089581E071
:100EB0000895FBCF0895CF93C82F4AD38C2FF7DF27
:100EC0008C2FF7DFCF91089581E0F5DF0C94252A70
:100ED00080E0F1DF0C94492A2ADF0E94232938D0D0
:100EE0000C94451C37D00E94D51B22DF0C94272977
:100EF0008295982F990F990F9C7C86958695837380
:100F0000982B892F880F8A7A96959575892B089545
:100F10000F931F93CF93C92FEBDF082F8C2FE8DFA0
:100F2000902FCF911F910F91089581E0089508951A
:100F3000CF93DF93D82FF9DFC82F811511F08D2FB4
:100F4000F6DF8C2FDF91CF9108950895F1CF0895AA
:100F500080E0FCCF0E946927F9CFCF930E946927D8
:100F6000C82F8091F4018C17F1F0C093F4010E9416
:100F7000F5296093F5017093F6018093F701909342
:100F8000F80180917A028570853059F41F92CF93D1
:100F900088ED91E09F938F9390DE0F900F900F90CC
:100FA0000F908C2FD3DFCF910895ADE0B0E0EBED43
:100FB000F7E00C948532488759876A877B878C874E
:100FC0009D879111FFD61F8286E0FE0138969E0113
:100FD0002F5F3F4FD90101900D928A95E1F78D81E6
:100FE00081110CC029813A814B815C816D817E81A8
:100FF0008F8133D62D96E2E00C94A132CE0101967A
:10100000CBDE8111EFCFF6CFFC012481213019F422
:1010100080819181DAC30895611521F00E944221F7
:101020000C94F7210E948221FBCFCF93C82F81150A
:1010300081F08450813A78F48C2F0E9449288115E0
:1010400021F08C2F0E948B2826D78C2F0E94852878
:1010500022D7CF9108958C2F805E883048F481E0AC
:10106000C1FD84E0C0FD880FC2FD82958CD6F0CF13
:101070008C2F855A833030F48C2F8452990B0E9428
:10108000DA27E7CFEC2FE85AEB3150F4F0E0EE0F1F
:10109000FF1FE05DFE4F808191810E940128D9CF22
:1010A0008C2F8D5C8331A8F661E08C2FB5DFD1CF1A
:1010B000811559F1982F9450913A18F40E948B2879
:1010C000EAC6982F905E983050F4982F81E091FDF9
:1010D00084E090FD880F92FD82955BD6F1CF982F2A
:1010E000955A933020F480E090E00C94DA27982F02
:1010F000985A9B3120F480E090E00C940128982FBE
:101100009D5C933110F460E087CF08951F93CF93D7
:10111000DF93182FEB0189DF209731F4812FC8DF8F
:10112000DF91CF911F9108958FE99FE00197F1F72B
:1011300000C000002197F0CF60E570E0893311F026
:1011400060E070E0E3CF811511F01DD6A4C60895CC
:10115000811511F01ED69FC60895A0E0B0E0E3EB24
:10116000F8E00C947F326C01D62FC72FFC0115815B
:10117000068102950F70FCD5E82E8115E9F0E12E6D
:101180001115D1F08C2F807F803461F08D2F805E1F
:101190008830E0F08C2F807E803221F4D230B0F0A5
:1011A0000115A1F08091C30282FF10C082E08FD6AA
:1011B000DFD591E08927E82EEC2FE295EF70C03C57
:1011C00078F5F0E0E95EFC4C0C945832E12CF4CF59
:1011D0000C2F0F70C03110F00295007F111581F0B7
:1011E000011549F08D2F805E883010F0D11105C0B7
:1011F000802FC9D550D68D2F40C0802FD5D5FACF9E
:101200008D2F56DF011561F08D2F805E883010F034
:10121000D11103C0802FBDD502C0802FCBD53BD6C6
:10122000E11409F4AEC0A0D580FDABC0F601158273
:1012300095D5FFD1C6015DD191D504D2A2C08C2F26
:101240008F70F82EC07FC03219F0F29480EFF82230
:10125000D13038F079F1111509F438C00115C9F011
:10126000CACF8091C30282FD10C0111541F0F11464
:1012700019F08F2D88D50FD680E0D7DED1CF80E052
:1012800017DFF11469F28F2DC6CF111551F001301F
:1012900018F48F2D58DFC4CF09F0C2CF8F2DA6D5FB
:1012A000BFCF0111BDCF8F2D53DF8F2DAAD58F2D2D
:1012B0008FD5B6CF111521F0063008F0B1CFE9CFA8
:1012C000053008F0ADCF8F2D43DFAACF0115D9F33C
:1012D000D93349F48FEF97EE23E0815090402040BE
:1012E000E1F700C000008D2FE3DE9ACF8C2F8695AA
:1012F00086958370813060F009F092CF8D2F9C2FFE
:101300009370111102C080E090E00E94012888CF04
:101310008D2F9C2F9370111102C080E090E00E94ED
:10132000DA277ECF612F8D2F77DE7ACF8C2F8370D7
:1013300099F5111123C09D2F929596959770990F4D
:10134000990F4D2F4F70092E01C0440F0A94EAF7F0
:101350008D2F8071D4FF07C02FE001C0220F9A9516
:10136000EAF7822F8095C695C695C370842BC2304C
:1013700079F0C33079F0C13049F03FD10E9469273C
:10138000E5DDCDB7DEB7E8E00C949B3232D1F6CF85
:1013900038D1F4CF2CD1F2CF111531F1C0FFEECFFF
:1013A0009D2F929596959770990F990F4D2F4F708D
:1013B000092E01C0440F0A94EAF78D2F8071D4FFE3
:1013C00007C02FE001C0220F9A95EAF7822F80957F
:1013D000C695C695C370842BC23059F0C33059F0FE
:1013E000C13029F047D1CACF823040F2D9CF3ED1A7
:1013F000C5CF44D1C3CF0FD1C1CFCF70111529F0C4
:101400008C2F17D18D2F9FDEB9CF8D2FA1DE8C2F82
:1014100019D1B4CFD23F31F168F4D03FC1F0D13F00
:1014200089F0111509F43EC0011509F438C08D2F5B
:10143000FCDDA4CFD33FE1F0D43F99F78091C30204
:1014400082FD1EC08C2F8F71111511F30FC0111565
:1014500039F0053008F092CF8C2F8F71FED08ECFEF
:101460000630F8CF8C2F8F711111D2CFE2D086CFFA
:10147000111521F08C2F8F71D5D080CFD1D07ECF98
:10148000111529F063E08C2F8F710AD577CF81E099
:101490001ED5023008F472CF82E019D56FCF8C2FA1
:1014A0008F71E4CF011571F0D93349F48FEF97EEC6
:1014B00023E0815090402040E1F700C000008D2FD4
:1014C000F7DD5CCF8C2F8F71A3CF0F931F93CF933A
:1014D000DF93EC01688179818D8180D18C01D2D03C
:1014E00085D0B801CE0139DEDF91CF911F910F91E8
:1014F0000895CF93DF93EC018C81811581F0CE01AB
:101500006EDC81110FC034D4811549F08D818115B5
:1015100031F08091C30282FF02C082E0D8D4DF9113
:10152000CF910895CE01D1DFCE0147DCF8CF80E026
:1015300090E00E94DA2780E090E00E94012842D4E7
:10154000AAD40E94AF220C94F7210E949128EFCFD9
:1015500028D4FBCF282F92959F70963099F060F495
:10156000925F9F70923030F4203FB1F038F481E008
:10157000283E38F080E008959A5FF3CF81E0243F61
:10158000C9F7089591E0813F09F090E081E0283E9D
:1015900008F080E0892B089581E00895FC01248102
:1015A000211521F08081918110D1D4CF80E0089560
:1015B000A6E0B0E0EEEDFAE00C9485322696E2E08B
:1015C0000C94A132A7E0B0E0E8EEFAE00C9485328A
:1015D0002796E2E00C94A1320895FECF0895FDCF46
:1015E0000895FADFFCDF8093190208950895F9CF7A
:1015F000089590911902892BF4CF909119028923B3
:10160000F0CF909119028927ECCFE6CF0895FDCF56
:101610000895E2CF0895FDDFFADF80931802089560
:1016200080E0F9CF91E001C0990F8A95EAF7892F00
:10163000F2CF21E001C0220F8A95EAF780911802CB
:10164000822BE9CF21E001C0220F8A95EAF7822F91
:101650008095909118028923DECF21E001C0220FEE
:101660008A95EAF7809118028227D5CF90911802C7
:10167000892BD1CF909118028923CDCF9091180258
:101680008927C9CF0895CF93C1E061FDC4E060FD13
:10169000CC0F62FDC29593E0769567959A95E1F738
:1016A0009B01220F331F260F371F420F531FFA01D2
:1016B00040E050E090E06191DF019C01042E02C007
:1016C000369527950A94E2F72695220B26272C2398
:1016D00026272E934F5F5F4F4330510561F7CF911F
:1016E0000895A82FA77023E0969587952A95E1F78E
:1016F0009C01220F331F820F931F680F791FFB017C
:1017000040E050E080E0219130E00A2E02C03695A2
:1017100027950A94E2F72170042E01C0220F0A9443
:10172000EAF7822B4F5F5F4F4330510561F7089511
:10173000262F953068F48F3058F4682F70E08FE0D2
:10174000989F600D711D11244AEF51E0822F9BCFAD
:101750000895292F953058F48F3048F490E06AEFBF
:1017600071E03FE0239F800D911D1124BACF80E0EE
:101770000895CF92DF92FF920F931F93CF93DF9341
:101780006C010091180280911902082BC3E0D0E08F
:1017900010E0C8010C2E02C0959587950A94E2F7D7
:1017A00080FD0CC02197A8F7F12C8F2DDF91CF91F0
:1017B0001F910F91FF90DF90CF900895FC2EB601FE
:1017C0008C2FF8D5019771F3F0CFCF93DF93EC0115
:1017D000D0DFBE01EFD5DF91CF9108951F93CF9356
:1017E000DF93EB019091F901911531F0CB01EDDF21
:1017F000DF91CF911F910895811551F0CB01B9DF91
:10180000182F682FCE0194DFBE01812FD3D5F0CFE2
:10181000CB019FDF182FF8CFE1E0F0E0DF0101C03E
:10182000AA0F6A95EAF76A2FDF0101C0AA0F4A954D
:10183000EAF76A2B01C0EE0F2A95EAF7962F982354
:10184000961302C08E2B0895E0958E230895242FC1
:10185000462F682F80911802DFDFDDCE0F931F9394
:1018600000911A0280911B02801303C01F910F91F7
:10187000089587E0089FF0011124E45EFD4F208168
:101880003181428153816481758186819BDE0F5F46
:101890001F4F0770E7CF20915402309155024091BD
:1018A00056025091570260915802709159028091EE
:1018B0005A0288CE80915A02803170F48091590288
:1018C000811551F0E0911A0220911B0230915502CE
:1018D000409154022E1301C00895BF0187E0E89F94
:1018E000F0011124DF01A45EBD4F14968C91149772
:1018F000811549F111968C911197831324C08C9115
:10190000841321C015968C91159781111CC01296D5
:101910008D919D91A0915602B09157028A1B9B0B0D
:10192000883C910580F480915A028F708061809389
:101930005A02EE5DFD4F80818F708061808384E567
:1019400092E0D7DD8BCF6F5F7F4FFB01E770C2CF97
:10195000E0911A0290911B02E91302C080E0089501
:101960009F0157E0E59FF0011124E45EFD4F518196
:10197000561306C05081581303C05581541305C037
:101980002F5F3F4FF901E770E7CF81E008958F9215
:101990009F92AF92BF92DF92EF92FF920F931F93AD
:1019A000CF93DF93CDB7DEB72D970FB6F894DEBF98
:1019B0000FBECDBF8C0186E0F801DE0118960190C4
:1019C0000D928A95E1F7F801F580848194E5892EDE
:1019D00092E0992E90915802911117C0811509F447
:1019E000EFC0F11409F42EC1C801D8DD811509F446
:1019F00029C187E0F801D40101900D928A95E1F7A1
:101A0000C40102DB57DF47DFDBC0E080A280B38088
:101A1000D09059022091560230915702A501421BE5
:101A2000530BD11409F4CFC0483C510508F09EC0B7
:101A3000811509F4C5C090915502918080915A0298
:101A4000803108F065C0991226C0909154029E1111
:101A500022C0F11057C08F70806180935A021BDF43
:101A600084E592E046DD80915A02F8018683F12CEC
:101A70008F2D2D960FB6F894DEBF0FBECDBFDF9130
:101A8000CF911F910F91FF90EF90DF90BF90AF909B
:101A90009F908F900895F11035C040E0692D8E2DF4
:101AA00057DF40E0692D8E2D53DFF82E8111DFCFF7
:101AB000888599858ADE292F22952F70903450F4DD
:101AC0009F70223078F0911591F0F8019681903155
:101AD00070F4CECF2A5F2F70223070F0C80109DD7C
:101AE000FD2CC6CF911519F0811509F4C1CF805E88
:101AF000883008F4BDCFF2CF803F08F4B9CF815FC2
:101B00008330F7CF80915A02816080935A02AFCF21
:101B1000991207C0909154029E1103C0F11409F468
:101B200073C0C8013BDD811509F48CC0F11409F4C0
:101B300089C080915A02803280F020915402309105
:101B4000550229833A83AB82BC82909158029D83CF
:101B50001E828F83CE010196CCDC87E0F801A4E5DC
:101B6000B2E001900D928A95E1F74CCF90915A0224
:101B7000903188F4488559856A857B858C859D855B
:101B800017DD84E592E0B5DCF40187E011928A95D7
:101B9000E9F781DE6CCF811599F0209155028181A2
:101BA0002813BFCF809154028E11BBCFF110B9CF53
:101BB0009683C8019EDCF40187E011928A95E9F7CB
:101BC000FF24F39455CF483C510508F03EC08115E1
:101BD000B9F3F114B9F1909155028181981329C09C
:101BE000809154028E1125C080915A0280FD18C048
:101BF0008031B0F08683807F803F39F08681982FD6
:101C0000907F905F8F70892B8683C80172DC87E09C
:101C1000F801A4E5B2E001900D928A95E1F7F3CEC8
:101C200087E0F801A4E5B2E001900D928A95E1F712
:101C3000C7CFC801B3DC811190CF80915A02816077
:101C400080935A02C80155DCBBCF488559856A8507
:101C50007B858C859D85ACDC97CFAEE0B0E0E3E37F
:101C6000FEE00C948432288739874A875B876C872B
:101C70007D878E87CE0108968ADE6C85811599F066
:101C8000611539F0288539854A855B857D858E8586
:101C900099DC80911A0290911B0289133DC02E9607
:101CA000E3E00C94A03287E09E01285F3F4FF901EA
:101CB00027503109D90101900D928A95E1F76115FC
:101CC00041F3A0911B028A2F90E08395877090E0EA
:101CD000AC0120911A022417150691F097E09A9F03
:101CE000D0011124A45EBD4F9E012F5F3F4FF9012B
:101CF00001900D929A95E1F740931B02AFDDC9CF99
:101D000027DC10921B0210921A02E4E5F2E087E051
:101D100011928A95E9F7BDCF17E0189FC0011124F1
:101D2000845E9D4F34DE811509F4B9CFE0911A022B
:101D30001E9FF0011124E45EFD4F2081318142811C
:101D400053816481758186813DDC80911A02909176
:101D50001B020196877080931A029BCF80916302C9
:101D6000869586958695089580916302877008957B
:101D700090916302977081E0911101C080E0089515
:101D800080916F02089590916F02982B90936F024B
:101D900008958095982F80916F02892380936F0218
:101DA000089510926F02089590916E02982B90936F
:101DB0006E0208958095982F80916E0289238093FA
:101DC0006E02089510926E0208950895FECF089550
:101DD00090916402292F282329F0809589238093EC
:101DE0006402F4CF08950895FECF0895909165029E
:101DF000292F2823281721F0982B90936502F4CFE0
:101E0000089590916502292F282329F08095892330
:101E100080936502E9CF089580916502811521F0D4
:101E20001092650280E0E0CF08950F931F93CF9347
:101E3000DF9380910001909101018C01C0916F02AC
:101E400080916E02C82B80916502811529F0C82B04
:101E50000E9435288111E0DFF801C083C0910001A4
:101E6000D091010148E050E06BE572E0CE010E94A4
:101E7000B932892B59F088E0FE01ABE5B2E0019060
:101E80000D928A95E1F7CE010E947827DF91CF91DC
:101E90001F910F910895C9CF08950895FECF089519
:101EA0009091C30292FF0EC0982F990F990F990F2E
:101EB000962B90936302BDDB809163028695869595
:101EC0008695ECCFB6CB1092630280E0E7CF90917D
:101ED00063028095892380936302282F277059F429
:101EE000891749F09091C30292FF05C086958695A7
:101EF0008695A8DBE8CF0895CF93C82F8091C302C1
:101F000082FB992790F99C17C9F0C0FB82F9809356
:101F1000C30282EC92E057D082E0D9DF80917A024E
:101F200080FF0CC01F92CF9388EE91E09F938F9318
:101F30000E945D060F900F900F900F90CF91089523
:101F40008091C302002482FF0394802DD5CF81E0CD
:101F5000D3CF80E0D1CF80E090E0BC011AC480E014
:101F600090E0BC0110D4F7CFA3E0B0E0EAEBFFE0D3
:101F70000C94853276D381D31B82CE01039694D301
:101F800081E0809319029AD3198284E18A83CE0179
:101F90000196A5D3A2D60E94BD25E1DF2396E2E0FB
:101FA0000C94A132E1CF08956EC308955BD38111E3
:101FB0000C94842508956DC308957CC308957EC351
:101FC000089581C308958BC3089590C30895C2C333
:101FD0000895E5C308950895A6E0B0E0E2EFFFE0BC
:101FE0000C9483320E94E9298C01809170029091B7
:101FF00071028017910779F019821A820E94E929EB
:10200000BC0149815A8180E090E00E94D50700938D
:102010007002109371022696E4E00C949F320E94A5
:10202000F5296093760270937702809378029093FB
:10203000790260937202709373028093740290939A
:102040007502089508950895FDCF08950895FEDF5F
:10205000FBCF0895FECF08950895FEDFFBCF8CE2FD
:102060009CE238D5F0DFF3CF81E0089581E0089558
:10207000FBCF0895089508950895FCDFFCDFFCCFA1
:1020800095DF811101C08EDF8AE792E094DF82EC58
:1020900092E097DF0E94541D90DFA9DA8091180228
:1020A000B6DA99CF0E94E0290E94C92577D4E8DFEB
:1020B0000E9467270E94A5070E947D1BCECFA6E045
:1020C000B0E0E5E6F0E10C947932D0DF81110DC08B
:1020D00083DF0E9468270E94EB1C0E94D0220E948E
:1020E000AD072696EEE00C94953267D428EB822E4D
:1020F00022E0922E740110E0F701C080D180812F80
:1021000059D31F5F153009F450C022E0E20EF11CD4
:10211000C816D90689F380917A0281FD54D3A8DFCD
:10212000682E10E0812F46D37C01F401A190B1907C
:102130004F018A159B0599F1A826BF2400E091E084
:10214000C92ED12CC5018C219D21892B01F1772429
:102150007394C7018C219D21892B09F4712C611482
:1021600089F0602F812F0E944B2981110BC00983B8
:102170001A830E94E929BC0149815A8181E0972D87
:102180000E94D507472D602F812F0E9462290F5F83
:10219000CC0CDD1C0F30B1F6F401F292E2921F5F1D
:1021A000153009F0BFCF3BDF94CFC816D90609F030
:1021B000B2CF8ECF0F931F93CF93DF93FDD0EC015F
:1021C000D23508F050C0D03508F0C8C0C03ED105A7
:1021D00030F5CD3CD10508F09DC0C83AD10578F462
:1021E000C53AD10508F093C0C130D105B1F1CE0197
:1021F0000497813A910588F1C0E0D0E02EC0CE016D
:10220000885A91094B97C0F7C85AD0E0CC0FDD1F10
:10221000CA59DE4F0990D881C02DD4641EC0D03475
:10222000A8F4D03208F0ADC0C83ED105B0F0CE0160
:1022300091509F3108F78D2F62D1082F8C2F90E09D
:10224000BBD0D02FDF71C82FD92B07C08C2F90E0C7
:10225000B3D0DF70C82FD92BD06ACE01DF91CF91D8
:102260001F910F910895C03882E5D807B8F5C036A0
:1022700082E5D80708F056C0C03482E5D807C8F414
:10228000C03282E5D80708F047C08C2F8695869526
:1022900020E2829FC0011124C37021E030E002C01F
:1022A000220F331FCA95E2F7E901C82BD92BDD684D
:1022B000D4CF8C2F86958695877020E2829FC001AF
:1022C0001124C37021E030E002C0220F331FCA95F1
:1022D000E2F7E901C82BD92BDC68BFCFC03C82E50F
:1022E000D80750F48C2F8F71C03AD24580F5982FC3
:1022F00084EF906AEC01B1CFCE01805C924580976B
:1023000008F07ACFDC2FDF71C0EFD06AA6CFA49798
:10231000D064A3CFD065A1CF8C2F8F71D82FC1EF00
:10232000D06A9BCF8C2F86958695877020E2829FFE
:10233000C0011124C37021E030E002C0220F331F1E
:10234000CA95E2F7E901C82BD92BDA6886CFD7D036
:10235000982F80E09F71EC01D0627FCF8C2F8F711E
:10236000CED053E0CC0FDD1F5A95E1F7DF70282F58
:1023700084FF04C090E1899F90011124C22FD0698D
:102380006CCF8D2F8F71BBD0082F8C2F90E014D085
:10239000302F3F71282F392B3062E9015ECF462F55
:1023A000753028F46F3018F4672F0C94B81D80E056
:1023B00090E00895F4DFFECE803E9105D1F1C8F49F
:1023C0008133910509F481C048F48932910509F4FB
:1023D00071C08A32910509F47FC00895893391054F
:1023E000E1F082389105C9F08533910509F45DC0AB
:1023F0000895843E9105D1F148F4823E910531F172
:10240000833E910541F181EE90E00895863E91056D
:10241000C1F1873E9105F1F108952091C202237028
:1024200009F064C02091C30223FF14C089E290E048
:1024300008952091C20220FD45C03091C30230FFB3
:1024400009C024FD24C083EE90E008952091C202CB
:1024500022FDF7CF08952091C20222FD44C03091A1
:10246000C30230FD43C024FFF5CF11C02091C30249
:1024700021FFF0CF8091C20284FD09C087EE90E079
:1024800008952091C20223FFE5CF24FFF7CF80E01B
:1024900090E008952091C20223FD2BC03091C30229
:1024A00031FFE1CF84EE90E008952091C20225FF34
:1024B000D1CFBCCF2091C20225FD1EC02091C30206
:1024C00023FFC8CF89E390E008952091C20226FF40
:1024D000C1CF8AE290E008952091C20226FFBACFD0
:1024E00081E390E0089582EE90E0089580EE90E020
:1024F000089586EE90E0089585E390E00895909128
:10250000C20292FF10C041E0282F2471243009F04C
:1025100040E031E0282F2871283009F030E04317DF
:1025200011F02CE0822793FF10C041E0282F247186
:10253000243109F040E031E0282F2871283109F0DA
:1025400030E0431711F02CE082273091C30230FFB6
:1025500010C051E0282F2171213009F050E041E0F6
:10256000282F2871283009F040E0541711F029E095
:10257000822731FF10C041E0282F2171213109F05D
:1025800040E031E0282F2871283109F030E043176E
:1025900011F029E0822794FF02C083FD877E089511
:1025A000CF939C01205E3245C1E02032310538F4E2
:1025B000FB01C581C11103C08F710E9447078C2F99
:1025C000CF9108959C01FB018581811599F02B35F0
:1025D0009CE7390769F02C359CE7390721F02A354B
:1025E0003C4721F00895ACDC80E00895B0DCFCCFDE
:1025F000B0DCFACF81E00895FB012581211579F146
:1026000082303CE79307A9F048F481153CE7930733
:1026100061F081309C4731F0822F089583309C47D0
:10262000D9F7C2DC0E94680702C00E94640720E05C
:10263000F3CF90917A02892F8E7F90FF81608093F3
:102640007A0280FF09C08FE092E09F938F930E94EF
:102650005D060F900F90EBCF8DEF91E0F6CF21E06C
:10266000DBCF089580E090E00E94D3329C0181E0AE
:10267000233E3E4F09F080E0089563EE7EEF80E058
:1026800090E00C9401336FEF7FEF80E090E00C94CA
:102690000133CF93DF93EC0182E090E00E94C632D9
:1026A0008883DF91CF910895FC01608182E090E002
:1026B0000C94E73283E090E00C94C632682F83E0FC
:1026C00090E00C94E732CF93DF93EC0184E090E04C
:1026D0000E94D33288839983DF91CF910895FC01C2
:1026E0006081718184E090E00C9401338F929F921D
:1026F000AF92BF92CF92DF92EF92FF920F93CF9360
:10270000DF93EC0188E090E00E94CE324B015C0147
:10271000688399828A83BB821C821D821E821F82EB
:1027200083E290E00E94C6329401A5018882398339
:10273000AA825B838C831D821E821F82DF91CF91D0
:102740000F91FF90EF90DF90CF90BF90AF909F9050
:102750008F9008950F93CF93DF93EC0148815981B7
:102760006A817B8188E090E00E94F9326C81262F9B
:1027700060E070E0CB01622F83E20E94E732DF91DC
:10278000CF910F910895AB01BC018FE090E00C94C4
:10279000F932AB01BC0183E190E00C94F932682F6F
:1027A0008EE090E00C94E7320895FECF08950895EE
:1027B000FECF0895E82FF0E0EE0FFF1FE253FD4F2C
:1027C000808191810895A0E0B0E0E9EEF3E10C94FE
:1027D0007F3280E392E09F938F930E945D068EECA0
:1027E000C82E82E0D82E0F900F90E12CF12C02E23F
:1027F00012E0FF92EF928BE292E09F938F930E9400
:102800005D0688E292E09F938F930E945D06F60139
:10281000819191916F010E9488079F938F931F93DD
:102820000F930E945D0680E292E09F938F930E9437
:102830005D068FEFE81AF80A8DB79EB70C960FB6B3
:10284000F8949EBF0FBE8DBF85E0E816F10489F6AF
:10285000E8E00C949B3280EA8A95F1F7089500C075
:102860000895F9CF0895F894E82FE295EF70F0E01D
:1028700041A18F7021E001C0220F8A95EAF7922FC3
:102880009095942391A392A1822F892B82A378946F
:102890000895CF93DF93CBEAD1E089918F3F09F080
:1028A000E2DF81E0C03BD807C1F7CCE9D1E08991F4
:1028B0008F3F09F0D8DF81E0CB3AD807C1F7DF912D
:1028C000CF910895AF92BF92DF92EF92FF920F9354
:1028D0001F93CF93DF935C01D62EC62FD0E08E01DD
:1028E00005551E4FF80180818F3F09F44BC0F894C5
:1028F000E82FE295EF70F0E091A18F7021E001C028
:10290000220F8A95EAF7892F822B81A382A1209535
:10291000282322A37894A3DFECE9F1E021E030E062
:10292000E12CF12C41914F3F79F0A42FA295AF708B
:10293000A05EB0E08C9190E04F7002C095958795B5
:102940004A95E2F780FF28C080E090E0E82AF92A63
:10295000220F331F81E0EB3AF80721F7F80180815D
:102960008F3F09F080DF61E0E114F10409F460E0D9
:102970008D2D77DFCC0FDD1FC5018C0F9D1FEC0166
:10298000E882F982DF91CF911F910F91FF90EF9034
:10299000DF90BF90AF900895C901D8CF7ADFEEECF9
:1029A000F2E08AE011928A95E9F7E4ECF2E08AE03D
:1029B00011928A95E9F73CD0F8CEAAE0B0E0E3EEB8
:1029C000F4E10C948232FE013196DF018AE01D921F
:1029D0008A95E9F710E00E2FFF2E612F802F9F2D93
:1029E00071DF812F8F5F182F8530B9F74AE050E0F3
:1029F000602F7F2D84EC92E00E94B93241E0892B58
:102A000069F440E06EEC72E084EC92E012D0182F92
:102A1000CFDE812F2A96E5E00C949E328AE0E02FEB
:102A2000FF2DA4ECB2E001900D928A95E1F7EACF78
:102A30000895EF92FF920F931F93CF93DF938C0132
:102A40007B01C42F411579F081E080937D020E94C3
:102A5000E92980937B0290937C0280E0CDB7DEB7BA
:102A6000E6E00C949D32D0917D02D115B1F38091B6
:102A70007B0290917C020E947A29089770F34AE0C9
:102A800050E0B801C7010E94B932892B41F08AE0B9
:102A9000F801D70101900D928A95E1F7CD2F1092A0
:102AA0007D028C2FDBCF0BCB08950E9483290E94DF
:102AB0008D2CD5DA0E94A52CF5DA0E94AE2C0E944E
:102AC000B12CF1DF0E94D32C0E949D2A0E94C72ABC
:102AD000D4DAF5CF8093F2019093F3010895CF9368
:102AE000DF93EC01FB018581811104C081E0DF915E
:102AF000CF91089545D98272FE01E052F847EB303C
:102B0000F105A0F7ED5DFC4C0C94583273D680E0D3
:102B1000EECF811521F0D0D5FACF8115E1F3C0D5E4
:102B2000F6CF811521F039D3F2CF8115E1F32BD304
:102B3000EECF811521F04BD3EACF8115E1F33AD3E3
:102B4000E6CF811521F05DD3E2CF8115E1F34CD3BF
:102B5000DECF811521F089D1DACF8115E1F376D16D
:102B6000D6CFA0E0B0E0E7EBF5E10C947E32062F83
:102B7000B72EE82F71110EC0411521F0F0E0E35F90
:102B8000F84FE4916E2F7E2F8E2FCDB7DEB7E9E0A0
:102B90000C949A32411521F0F0E0E35FF84FE49194
:102BA00086E0089FE00111242FEF30E0CE01B9014B
:102BB0000E940F32AB01C801880F991FF5E5F49F01
:102BC000B001F59F700D1124861B682F660F680FEA
:102BD000C9018B199109E89FD001E99FB00D11241B
:102BE0008B2FB69E60011124CD2CD12C89010C199C
:102BF0001D096801E09F7001E19FF00C1124433032
:102C0000510551F18901061B1109B09E6001B19E69
:102C1000D00C1124CD2CD12C2C193D09E29F800120
:102C2000E39F100D1124712FCC3FD34050F441305D
:102C30005105B1F04230510561F47E2FEB2F812F09
:102C400008C04430510579F04630510511F07B2F12
:102C50008F2D6E2FE82F98CF7F2D8E2FEB2FF9CF52
:102C60007E2FEF2DF6CF8E2FE12F7B2FF2CF41E07D
:102C700078CF0895FCCF089590910501291B922FDC
:102C8000E091D701F091D801242F462F682F892F8A
:102C900090E009950895CF93DF93762FE901682F8F
:102CA000842FE8DF962F672F9E01482F892FE4DFBE
:102CB000DF91CF9108958091D802843028F48370F9
:102CC00084608093D80208958439E8F38370806922
:102CD000F8CFF1DF88ED92E07AC985E08093D802E1
:102CE0001092D9028FEF8093DA028093DB02109268
:102CF000DC0288ED92E06BC980917A0280FF8BC084
:102D00008DED95E09F938F930E945D0680917A02EE
:102D10000F900F9080FF7FC08091D80281701F922A
:102D20008F9380EC95E09F938F930E945D06809136
:102D30007A020F900F900F900F9080FF6CC08091DF
:102D4000D802869581701F928F9380EA95E09F93B9
:102D50008F930E945D0680917A020F900F900F90E2
:102D60000F9080FF58C08091D802869586951F925B
:102D70008F9385E895E09F938F930E945D068091E5
:102D80007A020F900F900F900F9080FF44C08091B7
:102D9000D9021F928F938BE695E09F938F930E94A9
:102DA0005D0680917A020F900F900F900F9080FF38
:102DB00032C08091DA021F928F9381E595E09F9354
:102DC0008F930E945D0680917A020F900F900F9072
:102DD0000F9080FF20C08091DB021F928F9387E3CA
:102DE00095E09F938F930E945D0680917A020F90E9
:102DF0000F900F900F9080FF0EC08091DC021F9209
:102E00008F938BE195E09F938F930E945D060F90C7
:102E10000F900F900F9008958091D80280FF03C00B
:102E200086958695089580E008958091D8028170F6
:102E300008959091DC02933018F49F5F9093DC0228
:102E4000811519F088ED92E0C2C8089581E0F1CFB4
:102E50009091DC02911519F091509093DC0281154C
:102E600019F088ED92E0B3C8089581E0F1CF809128
:102E7000DC0208958093DC026115B1F088ED92E0E8
:102E8000A6D880917A0280FF0EC08091DC021F924A
:102E90008F938CE992E09F938F930E945D060F9031
:102EA0000F900F900F90089590917A0290FFFBCFB2
:102EB0001F928F9389E792E0EECF60E0DBCF8091A5
:102EC000D90208958091DA0208958091DB02089575
:102ED0000F931F93CF938091D80280FF09C0E09198
:102EE000DB01F091DC010995CF911F910F910895BD
:102EF000C09107018091D7019091D8018C018091F8
:102F00000801C81760F7809105019C2F981B20E0ED
:102F100040E060E0892F90E0F8010995CF5FEFCFA6
:102F2000EF92FF920F931F93CF93DF93D82F162F1B
:102F3000042F8091D80280FF0CC0C09107018091BE
:102F4000D7019091D8017C0180910801C81730F019
:102F5000BFDFCDB7DEB7E6E00C949D32809105016E
:102F60009C2F981B202F412F6D2F892F90E0F70168
:102F70000995CF5FE9CF762F9091D80290FF08C0D6
:102F8000682F842F77DE962F672F482F892FC8CF81
:102F90000895CF93DF93EC01EC81F0E0E85FF94F07
:102FA0004491E8EDF2E062818181E5DF8C818F5F01
:102FB0008C83DF91CF910895CF93DF93EC01E8EDFF
:102FC000F2E0438162818C81D6DF8C818F5F8C83BC
:102FD000DF91CF910895CF93DF93EC012091DB0235
:102FE0009C81892F817090FD822F692F627091FDE5
:102FF000622F492F447092FD422F92DF8C810196FF
:1030000087708C83DF91CF910895A0E0B0E0EBE072
:10301000F8E10C947732682E062F142F422E9091EF
:10302000D80290FF40C0E92FE695E695AE2FA05557
:10303000BE4F8C91809389029C7F9430B9F5662DA8
:10304000702F842F17DE962F672F482F892F68DF68
:103050006092D9020093DA021093DB02411409F462
:103060007CC088ED92E00E94E70F80917A0280FF99
:103070001AC08091DB021F928F938091DA021F9217
:103080008F938091D9021F928F9384EE92E09F9349
:103090008F930E945D068DB79EB708960FB6F89481
:1030A0009EBF0FBE8DBFE0E10C949332823019F4C5
:1030B0001091DB02CDCF863019F46090D902C8CFD1
:1030C0008930D9F3893121F6E951E0FB992490F850
:1030D00081E08925E695F0E0E85FF84F5490712C87
:1030E000A52CB12CE82EF12C60910901761610F078
:1030F000EFDEAECF759CC001112470E00E940F324C
:10310000862C861A911002C0660D862EC72CD12CF3
:1031100080917A0280FF16C0BF92AF92FF92EF9229
:103120001F928F921F927F9289E093E09F938F93DB
:103130000E945D068DB79EB70A960FB6F8949EBFA3
:103140000FBE8DBF809107019601280F311D412FC1
:10315000602F882DA0DD7394C7CF80917A0280FF05
:10316000A2CF1F921F9310E01F920F931F926F9296
:103170008DEB92E08CCFE8EDF2E0282F4381628165
:103180008181885F42CF81E0F6CFE8EDF2E0282F21
:10319000438162818181885038CF81E0F6CFE8EDAC
:1031A000F2E0628128E0620F08F46FEF282F43817C
:1031B00081812BCF81E0F3CFE8EDF2E0628128E05E
:1031C000621B08F460E0282F438181811ECF81E0DB
:1031D000F3CFE8EDF2E0438128E0420F08F44FEF2F
:1031E000282F6281818111CF81E0F3CFE8EDF2E0F9
:1031F000438128E0421B08F440E0282F628181814E
:1032000004CF81E0F3CF20E000CF0F931F93CF9343
:103210008C01C0E060910901C61768F059DEF80121
:103220008481928190FF1DC08F5FF8018483CF91CC
:103230001F910F910895209107012C0F3327331F01
:1032400070E08FEF90E00E942332F801848140917A
:10325000DB02C69F800D11246091DA021CDDCF5F76
:10326000D9CF8150E2CFAF92BF92DF92EF92FF921F
:103270000F931F93CF93DF93FC018281D1E080FDF8
:10328000DFEFC0E08091D7019091D8015C0180917F
:103290000901C817B8F01CDE80917F02D13009F017
:1032A0004DC0811102C080910901815080937F023D
:1032B000DF91CF911F910F91FF90EF90DF90BF9022
:1032C000AF9008958091070190910501891B8C0FA3
:1032D00020E040E060E090E0F501099504E010E0B6
:1032E000D12CEC2EF12C80917F028D0D893004F1D0
:1032F0008770082E001C00088E150F0499F4809129
:1033000007019701280F311D4091DB020403A00142
:10331000112455954795559547956091DA0280910E
:10332000D902B9DCDD0E01501040E9F6CF5FAFCF16
:1033300087FFDFCF90910901890FDBCF90E00196E5
:103340006091090170E00E942332B0CF0F931F9368
:10335000CF93C09107018091D7019091D8018C0142
:1033600080910801C81750F1C0E08091D701909179
:10337000D8018C0160910901C61768F1A9DD80911F
:10338000030190917E02980F90937E022091040198
:10339000280F20930401121654F4209109012150A2
:1033A000330B092E001C0008921703061CF08195B0
:1033B00080930301CF911F910F9108958091050192
:1033C0009C2F981B20E040E060E0892F90E0F801FE
:1033D0000995CF5FC5CFEC2FF0E070E0CF010E94E0
:1033E000233220910701820F90917E02092E001C4A
:1033F0000008E917F0059CF090910401092E001CCB
:1034000000089E170F065CF0282F30E04091DB0289
:103410006091DA028091D9023EDCCF5FABCF909110
:103420000501891B20E040E060E090E0F80109958B
:10343000F4CFA0E0B0E0EFE1FAE10C947D32EC01D2
:10344000FC812F2F30E0D9010E94F4319B01AC01A7
:103450000E946B327B018C0180E290E08F1B91090E
:10346000FC01A5E59701A8010E946B325B016C018C
:103470009F01DF010E94EE319B010E9465329B019A
:10348000AC012E0D3F1D401F511FB501C6010E940A
:103490003632022F30E00A3220F5A901440F551FC1
:1034A000420F531F55954795142F1095F12C85E524
:1034B000801BE82E80910901F81600F109DD9C813E
:1034C00081E0911519F0903219F48FEF8093020189
:1034D00080910201890F8C83CDB7DEB7EAE00C94AE
:1034E000993285E590E0821B930BAC01440F551F88
:1034F000480F591FBAF64F5F5F4FD4CF8E2DF1FCA6
:10350000802F209107012F0D3327331F412F60910A
:10351000DA02C1DBF394CECF0F931F93CF93DF93E7
:103520008C01C0E0D0E090910901C917D1055CF091
:10353000CFDCF8018481019681708483DF91CF9183
:103540001F910F910895F8014481809107019E0118
:10355000280F311D6091DA028091D9029695C91722
:10356000D1053CF4411539F04091DB0294DB219602
:10357000DACF4115C9F340E0F9CF6091D8026695E2
:10358000669570E04BE050E08AE091E00E94AC323A
:10359000892B19F481E080938A020E94E9298093A3
:1035A00080029093810280917A0280FF08C080E6B9
:1035B00092E09F938F930E945D060F900F90089565
:1035C00010928A0280917A0280FF08C087E492E01C
:1035D0009F938F930E945D060F900F900895909196
:1035E000D80290FF42C0811509F440C0853208F02E
:1035F0003FC08F732091D8022370982F990F990F95
:10360000922B9093D8026115A9F188ED92E00E9467
:10361000E70F80917A0280FF10C08091D8028695D2
:1036200086951F928F9380EA94E09F938F930E94D8
:103630005D060F900F900F900F906091D8026695E5
:10364000669570E04BE050E08AE091E00E94AC3279
:10365000892BC9F0B5DF81E0809383024091DB02C2
:103660006091DA028091D902CECD089581E0C2CF77
:1036700084E2C0CF90917A0290FFDFCF1F928F93A8
:1036800082E894E0D2CF79DFE6CF682F9091D8021C
:1036900096959695892F8F5F853208F081E09FCFB0
:1036A00081E0F3CF682F9091D80296959695892F57
:1036B000815009F484E293CF81E0F4CF61E08FCFB1
:1036C0008091D80281608093D80280917A0280FF35
:1036D0000DC01F9281E08F938BED93E09F938F93AA
:1036E0000E945D060F900F900F900F908091D8026E
:1036F00086958695E3CF60E072CF80918802811134
:1037000038C080917A0280FF08C085E095E09F93E1
:103710008F930E945D060F900F9088ED92E00E94BB
:10372000E50F8091D802843088F480917A0280FF7E
:1037300008C08CEB94E09F938F930E945D060F90DE
:103740000F90CBDA88ED92E00E94E50FB4DAD4DA7C
:1037500010928A02E091D501F091D60109958091ED
:10376000D80280FF03C086958695C5DF81E08093EF
:10377000880208958091D80281608093D802809158
:103780007A0280FF0DC01F9281E08F9382EA93E05E
:103790009F938F930E945D060F900F900F900F9054
:1037A0008091D80286958695A6CF10928702809147
:1037B00086028111DFDFE1CE8091D8028E7F809377
:1037C000D80288ED92E00E94E70F80917A0280FF94
:1037D0000FC08091D80281701F928F938AE693E088
:1037E0009F938F930E945D060F900F900F900F9004
:1037F000E7DE6ECB80917A0280FF10C08091D80204
:10380000839581701F928F938BE494E09F938F93A5
:103810000E945D060F900F900F900F908091D8023C
:1038200080FF01C0C9CF4CCF8091D8028E7F80939A
:10383000D80280917A0280FF0CC01F921F9280E311
:1038400093E09F938F930E945D060F900F900F90CF
:103850000F90B6DE3DCB80917A0280FF10C0809140
:10386000D802839581701F928F9382E194E09F9399
:103870008F930E945D060F900F900F900F90809194
:10388000D80280FF01C0D0CF75CF9ADE8091870229
:10389000811109C081E0809387028091D8028170F4
:1038A00080938602C1CF08950F931F93CF93DF9328
:1038B00080918A02811509F45CC080918902E091AF
:1038C000D802E695E695E81BE0938202853109F47B
:1038D00071C0D8F4893009F463C058F4823009F417
:1038E0004DC0863009F453C0C0EDD7E009E316E1BE
:1038F0001BC08F30C9F7E695F0E0E550FA4FE49130
:10390000CE2FD0E003E319E10FC0833209F45BC08E
:10391000C4EFD1E00CE81AE1843231F0C8E2D0E023
:1039200009E11AE1883101F780918302811561F084
:10393000109283020E94E929809380029093810271
:1039400010928402109285020E94E929209180023F
:1039500030918102821B930B8F3F9F4750F42C0FB5
:103960003D1F209380023093810280E892E0F801AD
:103970000995DF91CF911F910F910895F0E0EC5FD1
:10398000F94FE491CE2FD0E009EC17E1CDCFF0E074
:10399000EF5FF94FE491CE2FD0E00CED17E1C4CFEB
:1039A000E695F0E0E250FA4FE491CE2FD0E005E04A
:1039B00019E1BACFF0E0E850FA4FE491CE2FD0E011
:1039C00006EA19E1B1CFE6EFF5E0C591D5910BEE2E
:1039D00017E1AACF089568CF08950C942828089578
:1039E0006E9A0895FC01EE0FFF1FE80FF91FE052D9
:1039F000FD4F6183408322830895FF920F931F93AD
:103A0000CF93DF93182F062FF42EC0E0D0E02F2D98
:103A1000402F612FCE01E6DF2196C830D105B9F7DE
:103A2000CDB7DEB7E5E00C949E323EB13F7B2EB1C0
:103A300020644FB7F89480EE92E0FC01019650812B
:103A400068E02EB9000000C057FF3EB9550F0000D6
:103A500000C000C000C03EB900C06A9591F752E0B6
:103A6000883F950751F74FBF8FE594E00197F1F735
:103A700000C0000008950C94D40F089580E00E94C7
:103A8000DA13817008950E94DD148FEF99EF01978A
:103A9000F1F700C000000E94DD14F0DF811519F07D
:103AA000EADF0C94252A0895EECF0895A1E0B0E056
:103AB000ECE5FDE10C9481327C01FC0160817181B7
:103AC000828193818E010F5F1F4F40E050E09D0186
:103AD0009FD1F70180819181A281B3810196A11DBF
:103AE000B11D80839183A283B38389812196E6E00F
:103AF0000C949D3284E00895C7C00895EFC00895E6
:103B00001F93CF93DF93BED0D0E0C0E010C0412F11
:103B10006C2F8D2F0E9466069C01412F6C2F8D2FDC
:103B2000DDD01F5F1F3099F7CF5FC53011F010E077
:103B3000EECFDF5FD43049F7DF91CF911F91089529
:103B40000F931F938A019B0140E050E0BC01CA0122
:103B5000EBD01F910F9108950F931F938A019B0142
:103B600040E050E0BC01CA0117D11F910F910895A8
:103B7000843028F4653018F44F3008F485C080E0B4
:103B800090E0089580E108953ED1CB0108950F9310
:103B90001F938A019B0140E050E0BC01CA0138D16B
:103BA0001F910F9108950F931F938A019B0140E08D
:103BB00050E0BC01CA0172D11F910F91089563D0EA
:103BC0009FC16F927F928F929F92BF92CF92DF920E
:103BD000EF92FF920F931F93CF93DF9300D000D00B
:103BE000CDB7DEB7B82E803118F50DD1615071090F
:103BF000810991097E012FEFE21AF20A870121E083
:103C000030E040E050E004D18981811111C0FBD047
:103C10003B014C01E12CF12C6701B1101BC0C982A2
:103C2000DA82EB82FC8240E0B80186E59DE126D68F
:103C30000F900F900F900F90DF91CF911F910F91E8
:103C4000FF90EF90DF90CF90BF909F908F907F90EC
:103C50006F900895C301D401C816D906EA06FB0681
:103C600039F321E030E040E050E0B601C701D0D0A8
:103C700089819FEFC91AD90AE90AF90A8111EACFA5
:103C8000BA94CBCF089508950F931F93CF93DF93EA
:103C9000843008F56530F8F44F30E8F4C42FD0E0F4
:103CA000CC0FDD1F9EE1699FC00DD11D112496E947
:103CB000899FC00DD11D1124CE0189960E94C63264
:103CC000082FCE018A960E94C632902FDF91CF91A5
:103CD0001F910F91089580E090E0F8CF1F93CF934C
:103CE000DF93122F8430E0F46530D0F44F30C0F40D
:103CF000C42FD0E0CC0FDD1F2EE1629FC00DD11D7F
:103D0000112496E9899FC00DD11D1124632FCE0186
:103D100089960E94E732612FCE018A960E94E7328F
:103D2000DF91CF911F9108958F929F92AF92BF9292
:103D3000CF92DF92EF92FF920F931F936B017C0162
:103D40002C0D3D1D4E1D5F1D49015A01C814D9049B
:103D5000EA04FB0459F41F910F91FF90EF90DF905C
:103D6000CF90BF90AF909F908F90089588E5C81630
:103D700082E0D806E104F10468F4C60189960E9445
:103D8000C632F80181938F018FEFC81AD80AE80A6A
:103D9000F80ADCCF80E0F5CF8F929F92AF92BF926E
:103DA000CF92DF92EF92FF920F931F936B017C01F2
:103DB0002C0D3D1D4E1D5F1D49015A01C814D9042B
:103DC000EA04FB0459F41F910F91FF90EF90DF90EC
:103DD000CF90BF90AF909F908F90089588E5C816C0
:103DE00082E0D806E104F10430F4F8016081C601F4
:103DF00089960E94E7320F5F1F4F8FEFC81AD80ACB
:103E0000E80AF80ADBCF6FE771E080E090E0089500
:103E10004F925F926F927F928F929F92AF92BF92DA
:103E2000EF92FF920F931F93CF93DF934B015C01AF
:103E300029013A01E8017B018FE7E81A8DEFF80AC2
:103E400000E010E0C201D301081719071A061B068B
:103E500078F0DF91CF911F910F91FF90EF90BF907D
:103E6000AF909F908F907F906F905F904F9008954C
:103E7000C401D501800F911FA11DB11D8F37914045
:103E8000A105B10548F4C701800F911F0E94C632F9
:103E900089930F5F1F4FD6CF80E0FACFA0E0B0E04C
:103EA000E4E5FFE10C9479326B017C0149015A0190
:103EB0003801EB01CF57DD4F8D01C401D501081743
:103EC00019071A061B0628F0CDB7DEB7EEE00C94F2
:103ED0009532C601D701800F911FA11DB11D8F37EB
:103EE0009140A105B10548F4F301E00FF11F608195
:103EF000CE01800F911F0E94E7320F5F1F4FDDCF71
:103F0000A0E1B0E0E6E8FFE10C947732FE013196E3
:103F1000DF0180E11D928A95E9F708E110E09FE753
:103F2000492E91E0592E612C712C5201B394A19429
:103F30009E2E8F2E6201730181E1481651046104A7
:103F400071041CF080E1C82ED12CA601B501892D89
:103F5000982D0E94D832AC0CBD1C0D2C000C000812
:103F60004C185D08600870080150104019F7609601
:103F7000E0E10C949332CF93DF93EB0186319C47C1
:103F800019F50E94C00E9D819115A1F08A7A91E0E9
:103F9000811101C090E090938B02811549F085E377
:103FA0000E9485280E944B0F80E0DF91CF910895F9
:103FB00089E2F6CF80918B02811521F085E30E9482
:103FC0008B28F0CF89E2FBCF81E0EFCFCF93DF9357
:103FD000EC01FB018581811509F4CBC09E013057AE
:103FE0002332310508F0ABC082EC92E00E94E10F71
:103FF000FE01E150F047E232F10520F4E25DFC4CB5
:104000000C9458328091C20281608093C20290C0A9
:104010008091C30288608093C3028AC08091C202EB
:104020008260F3CF8091C2028460EFCF8091C202A0
:104030008860EBCF8091C3028160EDCF8091C30295
:104040008260E9CF8091C2028061DFCF8091C2029D
:104050008062DBCF8091C2028064D7CF0E94A80A21
:104060008091C2028068D1CF8091C2028C60CDCF96
:104070008091C3028360CFCF8091C2028E7FC5CF73
:104080008091C302877FC7CF8091C2028D7FBDCF51
:104090008091C2028B7FB9CF8091C202877FB5CF5A
:1040A0008091C3028E7FB7CF8091C3028D7FB3CF43
:1040B0008091C2028F7EA9CF8091C2028F7DA5CF51
:1040C0008091C2028F7BA1CF0E94A80A8091C20278
:1040D0008F779BCF8091C202837F97CF8091C3025D
:1040E0008C7F99CF9091C202892F8B7F92FF846041
:1040F000877F92FF886089CF8091C302982F909527
:1041000090FB80F990FB81F986CF9091C202892FB4
:104110008F7B96FF806479CF0E94A80A9091C2029B
:10412000892F97FB87F9805870CF81E00E94E90FB3
:1041300082EC92E00E94E30F0E94A80A80E0DF91E7
:10414000CF91089580E0F2CF9091C202892F8F7EA7
:1041500094FF80615ACF9091C202892F8E7F90FF89
:10416000816053CF9091C302892F877F93FF88602E
:1041700052CF81E0E4CF382F25EB3203C001112468
:1041800097FF04C080589109892F089580589F4F48
:10419000FBCF8091920280FF0DC060911A0170E008
:1041A000660F771F6038710588F56115710581F11B
:1041B000862F089581FF07C060911A0184E0689FEF
:1041C000B0011124EFCF82FF04C060911A0188E092
:1041D000F6CF909191029115B9F0609119018091FB
:1041E0001A01961728F098E0899FB0011124DACFC0
:1041F000899FC001112423E0880F991F2A95E1F7B8
:1042000070E00E942332CECF68E0D2CF8FE70895CE
:1042100081E008958091920280FF0CC060911601A8
:1042200070E075956795759567956115710541F114
:10423000862F089581FF06C06091160170E0759584
:104240006795F3CF6091160182FD0BC090919002AB
:104250009115A1F06091150180911601961738F023
:10426000682F70E06038710500F38FE70895899F2B
:10427000C001112470E00E942332F4CF61E0D8CF56
:1042800081E00895E82FED5CE33198F5F0E0E05B24
:10429000FC4C0C9458327DDF8195809396020895F2
:1042A00078DFFBCF76DF819580939502089571DFEB
:1042B000FBCFB0DF809397020895ACDF8195FACFF2
:1042C000A9DF8195809398020895A4DFFBCF815DDB
:1042D000990B21E001C0220F8A95EAF780919402A0
:1042E000822B809394020895809192028160809342
:1042F00092020895809192028260F9CF8091920299
:104300008460F5CF409195028D3C59F480919602DE
:1043100087FF0DC010929602411559F41092910238
:1043200008C08E3C81F48091960218169CF34115CA
:1043300081F08091970290919802892B09F056C0E4
:104340001092900208958F3C41F447FFF0CF1092F5
:104350009502809196028115E0CF803D19F41416E4
:10436000B4F3E5CF90919702893D29F41916FCF634
:1043700010929702DCCF8A3D19F497FFD8CFF8CF7F
:10438000909198028B3D29F497FFD1CF109298021B
:10439000CECF8C3D19F41916CCF3C9CF982F915D6F
:1043A000983078F4815D990B21E001C0220F8A9545
:1043B000EAF7822F8095909194028923809394024A
:1043C000B6CF8D3D31F4809192028E7F8093920220
:1043D000AECF8E3D21F4809192028D7FF7CF8F3D3D
:1043E00009F0A5CF809192028B7FF0CF0895A0E0D5
:1043F000B0E0EDEFF1E20C94853280917A0283FF18
:1044000092C084E398E09F938F930E945D06809111
:1044100094021F928F938FE298E09F938F930E9454
:104420005D068DE298E09F938F930E945D068091D8
:104430009502982F990F990B9F938F938AE298E09A
:104440009F938F930E945D0688E298E09F938F93DD
:104450000E945D0680919602982F990F990B9F9369
:104460008F9385E298E09F938F930E945D0683E28D
:1044700098E09F938F930E945D0680919702982FFA
:10448000990F990B9F938F9380E298E09F938F935E
:104490000E945D068EE198E09F938F930E945D06D7
:1044A00080919802982F990F990B9F938F938BE18E
:1044B00098E09F938F930E945D0688E198E09F9318
:1044C0008F930E945D068DB79EB780960FB6F894C5
:1044D0009EBF0FBE8DBF809191021F928F9385E189
:1044E00098E09F938F930E945D0683E198E09F93ED
:1044F0008F930E945D06809192021F928F9380E1BC
:1045000098E09F938F930E945D068DE098E09F93C3
:104510008F930E945D068DB79EB70C960FB6F894E8
:104520009EBF0FBE8DBF55D79C0190919502809183
:104530009602982B21F020938E0230938F02909157
:10454000970280919802982B21F020938C0230934F
:104550008D0283E992E01CD5E2E00C94A132E3E9FC
:10456000F2E086E011928A95E9F71092910210929A
:104570009002109292020895FC01828181110EC076
:10458000838181110BC08481811108C091E08581F4
:10459000811101C090E0892F8170089581E0FCCFE6
:1045A000A6E0B0E0E6EDF2E20C94823286E0E3E9C8
:1045B000F2E09E012F5F3F4FD90101900D928A9545
:1045C000E1F71092950210929602109297021092C3
:1045D00098028B819C81892B022FF32E811581F00B
:1045E00080918E0290918F0285D6AC0190919102BC
:1045F0009115A1F180911B018417150608F43BC0A9
:104600008D819E81892B89F080918C0290918D0201
:1046100071D6AC0190919002911509F45AC0809125
:1046200017018417150608F462C0602F7F2D83E9F7
:1046300092E081D5811104C083E992E09DDF811170
:10464000D6DE86E0E02FFF2DA3E9B2E001900D92C7
:104650008A95E1F72696E5E00C949E3220911C01A4
:104660008AE0289F900111242417350748F69F5FA0
:104670009093910202C09F3FD1F71B81111551F019
:1046800088DD91E011160CF09FEF899F802D112499
:10469000809395021C81111551F07BDD91E011167C
:1046A0000CF09FEF899F802D1124809396028091BA
:1046B0009502811509F4A4CF10919602111509F401
:1046C0009FCF59DD80939502812F55DD809396020F
:1046D00097CF209118018AE0289F90011124241778
:1046E000350708F0A2CF9F5F9093900202C09F3FD2
:1046F000D1F71D81111551F08DDD91E011160CF0EF
:104700009FEF899F802D1124809397028E81182F0F
:10471000811551F07FDD91E011160CF09FEF899F1C
:10472000802D11248093980280919702811509F4BD
:104730007CCF90919802192F911509F476CF1BDD4B
:1047400080939702812F17DD809398026ECFA0E0AF
:10475000B0E0EDEAF3E20C947E32E82FF0E0E95AA3
:10476000F74F9491B92E282F26952695269530E05F
:10477000F901E950F74FE4908770F12C082E02C040
:10478000F594E7940A94E2F7F901E951F74FC490E0
:10479000D12C082E02C0D594C7940A94E2F729526E
:1047A000374FF901049110E002C0159507958A95DD
:1047B000E2F7C62FD0E0E0FC25C0C0FE06C086EEC2
:1047C0000E941508CE01009759F5BE018B2D0E945D
:1047D0008608CE01009761F5C0FC32C0E0FE06C03D
:1047E00081EE0E945808CE010097C1F500FF05C078
:1047F0008CE20E949C082097C9F5CDB7DEB7E9E0AE
:104800000C949A3281EE0E941508CE010097A9F20D
:10481000EFE9FFE03197F1F700C000000197F6CF14
:10482000EFE9FFE03197F1F700C000000197CBCF2F
:10483000EFE9FFE03197F1F700C000000197CACF20
:1048400086EE0E945808CE01009741F2EFE9FFE0A2
:104850003197F1F700C000000197F6CFEFE9FFE0D4
:104860003197F1F700C000000197BECF8FE99FE0BC
:104870000197F1F700C000002197BDCFA0E0B0E0A4
:10488000E4E4F4E20C947E328C017B01B42EC70187
:10489000F80109958130A0F009F058C0C701F8016E
:1048A0000995C82F813089F4C701F80109950E9444
:1048B0009C088B2D90E0009709F040C0C111E7CF14
:1048C000CDB7DEB7E9E00C949A32823031F4C701FB
:1048D000F80109950E941508ECCF833031F4C70127
:1048E000F80109950E945808E4CF843011F7C701F8
:1048F000F8010995C82FC12CD12CDAE08C2F8053F8
:10490000990B8A30910568F0C114D10491F2EFE956
:10491000FFE03197F1F700C0000081E0C81AD1082C
:10492000F3CFDC9D9001DD9D300D1124820F931F8C
:104930006C01C701F8010995C82FE0CFEFE9FFE04E
:104940003197F1F700C000000197B5CF6B2DFFDE66
:104950009ECF0F931F93CF93DF93C42FD22FFC01D1
:1049600085818115C9F040939B0233D580939902CC
:1049700090939A028C2F805E883048F481E0C1FDCC
:1049800084E0C0FD880FC2FD82950E94A308DF91DC
:10499000CF911F910F91089510919B02141333C072
:1049A0008091990290919A02A5D4883C910558F57E
:1049B000CD2FC05E1D17C1F0812F805E883048F476
:1049C00081E011FD84E010FD880F12FD82950E94A8
:1049D000A808C83048F481E0D1FD84E0D0FD880FFC
:1049E000D2FD82950E94A308802F0E949C0881E03E
:1049F000D1FD84E0D0FD880FD2FD8295C83038F615
:104A00000E94A808C4CF8C2F805E883008F0BFCFEA
:104A100081E0C1FD84E0C0FD880FC2FD8295F0CF2A
:104A20000F93FC01CB01E851FC47E730F10588F515
:104A3000ED59FC4C0C94583206E221EE41EE6AE14D
:104A40007CE787DF80E00F91089507E225EE45EED1
:104A50006BE17CE7F6CF06E221EE40EE68E17CE711
:104A6000F0CF07E225EE44EE69E17CE7EACF06E20B
:104A700021EE42EE6CE17CE7E4CF07E225EE46EE64
:104A80006DE17CE7DECF08E221E045EE6EE17CE7F8
:104A9000D8CFFB018581811110929B0281E0D3CF99
:104AA000CF93DF9387372CE7920739F088379C47FD
:104AB000D1F081E0DF91CF910895FB0185818115CF
:104AC00071F019D00E94190B1CD0C82F17D0D82F05
:104AD00012D04C2F6D2F0E94270C80E0EBCF0BD013
:104AE0000E94220BF1CFFB018581811511F006D0C8
:104AF000E9CF04D0F5CF80911F01089580911E0168
:104B0000089580911D010895A3E0B0E0EAE8F5E280
:104B10000C948532AE014F5F5F4FCE010296BC010F
:104B2000019687D18B81863239F48A81803121F4D4
:104B300081E09981943009F080E081702396E2E071
:104B40000C94A132811521F044E060E186E297C126
:104B50004FEF6FEF8FEFFBCF08950895CF92DF9265
:104B6000EF92FF926B017C01F8DFB601C701A6D17D
:104B7000FF90EF90DF90CF9008955AD180E0E2DF70
:104B800080E090E0BC01EADF0E94801D18D881E03F
:104B9000D9CFE2DF8AD1E1DFB7DF811101C0EDCFEC
:104BA00008950C942B1C08959C01FB0185818115AF
:104BB00049F0A90157574038510528F4822F01D8F0
:104BC00080E0089581E008952FEFFC01208308958F
:104BD00080E00895CF93DF93EC0188818330E1F08A
:104BE00038F4813071F0823081F0DF91CF910895F7
:104BF0008430D9F70E945F1789830E9462178A83E5
:104C0000F4CF0E9465178983F0CF0E941517811594
:104C1000D1F30E940C17F7CF0E943717F4CFCF9330
:104C2000DF93EC018881833039F138F4813069F009
:104C30008230B1F0DF91CF9108958430D9F70E948E
:104C40006517482F6A81898108C0D9810E9462173F
:104C5000C82F0E945F174D2F6C2F0E940319EACFB7
:104C60008981811103C00E94141CE4CF0E94BA1BE9
:104C700089810E947B1BDECF89810E945D17DACF7C
:104C8000FC019C012E5F3F4F9081983031F09930AC
:104C900031F0973031F4C901C2CFC9019BCF0C94D8
:104CA00069168FEF80830895FC012181223009F479
:104CB000E7CF8ACF1F93CF93DF93EC01162F88DFC6
:104CC000811110C0E881E150E331C0F4F0E0E65911
:104CD000FC4C0C94583219828DE08A83612FCE01EE
:104CE0000E94ED1CDF91CF911F910895898183303F
:104CF000E1F038F4813079F08230A9F08FEF8883C9
:104D0000EDCF8430E9F08630C9F71A821B821C820D
:104D100089E08D83E3CF69D30E945E326A837B830F
:104D20008C839D83DBCFC1D0F7CF8A8190E0FE01D9
:104D3000853091059CF63296118212820196F8CF49
:104D40001A821B821C821D82C9CF8981823029F080
:104D50008530A1F68A8125DFC1CF6A817B818C8174
:104D60009D810E945E32FADEB9CF4B816A818981D2
:104D70000E947C1D9827892798278C839D83AECF1E
:104D80002C813D813227232732274B816A818981FB
:104D90000E947E1DA3CF0E94801DA0CF612FCE0157
:104DA00083DF9CCF0E94C21D898398CF0E94C41DBF
:104DB00098278927982789839A8390CF6B8170E001
:104DC00089819A81982789279827AE014C5F5F4F88
:104DD0000E94C71D83CF6B8170E089819A819827DB
:104DE00089279827AE014C5F5F4F0E94D31D76CF75
:104DF0000E94DF1D73CF0E947A1DD6CF6B8170E0B9
:104E000089819A81982789279827AE014C5F5F4F47
:104E10000E94A01D63CF6B8170E089819A819827E1
:104E200089279827AE014C5F5F4F0E94AC1D56CF7B
:104E30000895EF92FF920F931F93CF93DF937C011E
:104E40008B01EA01892B31F085E290E00E94C632A5
:104E5000F70180830115110531F086E290E00E9490
:104E6000C632F8018083209729F087E290E00E9403
:104E7000C6328883CDB7DEB7E6E00C949D32CF937F
:104E8000DF93C62FD42F682F85E290E00E94E7328F
:104E90006C2F86E290E00E94E7326D2F87E290E06F
:104EA0000E94E732DF91CF91089588E290E00E945E
:104EB000C632682F70E080E090E0089588E290E0CC
:104EC0000C94E7328093A0029093A1020895089574
:104ED0000895E091A002F091A102309739F001907D
:104EE000F081E02D309711F00995089580E0089544
:104EF000EF92FF920F931F93CF93DF93EC01E0911A
:104F0000A002F091A1023097F1F10280F381E02D2F
:104F10003097C9F1099580917A0282FF34C080FFF1
:104F20000DC088811F928F938FE099E09F938F939C
:104F30000E945D060F900F900F900F907E0186E00B
:104F4000E80EF11C09E019E080917A0280FF0BC0A5
:104F50008A811F928F931F930F930E945D060F907B
:104F60000F900F900F902196CE15DF0569F7809175
:104F70007A0280FF08C087E099E09F938F930E9498
:104F80005D060F900F90CDB7DEB7E6E00C949D3232
:104F9000E091A002F091A102309759F0268137816B
:104FA000232B39F022E0DC012C930680F781E02DE1
:104FB00009950895A3E0B0E0E0EEF7E20C948532A5
:104FC00020919E0230919F0228173907B1F08093FB
:104FD0009E0290939F02E091A002F091A10230976F
:104FE00061F00084F185E02D309739F023E02983CA
:104FF0008A839B83CE01019609952396E2E00C9467
:10500000A132A3E0B0E0E7E0F8E20C948532209111
:105010009C0230919D0228173907B1F080939C02C1
:1050200090939D02E091A002F091A102309761F06F
:105030000084F185E02D309739F024E029838A83BC
:105040009B83CE01019609952396E2E00C94A13250
:10505000E091A002F091A102309731F00284F38533
:10506000E02D309709F00995089540910001509185
:1050700001019A012E5F3F4F485F5F4F80E0F901C9
:1050800090812F5F3F4F91118F5F42175307B9F700
:105090000895811591F02091000130910101F901ED
:1050A0003296285F3F4F9081981731F03196E21782
:1050B000F307C9F780E0089581E008959C01FC01A1
:1050C000329680E09FEF4081461759F031969F3F1E
:1050D00019F4411101C0982F8F5F8630A1F79F3FCF
:1050E00009F40895290F311D97FD3A95F90162835E
:1050F0000895FC01329608962191261302C0DF0123
:105100001E92E817F907C1F70895682F80910001F2
:1051100090910101D3CF682F8091000190910101FE
:10512000E8CFE0910001F0910101329686E0119202
:105130008A95E9F70895DC01FB0111969C9111977E
:105140008181981322C012968C911297811519F0C3
:10515000928189131AC013968C911397811519F0B7
:105160009381891312C015968C911597811519F0AA
:10517000958189130AC014969C91911521F081E0C4
:105180002481291303C080E001C081E0817008956B
:105190000895FECF08958F5F8093230160912001D1
:1051A000709121018091220190912301F2CF83E03F
:1051B000809323016091200170912101809122014F
:1051C00090912301E6CFE7CF089581E080932301FA
:1051D0006091200170912101809122019091230121
:1051E000D8CFF3CF089591E0811101C090E0909362
:1051F0002201609120017091210180912201909102
:105200002301C7CF809122010895809321016091ED
:105210002001709121018091220190912301B9CF49
:105220008091210108958093200160912001709167
:1052300021018091220190912301ABCF8091200127
:10524000089508950895FECF089508950895F9CF1B
:1052500008950F931F93CF93DF93F7DF0E94DD1420
:10526000F5DF02EA12E0C0E0D0E08C2F0E94DA13F2
:105270009C01F801819331938F0191E0232B09F474
:1052800090E0D92BCF5FC53081F78D2FDF91CF9183
:105290001F910F910895E82FF0E0EE0FFF1FEE55DC
:1052A000FD4F81E090E002C0880F991F6A95E2F7F8
:1052B000BC01808191816823792381E0672B09F407
:1052C00080E00895411115C0E82FF0E0EE0FFF1FB8
:1052D000EE55FD4F81E090E002C0880F991F6A955E
:1052E000E2F78095909520813181822393238083FA
:1052F00091830895CF93DF93EC016BD08C1B9D0BB2
:10530000DF91CF91089585B7806885BF85B78068A4
:1053100085BF08951F921FB61F9211248F939F93EC
:10532000AF93BF938091AC02811113C08091F802BA
:105330009091F902A091FA02B091FB024196A11D51
:10534000B11D8093F8029093F902A093FA02B093F2
:10535000FB02BF91AF919F918F911F901FBE1F9035
:10536000189580910003843031F10E946C071092EF
:10537000AC0288E190E020E40FB6F894A895809301
:1053800060000FBE2093600083B7817F846083BF7D
:1053900083B7816083BF7894889583B78E7F83BFFE
:1053A0000FB6F894A89580916000886180936000A2
:1053B000109260000FBE08950E94A80A0C94720714
:1053C00082E084BD93E095BD9AEF97BD80936E0017
:1053D00008952FB7F8948091F8029091F902A09166
:1053E000FA02B091FB022FBF08952FB7F894609195
:1053F000F8027091F9028091FA029091FB022FBF9E
:10540000089578941F921FB61F9211248F939F9333
:10541000AF93BF938091F8029091F902A091FA02A4
:10542000B091FB020196A11DB11D8093F8029093EB
:10543000F902A093FA02B093FB02BF91AF919F9142
:105440008F911F901FBE1F90189581E08093E00000
:1054500080E28093D8001092C9008FE19EE401970A
:10546000F1F700C00000A7E0B0EBCD018093090385
:1054700090930A03A0930B03B0930C0388E19CE084
:105480000FB6F894A895809360000FBE90936000CB
:10549000FFCF88E19CE00FB6F894A8958093600058
:1054A0000FBE90936000FFCF08959B01BA019091C9
:1054B00000039430D9F48F708093E9009FEF8091BE
:1054C000E80085FD06C085ED8A95F1F70000915052
:1054D000B1F78091E80085FF09C040E050E0C901C4
:1054E000D6D28091E8008E778093E80008956032EC
:1054F00029F440E250E0BC0182E0D7CF089543E0B8
:1055000050E0BC0184E0D1CF46E050E0BC0184E033
:10551000CCCFCF93DF93EC0175DE48E050E0BE01C5
:1055200081E0C3DF88E0FE01A0EBB2E001900D92C4
:105530008A95E1F7DF91CF910895A0E2B0E0E2EA29
:10554000FAE2E3C7809100038430F1F483E08093B2
:10555000E9008091E80082FF17C08091E80090E0A8
:1055600085FF07C040E050E0BD01CE010196DCD2CE
:1055700091E08091E8008B778093E800911521F00D
:1055800060E2CE01019696DBA096E2E0DAC70895CC
:105590008EE499E09F938F930E945D068091FF02B5
:1055A0000F900F90811107C04DD49DD48091E200DF
:1055B00084608093E20008958AE499E09F938F933A
:1055C0000E945D061092FF020F900F90089586E4EE
:1055D00099E09F938F930E945D06F7DD81E003DEE3
:1055E0000F900F900895A0E0B0E0E8EFFAE28DC7C9
:1055F00082E499E09F938F930E945D066091FC0284
:1056000081E0611101C080E0D2DD0F900F90E2E0F7
:1056100098C7A0E0B0E0EEE0FBE277C78EE399E048
:105620009F938F930E945D069091000381E09430D8
:1056300009F080E06091FC02C6DD0F900F90E2E07F
:1056400080C72091AE022F5F822F62E3DCD69115D6
:1056500019F02093AE0208951092AE028091AF022D
:105660008115E9F0809100038430B9F49091E9004C
:105670008091EC009F7080FB882787F9892B95E04B
:105680009093E9009091EB0090FF04C09091EE00A0
:1056900097FD08C08F708093E9001092AF020895C3
:1056A0001092F1009091E80095FDFACF9091E800FA
:1056B00090FFF0CF9091E8009E779093E800EACFBA
:1056C00042E061EC81E03AD342E261EC84E036D31F
:1056D00042E261EC82E032D342E260EC83E02ED31E
:1056E00042E261EC85E02AD39091000381E094309E
:1056F00009F080E06091FC024ECD80910203893078
:1057000081F148F4823009F497C0833009F458C01D
:10571000813041F008958A3009F481C08B3009F45A
:1057200069C0089580910103813A09F048C08091D1
:10573000E800877F8093E80080910503909106033D
:10574000892B59F060E080E090E070E03AD28091DF
:10575000E8008B778093E800089568E080EB92E0A2
:10576000F4CF80910103813251F58091050390912E
:1057700006038D7F892B19F58091E800877F809340
:10578000E8008091E80082FF16C02091F30080912C
:10579000F200922F029731F48091F100813011F0E4
:1057A000863019F48091F10030DD8091E8008B772C
:1057B0008093E800F7C2809100038111E2CF089541
:1057C00080910103813AD9F78091050390910603F6
:1057D000892BA9F78091E800877F8093E80080916A
:1057E000E80080FFFCCF0EDD8093F1008091E8009F
:1057F0008E77DECF80910103813209F78091050316
:1058000090910603892BD9F68091E800877F8093D9
:10581000E800C8D280910303E6DC0C94A80A8091CA
:105820000103813261F68091E800877F8093E80070
:10583000B9D280910403F7CC80910103813A09F039
:10584000BECF8091E800877F8093E8008091E800D8
:1058500080FFFCCFF3DCC8CF9FB7F8941092AF0263
:105860009FBF90910003943009F047C02091E90058
:105870009091EC002F7090FB992797F9922B25E0DF
:105880002093E9002091EB0020FF34C02091EE002E
:1058900027FF30C02091AD02211521F02091E800B2
:1058A00025FF28C01092AD0226E03091E80035FFB8
:1058B00014C08093F1008091E80085FD27C080919D
:1058C000E80080FFFCCF8091E8008E778093E800AD
:1058D0009F709093E90080E0089530910003343088
:1058E00049F43091EB0035FD05C0215041F481E0D1
:1058F0008093AD029F709093E9008FEF0895EFE9D8
:10590000FFE03197F1F700C00000CFCF8FB7F894D8
:1059100021E02093AF028FBFDBCF84B7877F84BFA6
:105920000FB6F894A895809160008861809360001C
:10593000109260000FBE80E890E00FB6F89480935C
:105940006100909361000FBE4CCC7CD2CCD2E2EED1
:10595000F0E0808184608083789427C584E291E0C0
:10596000B1CA80910003853089F480917A0280FF6A
:1059700008C088E299E09F938F930E945D060F9084
:105980000F9080910003853011F016CD0895E9DC69
:1059900060DC8115B1F38091FE02811591F361D035
:1059A0000E94A80AEECF08959A01409107035091F2
:1059B000080300C0492F50E043305105D1F078F47E
:1059C0004130510509F448C04230510571F484E773
:1059D00090E04EE759E0F901408351830895413248
:1059E0005105E9F04232510539F180E090E040E0A4
:1059F000F2CF482F50E0813061F04230510561F024
:105A0000EAE7F9E04115510581F7849190E0AF0193
:105A1000E2CFE2E6F9E0F9CFE2E5F9E0F6CF643073
:105A2000710518F7660F771FFB01E751FE4F4081A4
:105A3000518189E090E0CFCF64307105B0F6FB0171
:105A4000EE0FFF1FEF51FE4F4081518163527E4F99
:105A5000FB01808190E0BFCF82E190E042EF59E00E
:105A6000BACF80E189BD82E189BD09B400FEFDCFD6
:105A70008091D8008F7D8093D8008091E000826073
:105A80008093E0008091E00081FDFCCF0895AF920B
:105A9000BF92CF92DF92FF920F931F93CF93DF932A
:105AA0006C01EB018A019DD1F82E811123C00115F3
:105AB000110539F0F80180819181C81BD90BC80EFE
:105AC000D91EA12CB12C2097A9F08091E80085FD6A
:105AD00021C08091E8008E778093E80001151105C0
