:100000000C94A8050C94E0050C94E0050C94E00514
:100010000C94E0050C94E0050C94E0050C94E005CC
:100020000C94E0050C94E0050C94FD300C94D13157
:100030000C94C42A0C94E0050C94E0050C94E005A3
:100040000C94E0050C94E0050C94E0050C94E0059C
:100050000C94E0050C944B2B0C94E0050C94E005FB
:100060000C94E0050C94E0050C94E0050C94E0057C
:100070000C94E0050C94E0050C94E0050C94E0056C
:100080000C94E0050C94E0050C94E0050C94E0055C
:100090000C94E0050C94E0050C94E0050C94E0054C
:1000A0000C94E0050C94E0050C94E00529001E007A
:1000B0001F0020002100220023002400250026002C
:1000C00027002D002E002A0000002B0014001A002B
:1000D0000800150017001C0018000C001200130087
:1000E0002F0030003100A90039000400160007007D
:1000F00009000A000B000D000E000F003300340051
:1001000028000000AA00E10000001D001B000600FE
:100110001900050011001000360037003800E1001A
:1001200052004C00E000E300E2000000000000008C
:100130002C0000000000E6002152500051004F004A
:10014000000035003A003B003C003D003E003F000F
:10015000400041004200430044004500010000000F
:100160000100010001000100010001000100010087
:100170000100010001000100010001000100010077
:100180000100010001000100010001000100010067
:100190000100010001000100000001000100000059
:1001A0000100010001000100010001000100010047
:1001B00001000100A8000100010001000100010090
:1001C000000000000000010000000000010001002C
:1001D000010001000100000044454255473A2064F7
:1001E000697361626C65642E0A0044454255473A62
:1001F00020656E61626C65642E0A000A002530324B
:1002000058006C65645F7461736B3A20004F6E65D3
:1002100073686F743A206163746976653A20256467
:100220000A000A002530313662003A2000253032BB
:1002300058000A722F632030313233343536373864
:10024000394142434445460A007267626C696768F7
:10025000742074696D65722064697361626C652EC7
:100260000A007267626C696768742074696D6572F0
:1002700020656E61626C65642E0A007267626C694B
:1002800067687420736574207370656564205B4EC5
:100290004F454550524F4D5D3A2025750A00726713
:1002A000626C696768742073657420737065656437
:1002B000205B454550524F4D5D3A2025750A00722E
:1002C00067626C6967687420736574206873762050
:1002D0005B4E4F454550524F4D5D3A2025752C25BC
:1002E000752C25750A007267626C696768742073E3
:1002F000657420687376205B454550524F4D5D3ADA
:100300002025752C25752C25750A007267626C698D
:10031000676874207261696E626F772073657420FC
:100320006873763A2025642C25642C25642C257569
:100330000A007267626C696768742064697361623D
:100340006C65205B4E4F454550524F4D5D3A2072D3
:1003500067626C696768745F636F6E6669672E6554
:100360006E61626C65203D2025750A007267626CC3
:10037000696768742064697361626C65205B4545D8
:1003800050524F4D5D3A207267626C696768745FC6
:10039000636F6E6669672E656E61626C65203D20D5
:1003A00025750A007267626C6967687420656E6102
:1003B000626C65205B4E4F454550524F4D5D3A2073
:1003C0007267626C696768745F636F6E6669672ED7
:1003D000656E61626C65203D2025750A007267625A
:1003E0006C6967687420656E61626C65205B454569
:1003F00050524F4D5D3A207267626C696768745F56
:10040000636F6E6669672E656E61626C65203D2064
:1004100025750A007267626C6967687420746F677B
:10042000676C65205B4E4F454550524F4D5D3A20FD
:100430007267626C696768745F636F6E6669672E66
:10044000656E61626C65203D2025750A00726762E9
:100450006C6967687420746F67676C65205B4545DD
:1004600050524F4D5D3A207267626C696768745FE5
:10047000636F6E6669672E656E61626C65203D20F4
:1004800025750A007267626C69676874206D6F6415
:1004900065205B4E4F454550524F4D5D3A202575C6
:1004A0000A007267626C69676874206D6F6465200A
:1004B0005B454550524F4D5D3A2025750A007267E5
:1004C000626C696768745F696E6974207267626CD8
:1004D000696768745F636F6E6669672E6D6F6465C8
:1004E000203D20302E205772697465206465666156
:1004F000756C742076616C75657320746F2045454A
:1005000050524F4D2E0A007267626C696768745FC3
:10051000696E6974206565636F6E666967206973CB
:10052000206E6F7420656E61626C65642E0A0072C5
:1005300067626C696768745F696E6974207374615F
:100540007274210A007267626C696768745F696E11
:1005500069742063616C6C65642E0A007267626C5A
:10056000696768745F636F6E6669672E737065652F
:1005700064203D2025640A007267626C69676874B4
:100580005F636F6E6669672E76616C203D2025641F
:100590000A007267626C696768745F636F6E666990
:1005A000672E736174203D2025640A007267626CB7
:1005B000696768745F636F6E6669672E687565202A
:1005C0003D2025640A007267686C696768745F6320
:1005D0006F6E6669672E6D6F6465203D2025640A25
:1005E000007267626C696768745F636F6E666967E3
:1005F0002E76656C6F63696B6579203D2025640AF2
:10060000007267626C696768745F636F6E666967C2
:100610002E656E61626C65203D2025640A0072675C
:10062000626C696768745F636F6E666967204545D1
:1006300050524F4D3A0A0000047F3F1F6432146449
:100640003214783C1E1E140A052223252628292A46
:100650002C2D2F3032333536383A3B3D3E40424325
:100660004547494A4C4E5051535557595A5C5E6064
:1006700062646668696B6D6F71737577797B7D7F76
:1006800081838587898A8C8E90929496989A9C9E75
:100690009FA1A3A5A7A8AAACAEAFB1B3B4B6B8B991
:1006A000BBBCBEBFC1C2C3C5C6C7C9CACBCCCDCEF9
:1006B000D0D1D2D2D3D4D5D6D7D7D8D9D9DADADBDC
:1006C000DBDBDCDCDCDCDCDDDDDDDDDCDCDCDCDC68
:1006D000DBDBDBDADAD9D9D8D7D7D6D5D4D3D2D2A7
:1006E000D1D0CECDCCCBCAC9C7C6C5C3C2C1BFBE8F
:1006F000BCBBB9B8B6B4B3B1AFAEACAAA8A7A5A3FA
:10070000A19F9E9C9A98969492908E8C8A898785B8
:1007100083817F7D7B79777573716F6D6B69686697
:100720006462605E5C5A5957555351504E4C4A4969
:1007300047454342403E3D3B3A3836353332302F11
:100740002D2C2A292826252322FFAA7F5540000187
:100750000101010101010101020202020202020281
:100760000203030303030303030404040404040453
:100770000505050505060606060607070707070817
:10078000080808090909090A0A0A0B0B0B0C0C0CCA
:100790000D0D0D0E0E0E0F0F0F1010111111121264
:1007A00013131414151516161717181819191A1AE1
:1007B0001B1B1C1D1D1E1E1F202021222223242442
:1007C000252626272829292A2B2C2D2D2E2F30317E
:1007D0003232333435363738393A3B3C3D3E3F4090
:1007E0004142434445464748494A4C4D4E4F50517B
:1007F0005354555658595A5B5D5E5F616264656635
:1008000068696B6C6D6F7072737577787A7B7D7EBB
:100810008082838587888A8C8E8F91939596989A0B
:100820009C9EA0A2A3A5A7A9ABADAFB1B3B5B7BA23
:10083000BCBEC0C2C4C6C9CBCDCFD1D4D6D8DBDDF7
:10084000DFE2E4E7E9EBEEF0F3F5F8FAFDFF290A61
:10085000002575002F002575005D28002564002007
:1008600000256400200025640020002564007C0031
:1008700025303258006D6F7573656B6579205B624A
:10088000746E7C782079207620685D287265702FE0
:1008900061636C293A205B0000000000000000004A
:1008A0002A2B2800000000000000000000000000CB
:1008B00000000029000000002C1E342021222434D6
:1008C0002627252E362D3738271E1F2021222324A8
:1008D00025263333362E37381F0405060708090A44
:1008E0000B0C0D0E0F101112131415161718191AE0
:1008F0001B1C1D2F3130232D350405060708090A5E
:100900000B0C0D0E0F101112131415161718191ABF
:100910001B1C1D2F3130354C000000000000000072
:1009200000000000000000000000000000000000C7
:100930000000000000000000000000007E0F00D456
:10094000FFFFFFC7000000780A0025303258200062
:100950006B6579626F6172645F7265706F72743A11
:100960002025303258207C200073757370656E64CA
:10097000696E67206B6579626F6172640D0A005B56
:10098000575D005B535D005B525D005B445D005B47
:10099000435D000E03460075006A006900360035AD
:1009A000000000160343004D004D002E005300745C
:1009B000007500640069006F000000040309040969
:1009C000027B00040100A0FA0904000001030101F8
:1009D00000092111010001224400070581030800DC
:1009E00001090401000203000000092111010001B6
:1009F00022220007058203200001070503032000CF
:100A00000109040200010300000009211101000195
:100A1000227B000705840320000109040300020370
:100A200000000009211101000122220007058503B1
:100A3000200001070505032000011201000200004B
:100A400000084D434D360100010200010631FF0947
:100A500074A1010975150026FF0095207508810213
:100A60000976150026FF00952075089102C00660E2
:100A7000FF0961A1010962150026FF009520750894
:100A800081020963150026FF00952075089102C0B8
:100A900005010902A10185020901A1000509190149
:100AA0002908150025019508750181020501093005
:100AB00009311581257F9502750881060938158150
:100AC000257F950175088106050C0A3802158125D8
:100AD0007F950175088106C0C005010980A10185C7
:100AE0000319012AB700150126B700950175108179
:100AF00000C0050C0901A101850419012AA00215F5
:100B00000126A002950175108100C005010906A10A
:100B100001050719E029E7150025019508750181F0
:100B2000029501750881010507190029FF150026A6
:100B3000FF009506750881000508190129051500B3
:100B40002501950575019102950175039101C0007C
:100B500011241FBECFEFDAE0DEBFCDBF04B603FE27
:100B600018C08091FB029091FC02A091FD02B0910F
:100B7000FE028730904BA740B04B59F41092FB0215
:100B80001092FC021092FD021092FE02E0E0F8E3E7
:100B9000099511E0A0E0B1E0E8EBFAE602C00590AB
:100BA0000D92AA3EB107D9F722E0AAEEB1E001C04A
:100BB0001D92AB3FB207E1F70E9474160C94F33418
:100BC0000C940000FF93EF93E091EA01F091EB01A8
:100BD000309709F00995EF91FF910895FC018591F7
:100BE000803011F0EFDFFBCF0895FF27E0E230E225
:100BF00047FF0CC0419597FF09C0EDE260957095E5
:100C000080959095611D711D811D911D27FF02C06A
:100C1000219530E350E2AA27660F771F881F991F9E
:100C2000AA1FA41710F0A41B63955A95A9F7AA3020
:100C300008F0A95FA05DAF93F3956115710581057B
:100C4000910541F7ED3211F4EF93F395F21718F493
:100C50003F93F395FBCF8F91B5DFFA95E1F70895B8
:100C6000E991F9918591803021F0853219F0AADF60
:100C7000F9CF089520E0E89455915532C1F35033EF
:100C800011F4689455915A3348F4505390F3220F5D
:100C9000022E220F220F200D250FF4CF0EF42195E6
:100CA00089919991533619F3533729F1533559F1F5
:100CB000BC0188279927E8945C3621F489919991A1
:100CC00068945591543639F446EF7EF077FF0DC0A5
:100CD0008FEF9FEF0AC055374AE039F0583540E1B1
:100CE00021F0523642E009F00895FF93EF937DDF43
:100CF000EF91FF91B7CFFF93EF93FC01819180308B
:100D0000B9F360DFFBCFFF93EF9368DFF1CFDF93A1
:100D1000CF93CDB7DEB72596A3DFCF91DF910895AE
:100D20008230B8F46530A8F44F3098F450E09FE07A
:100D3000699F400D511D1124FA019BE4899FE00D2C
:100D4000F11D1124EE0FFF1FE455FF4F8591949183
:100D5000089581E090E0089581E008950E94AC0636
:100D6000089581E008950E94AC0608950E94B3069C
:100D7000089508950E94B9060895A6E0B0E0E3EC56
:100D8000F6E00C941A3449835A839E833091F10122
:100D900089819A8131111AC03E81332399F022232F
:100DA00089F00E949A0C182F682F89819A810E94DD
:100DB000760C69817A81812F0E94A2132696E3E046
:100DC0000C9436340E94880C182FF3CF0E949A0C92
:100DD00069817A81F1CFFC01262F408151816281A6
:100DE0007381848195810E94BD060895CF93DF931E
:100DF000EC0161E00E94EB06BE010E94AE06DF91AD
:100E0000CF910895CF93DF93EC0160E00E94EB0651
:100E1000BE010E94BA06DF91CF91089581E0089546
:100E20000E940E070895CF93C82F0E94720B8C2F3B
:100E30000E9410072FEF84E39CE0215080409040F7
:100E4000E1F700C00000CF91089581E00E941307F0
:100E50000E946F2B089580E00E9413070E94932B3D
:100E600008950F931F93CF93DF938C0161E00E944D
:100E7000EB06EC01F801858181110E942D1FB8015C
:100E8000CE010E94C127811106C080E0DF91CF9181
:100E90001F910F910895B801CE010E94B6068823D4
:100EA000A1F3B801CE010E94CC26882371F3B801CA
:100EB000CE010E94B121882341F3B801CE010E94E6
:100EC0008721882311F3B801CE010E944C1F88238B
:100ED000E1F2B801CE010E9410278823B1F2F80197
:100EE0008581882369F0C330FCE7DF0781F160F476
:100EF000C130ECE7DE0769F1C0F4C115DC4791F0C1
:100F0000C8010E94B106C2CFCB35ECE7DE0739F14C
:100F1000CC35FCE7DF0701F1CA35DC4789F70E94D1
:100F2000E610EECF0E942507B0CF90917C02892F6A
:100F30008E7F90FF816080937C0280FF05C08AEEE7
:100F400091E00E94EE05A1CF88ED91E0FACF0E94DA
:100F5000EE100E942B0799CF0E94DC10D1CF0E9487
:100F6000EA10CECF0E94A02A0E9402080E948D1E85
:100F700008950E9406080E94001E0E94A52A089556
:100F8000829590E09C01220F331F220F331F2C7C8F
:100F900095958795959587958373282B30E0C901A2
:100FA000880F991F8A7A359527952575822B089584
:100FB000CF93DF93D92F0E94C007C82F8D2F0E9497
:100FC000C0079C2FDF91CF910895089581E0089587
:100FD0000895CF93DF93D82F0E94E607C82F882368
:100FE00019F08D2F0E94E8078C2FDF91CF91089583
:100FF0000895CF93C82F0E94E5078C2F0E94E90720
:10100000CF91089580E00E94F90708950E94372942
:101010000E94F9070895CF930E943729C82F809125
:10102000EC018C1789F1C093EC010E94302B609386
:10103000ED017093EE018093EF019093F0018091A8
:101040007C0282FF1EC080FF1CC082E092E00E94F2
:10105000EE0580917C0280FF14C01F92CF938DEF2C
:1010600091E09F938F930E94870680917C020F905E
:101070000F900F900F9080FF04C08BEF91E00E94C3
:10108000EE058C2F0E94F907CF910895ADE0B0E0F6
:10109000ECE4F8E00C941B34488759876A877B8717
:1010A0008C879D8791110E9409101F8286E0FE01A6
:1010B0003896DE01119601900D928A95E1F78D81A7
:1010C00081110DC029813A814B815C816D817E81C6
:1010D0008F810E94530F2D96E2E00C943734CE019D
:1010E00001960E94F6068111EDCFF5CFFC01248117
:1010F000213021F4808191810E94C70C08956623DC
:1011000029F00E9412230E94F72308950E947E2353
:10111000FACFCF93C82F882399F08CEF8C0F813AA8
:1011200088F48C2F0E94FB29882329F08C2F0E94A1
:101130003E2A0E9478108C2F0E94362A0E94781036
:10114000CF91089580E28C0F883048F4C77081E019
:1011500001C0880FCA95EAF70E94EC0FEFCFEBE5CC
:10116000EC0FE33040F4F0E0EF59FE4F808190E067
:101170000E949C29E5CFE8E5EC0FEB3150F4F0E05C
:10118000EE0FFF1FE55DFE4F808191810E94C12916
:10119000D7CF83E38C0F833198F661E08C2F0E94C8
:1011A0007F08CECF882381F19CEF980F913A28F4E5
:1011B0000E943E2A0E947810089590E2980F98307D
:1011C00050F4877091E001C0990F8A95EAF7892F52
:1011D0000E94F20FEFCF9BE5980F933028F490E038
:1011E00080E00E949C29089598E5980F9B3128F48F
:1011F00090E080E00E94C129089593E3980F933115
:1012000018F460E00E947F0808951F93CF93DF9346
:10121000182FEB010E948908209739F4812F0E9432
:10122000D208DF91CF911F9108958FE99FE0019738
:10123000F1F700C000002197EFCF70E060E0893344
:1012400011F460E570E00E9405090895882321F0FB
:101250000E94EC0F0E9478100895882321F00E94CC
:10126000F20F0E9478100895B0E0A0E0EAE3F9E000
:101270000C9414346C01D62FC72FFC011581068104
:1012800002950F700E94E20FE82E8823F9F0E12EFC
:101290001123E1F08C2F807F803461F080E28D0F8C
:1012A000883008F18C2F807E803221F4D230D8F043
:1012B0000023C9F08091B50282FF15C082E00E9430
:1012C0009D100E94E20F91E0E82EE926BC2EB29418
:1012D0009FE0B922FBE0FB15B8F1EB2DF0E0EB50FD
:1012E000FB4C0C94CD33E12CF1CF0C2F0F70C07F51
:1012F00011F00295007F112399F0002359F080E24C
:101300008D0F883010F0D11107C0802F0E94EC0F94
:101310000E9478108D2F5AC0802F0E94FC0FF8CFAA
:101320008D2F0E94D208002379F080E28D0F883043
:1013300010F0D11104C0802F0E94F20F03C0802F43
:101340000E9402100E947810EB2DE850FF0B34979A
:1013500020F40E9437290E94F907EE2089F00E94AC
:10136000DE0F80FD0DC0F60115820E94D80F0E948D
:10137000EA0BC6010E94390B0E94D80F0E94F60B9F
:10138000CDB7DEB7E9E00C9430342C2F2F70F22E5D
:10139000C07FC03219F0F29480EFF822DD2341F0D3
:1013A000D130D1F1112309F444C00023F1F0B2CFC0
:1013B0008091B50282FD15C0112359F0FF2029F05C
:1013C0008F2D0E94EC0F0E94781080E00E94890807
:1013D000BBCF80E00E94D208FF2009F4B5CF8F2D4B
:1013E000ABCF112369F0011104C08F2D0E94260993
:1013F000ABCF013009F0A8CF8F2D0E942010A4CFD1
:101400000111A2CF8F2D0E942D098F2D0E942C102B
:101410008F2D0E94101098CF112321F0063008F074
:1014200093CFE3CF053008F08FCF8F2D0E942D0989
:101430008BCF0023D1F3D93349F43FEF87EE93E00C
:10144000315080409040E1F700C000008D2F0E9495
:10145000D2087ACF8C2F86958695837069F081307B
:1014600009F072CF8D2F9C2F9370111102C080E074
:1014700090E00E94C12968CF8D2F9C2F937011118D
:1014800002C080E090E00E949C295ECF612F8D2FEA
:101490000E947F0859CF8C2F837079F5111154CF9A
:1014A0004D2F429546954770440F440F8D2F8F70F6
:1014B000042E01C0880F0A94EAF72D2F2071D4FF63
:1014C00007C02FE030E001C0220F4A95EAF72095CF
:1014D000C695C695C370822BC23049F058F4C1300E
:1014E00019F00E94C60B30CF0E94C00B2DCF0E9476
:1014F000CC0B2ACF0E94BD0B27CF8695112311F06C
:101500008C2F8170882309F41FCF4D2F429546956B
:101510004770440F440F8D2F8F70042E01C0880F29
:101520000A94EAF72D2F2071D4FF07C02FE030E096
:1015300001C0220F4A95EAF72095C695C695C3705B
:10154000822BC23049F058F4C13019F00E94150CBA
:10155000FBCE0E940F0CF8CE0E941B0CF5CE0E9411
:10156000D80BF2CECF70112329F08C2F0E94EA0BFA
:101570008D2F3CCF8D2F0E942D098C2F0E94F60BB2
:10158000E3CED23F41F160F4D03FB9F0D13F81F0DA
:10159000112309F446C00111BDCE8C2F8F711FC0DD
:1015A000D33F01F1D43FA1F78091B50282FD24C061
:1015B0008C2F8F71112311F312C0112341F00530CC
:1015C00008F0C2CE8C2F8F710E94030CBDCE063066
:1015D00008F0BACEF7CF8C2F8F711111CFCF0E94A8
:1015E000EA0BB2CE112329F08C2F8F710E94E10BF0
:1015F000ABCE0E94DD0BA8CE112349F0CF718C2F0A
:101600000E94EA0B63E08C2F0E947F109DCE81E048
:101610000E949D10023008F497CE82E00E949D1037
:1016200093CE002359F0D93309F010CFEFEFF7EE46
:1016300023E0E150F0402040E1F706CF8C2F8F717E
:101640009DCF0F931F93CF93DF93EC016881798136
:101650008D810E94D20C8C010E94210C0E94BC0B37
:10166000B801CE010E943409DF91CF911F910F91F3
:101670000895CF93DF93EC018C81882399F0CE01FC
:101680000E943107811111C00E94E20F882351F09E
:101690008D81882339F08091B50282FF03C082E0FA
:1016A0000E949D10DF91CF910895CE010E94210BE1
:1016B000CE010E940207F6CF90E080E00E949C29B4
:1016C00090E080E00E94C1290E9409100E947810D9
:1016D0000E9495240E94F72308950E94462A0E94A2
:1016E0005C0B08950E94F90F0E946D0B089592956E
:1016F0009F70963091F058F4925F9F70923058F43A
:10170000803F19F030F4883E30F481E008959A5F0C
:10171000F4CF843FD1F380E00895883EB0F3813F59
:10172000D1F7F3CFFC012481222339F0808191810C
:101730000E94C70C0E94770B089580E00895A6E0F0
:10174000B0E0E5EAFBE00C941B342696E2E00C9452
:101750003734A7E0B0E0EFEAFBE00C941B342796A7
:10176000E2E00C94373408950E94B30B08950E9470
:10177000B40B80931102089508950E94B70B089549
:1017800090911102892B0E94B70B0895909111023C
:1017900089230E94B70B08959091110289270E9416
:1017A000B70B08950E94B30B08950E94D20B0895C1
:1017B0000E94D50B80931002089580E00E94D80B00
:1017C000089591E001C0990F8A95EAF7892F0E9448
:1017D000D80B089521E030E001C0220F8A95EAF786
:1017E00080911002822B0E94D80B089521E030E0F6
:1017F00001C0220F8A95EAF720958091100282237A
:101800000E94D80B089521E030E001C0220F8A9594
:10181000EAF78091100282270E94D80B08959091D8
:101820001002892B0E94D80B0895909110028923F1
:101830000E94D80B08959091100289270E94D80B1E
:1018400008950895262F277091E001C0990F2A95D9
:10185000EAF723E0769567952A95E1F7FB01EE0F0D
:10186000FF1FE60FF71FE40FF51F50E040E0682F61
:1018700070E08191DF0111979B01042E02C0369523
:1018800027950A94E2F721702195282729232827F4
:101890002C934F5F5F4F4330510559F70895A82FA0
:1018A000A77023E0969587952A95E1F7FC01EE0F46
:1018B000FF1FE80FF91FE60FF71F50E040E080E040
:1018C000219130E00A2E02C0369527950A94E2F75E
:1018D00021703327042E01C0220F0A94EAF7822BCD
:1018E0004F5F5F4F4330510559F70895262F9530CC
:1018F00070F48F3060F4682F70E08FE0989F600D77
:10190000711D112442EF51E0822F0E94220C089594
:10191000292F953068F48F3058F490E062EF71E031
:101920003FE0239F800D911D11240E944F0C0895CC
:1019300080E00895CF92DF92FF920F931F93CF9391
:10194000DF936C010091100280911102082BC3E01B
:10195000D0E010E0FC2EC8010C2E02C095958795B2
:101960000A94E2F780FD0CC02197A0F7F12C8F2D8F
:10197000DF91CF911F910F91FF90DF90CF9008954D
:10198000B6018C2F0E94AE13019771F3F0CFCF9365
:10199000DF93EC010E949A0CBE010E94AE13DF910E
:1019A000CF9108951F93CF93DF93EB019091F101B5
:1019B000992339F0CB010E94C70CDF91CF911F9181
:1019C0000895882369F0CB010E949A0C182F682F84
:1019D000CE010E94760CBE01812F0E94AE13EDCF86
:1019E000CB010E94880C182FF6CFE1E0F0E0DF0178
:1019F00002C0AA0FBB1F6A95E2F7BD01DF0102C05A
:101A0000AA0FBB1F4A95E2F76A2B01C0EE0F2A9579
:101A1000EAF7962F9823961302C08E2B0895E0952F
:101A20008E230895242F462F682F809110020E9444
:101A3000F50C0E94D80B08951F93CF93DF93C091AC
:101A4000120217E0809113028C1304C0DF91CF9132
:101A50001F910895D0E01C9FF0011D9FF00D1124EF
:101A6000EC5EFD4F2081318142815381648175811B
:101A700086810E94A90B2196C770E4CF20914C0269
:101A800030914D0240914E0250914F0260915002B0
:101A900070915102809152020E94A90B0895CF9338
:101AA000DF9380915202807F09F04DC080915102F6
:101AB000882309F448C0E091120250911302C091AA
:101AC0004D02D0914C0260914E0270914F0247E05E
:101AD0005E17C9F18E2F90E0E49FF0011124EC5EB7
:101AE000FD4F2481222391F1489FF001499FF00D81
:101AF0001124DF01AC5EBD4F11962C9111972C1370
:101B000025C02C912D1322C015962C9115972111CB
:101B10001DC012962D913C91261B370B283C310598
:101B2000A8F4809152028F70806180935202E65E29
:101B3000FD4F80818F70806180838CE492E00E94F1
:101B4000390B0E941C0DDF91CF910895FC01319655
:101B5000E770BECF482F209112029091130257E0F8
:101B6000291302C080E0089530E0529FF001539F96
:101B7000F00D1124EC5EFD4F8181681306C0808159
:101B8000481303C085818111EECF2F5F3F4F27702F
:101B9000E7CFA4E1B0E0EFECFDE00C9411348C0150
:101BA00086E0F801DE011F9601900D928A95E1F71B
:101BB000F8018481E5809CE4A92E92E0B92E9091F1
:101BC000500291111FC08823D1F0EE20A9F0C80166
:101BD0000E94920BF82E882379F087E0F801D50156
:101BE00001900D928A95E1F7C5010E9476080E9446
:101BF0004F0D0E943E0D5FC0C8010E94390BFF24AB
:101C0000F39459C0C080D18082809380F0905102BB
:101C100020914E0230914F02A401421B530BFF2032
:101C200009F4F9C0483C510508F0A7C0882309F41D
:101C300042C090914D0280915202282F207F09F0DE
:101C40005CC09D1116C090914C02C91212C0E110E7
:101C50004EC08F708061809352020E943E0D8CE4D2
:101C600092E00E94390B80915202F8018683F12C98
:101C700022C0E1103CC06D2D8C2D0E94AA0D6D2D4F
:101C80008C2D0E94AA0DE82E8111F1CFCF86D88A23
:101C90008F8598890E94C70C292F22952F70243098
:101CA00078F49F702230A8F09923B9F0F80196815A
:101CB000907F99F4FE2C8F2D6496ECE00C942D34DB
:101CC0002A5F2F70223068F0C8010E94390BEF2C78
:101CD000F1CF992311F0882369F3805E883050F3A7
:101CE000F3CF803F38F3815F833070F7E3CF80918B
:101CF0005202816080935202BACF9D1113C090911D
:101D00004C02C9120FC0E1100DC08683C8010E94A9
:101D1000390B87E0F801ACE4B2E001900D928A95AE
:101D2000E1F767CFC8010E94920B882309F464CFC2
:101D3000EE2009F461CF80915202803288F0209128
:101D40004C0230914D02398728879B868A86909174
:101D500050029C871D868E87CE0108960E94390B03
:101D600087E0F801ACE4B2E001900D928A95E1F7CA
:101D70000E944F0D0E943E0D42CF90915202292F9A
:101D8000207FA1F4682D9A8A898AA6017A899E2DDE
:101D90000E949F0B8CE492E00E94390B87E0F501D2
:101DA00011928A95E9F70E943E0D61CF882309F4CC
:101DB00082CF80914D028D1110C080914C02C812CB
:101DC0000CC0E1100AC09683C8010E94390B87E05D
:101DD000F50111928A95E9F76ECFC8010E94920B26
:101DE000882309F409CFEE2009F406CF809152022E
:101DF000803208F4B5CF20914C0230914D023A83E5
:101E000029839C828B82909150029D831E828F83B6
:101E1000CE010196A3CF483C5105B8F5882309F4BB
:101E2000EECEFE2CEE2009F4E7CE80914D028D110E
:101E30001EC080914C02C8121AC08091520280FDCF
:101E40000DC0982F907F51F08683903F09F45ECFAC
:101E5000982F907F905F8F70892B57CF87E0F80184
:101E6000ACE4B2E001900D928A95E1F724CFC8016D
:101E70000E94920B811174CF8091520281608093F5
:101E80005202C8010E94390B16CF682D9A8A898A9E
:101E9000A6017A899E2D0E949F0B87E0F501119281
:101EA0008A95E9F7A6CEAEE0B0E0E9E5FFE00C9454
:101EB0001A34288739874A875B876C877D878E87A6
:101EC000CE0108960E94C90D8823B1F06C85662367
:101ED00041F0288539854A855B857D858E850E9400
:101EE000A90B17E0809112029091130289133DC053
:101EF0002E96E3E00C94363487E0FE013896DE013E
:101F0000119601900D928A95E1F78C85882349F30B
:101F10002091130230E0C901019687709927409102
:101F200012024817190699F097E0929FD001939FEB
:101F3000B00D1124AC5EBD4FFE01319601900D92A3
:101F40009A95E1F7809313020E941C0DCACF0E945C
:101F5000720B109213021092120287E0ECE4F2E08E
:101F6000DF011D928A95E9F7BCCF819FC001112442
:101F70008C5E9D4F0E94C90D882309F4B9CFE09172
:101F800012021E9FF0011124EC5EFD4F2081318171
:101F9000428153816481758186810E94A90B809161
:101FA000120290E0019687709927809312029ACFCF
:101FB00080915B02869586958695089580915B0257
:101FC0008770089590915B02977081E009F480E03A
:101FD000089580916702089590916702892B8093FC
:101FE0006702089580959091670298239093670205
:101FF000089510926702089590916602892B80934C
:1020000066020895809590916602982390936602E7
:10201000089510926602089508950E940C10089584
:1020200090915C02292F282331F080958923809399
:102030005C020E940D10089508950E941C100895DE
:1020400090915D02292F2823281729F0982B90932F
:102050005D020E941D10089590915D02292F282392
:1020600031F08095892380935D020E941D100895B0
:1020700080915D02882329F010925D0280E00E9429
:102080001D1008950F931F93CF93DF9300910001CC
:1020900010910101C091670280916602C82B809166
:1020A0005D02882331F0C82B0E94E62981110E942D
:1020B0003810F801C083C0910001D091010148E0BF
:1020C00050E063E572E0CE010E948534892B59F01F
:1020D00088E0FE01A3E5B2E001900D928A95E1F758
:1020E000CE010E944429DF91CF911F910F91089555
:1020F0000E944210089508950E947B1008959091C7
:10210000B50292FF11C098E0899F90011124622BC3
:1021100060935B020E94EA0B80915B028695869534
:1021200086950E947C1008950E94EA0B08951092F3
:102130005B0280E00E947C10089590915B02809584
:10214000892380935B02282F277069F4891759F03F
:102150009091B50292FF07C08695869586950E945C
:10216000F60B0E9497100895CF93C82F8091B50267
:1021700082FB992790F99C17E9F0C0FB82F98093C4
:10218000B5028091B4029091B5020E94101182E0D4
:102190000E949D1080917C0280FF0CC01F92CF9303
:1021A0008DE092E09F938F930E9487060F900F908F
:1021B0000F900F90CF9108958091B50282FB8827F0
:1021C00080F991E089270E94B410089581E00E946F
:1021D000B410089580E00E94B41008956FEF7FEF6F
:1021E00090E080E00E94DD34089590E080E00E945D
:1021F000A934863E9E4F19F40E945927089580E025
:10220000089582E090E00E949B34089583E090E07E
:102210000E949B34089584E090E00E94A9340895C0
:10222000BC0184E090E00E94DD340895AB01BC0164
:102230008FE090E00E94D1340895AB01BC0183E1AE
:1022400090E00E94D134089560E070E0CB010E94DC
:102250001D11089560E070E0CB010E9416110E94EC
:1022600024110895A8E0B0E0E8E3F1E10C941B34F8
:1022700066EE7EEF90E080E00E94DD3460E082E078
:1022800090E00E94BF3481E08093110261E083E01E
:1022900090E00E94BF3460E074E184E090E00E942E
:1022A000DD3460E086E090E00E94BF346FEF87E0AD
:1022B00090E00E94BF3440E050E0BA0188E090E036
:1022C0000E94D13460E084E290E00E94BF3460E07C
:1022D00087E190E00E94BF3460E08CE090E00E94D3
:1022E000BF3460E08DE090E00E94BF3419821A8212
:1022F0001B821C821D821E821F82188648E050E0CD
:1023000068E170E0CE0101960E94AF3440E050E0F9
:10231000BA0180E290E00E94D13480E00E947227EE
:102320000E94A1270E942A112896E2E00C943734DB
:102330000E9432110895682F8EE090E00E94BF3411
:102340000895A6E0B0E0E7EAF1E10C9419340E94A8
:10235000242B8C018091680290916902801791076B
:1023600081F019821A820E94242B682F49815A8198
:10237000792F80E090E00E94460810936902009354
:1023800068022696E4E00C9435340E94302B60936A
:1023900078027093790280937A0290937B02609323
:1023A0007402709375028093760290937702089579
:1023B000089508950E94D811089508950E94DD118E
:1023C00008958EE49DE20E9481160E94D9110E9418
:1023D000DA11089581E008950E94EA1108950E949B
:1023E000EA110895089508950E94F2110E94F311D0
:1023F00008950E94C1140E94F80708950E941B2BA3
:102400000E94B1270E94D9150E94F9110E946D1DEA
:102410000E94DE110895A6E0B0E0E1E1F2E10C9443
:102420000F340E94EC1181110CC00E94A1110E9476
:102430002E1F0E94B7240E940B082696EEE00C94F3
:102440002B340E94EF152AE6822E22E0922E6401A0
:1024500010E0F601E190F1906F01812F0E94E414E9
:102460001F5F153009F44BC0E816F90691F380910F
:102470007C0281FD0E94ED140E94EF11782E10E085
:1024800066246394812F0E94E4147C01F401A190DE
:10249000B1904F018A159B0561F1A826BF2400E089
:1024A000CC24C394D12CC5018C219D21892BC1F052
:1024B0007720B1F009831A830E94242B9C838B839D
:1024C0006D8221E0C7018C219D21892B09F420E038
:1024D00049815A816B817C818D81922F0E944608AF
:1024E0000F5FCC0CDD1C0F30F1F6F4013297F18256
:1024F000E0821F5F153031F60E94C51198CFE816B3
:10250000F90609F0B4CF91CF1F93CF93DF930E94C8
:10251000B313EC01C11580E5D807F0F5C11580E4CF
:10252000D80708F09CC0C03ED10520F5CD3CD105B0
:1025300008F082C0C83AD10578F4C53AD10508F050
:1025400073C0C130D10519F1209709F1C430D1050C
:10255000F0F4D0E0C0E01BC0C33CD105D0F7C85AAE
:10256000D0E0CC0FDD1FCC59DE4F0990D881C02DB3
:10257000D4640DC0C11580E2D80708F0D1C0C115E0
:1025800081E0D80708F05AC0C83ED10510F7CE0147
:10259000DF91CF911F910895C03682E5D80718F5D5
:1025A000C03482E5D80708F06BC0C03282E5D80796
:1025B00008F05FC0C11582E5D80708F497C02C2F3A
:1025C0002695269580E2289F900111248C2F8370F8
:1025D000C1E0D0E002C0CC0FDD1F8A95E2F7C22B2C
:1025E000D32BDD68D4CFC03A82E5D80760F4C03879
:1025F00082E5D80708F459C0CF71D0E0DC2FCC2792
:10260000C46FD06AC4CFC03C82E5D80708F462C06A
:10261000C03E82E5D80708F09CCFDC2FCC27CC2722
:10262000DF71C06FD06AB3CFC55AD0E0C656DE4F57
:10263000C881D0E0D064ABCFD065A9CF8D2F0E94E8
:102640005514182FCE0199270E94B313C12FD0E043
:10265000DC2FCC27CC27DF71C82BD92B98CFCE010C
:1026600099270E94B313CC27DF70C82BD92BD06ACF
:102670008ECFCF71D0E0DC2FCC27C16FD06A87CF4F
:102680002C2F26952695277080E2289F90011124F3
:102690008C2F8370C1E0D0E002C0CC0FDD1F8A9583
:1026A000E2F7C22BD32BDC6872CF2C2F2695269510
:1026B000277080E2289F900111248C2F8370C1E045
:1026C000D0E002C0CC0FDD1F8A95E2F7C22BD32BDE
:1026D000DA685DCF8C2F8F710E945514C82FD0E01F
:1026E000DC2FCC27CC27DF71D06251CF8C2F8F719C
:1026F0000E94551455E0D695C7955A95E1F7CF70CD
:10270000D0E0DC2FCC27282F30E084FF05C044E048
:10271000220F331F4A95E1F7C22BD32BD06937CF55
:102720008D2F8F710E945514182FCE0199270E946A
:10273000B313C12FD0E0DC2FCC27CC27DF71C82BFF
:10274000D92BD2CF462F753030F46F3020F4672F5D
:102750000E949F20089590E080E008950E94A213B7
:102760000E948412089582389105B9F1B0F4813342
:10277000910509F47DC048F48932910509F46DC0D2
:102780008A32910509F47BC008958533910509F4D7
:102790005FC08933910509F10895833E9105D9F110
:1027A00038F4803E910529F1823E910579F1089532
:1027B000863E9105D9F1873E910509F43EC0843EDD
:1027C000910541F52091B50221FF24C08091B4020A
:1027D00084FD19C087EE90E008952091B402237023
:1027E00009F05AC02091B50223FF14C089E290E09D
:1027F00008952091B40220FD38C03091B50230FF19
:1028000009C024FF43C090E080E008952091B40205
:1028100022FDF7CF08952091B40222FD3AC03091F5
:10282000B50230FD39C024FFF5CFEDCF2091B402C1
:1028300023FFF0CF24FDE7CFCDCF2091B40223FDBD
:102840002EC03091B50231FFEECF84EE90E00895B6
:102850002091B40225FFDECFC9CF2091B40225FD1F
:1028600021C02091B50223FFD5CF89E390E0D2CFDC
:102870002091B40226FFCECF8AE290E00895209105
:10288000B40226FFC7CF81E390E0089583EE90E085
:10289000089582EE90E0089580EE90E0089586EE2F
:1028A00090E0089585E390E008959091B40292FF3E
:1028B00010C041E0282F2471243009F040E031E0BD
:1028C000282F2871283009F030E0431711F02CE050
:1028D000822793FF10C041E0282F2471243109F092
:1028E00040E031E0282F2871283109F030E043170B
:1028F00011F02CE082273091B50230FF10C051E07A
:10290000282F2171213009F050E041E0282F287153
:10291000283009F040E0541711F029E0822731FFF8
:1029200010C041E0282F2171213109F040E031E051
:10293000282F2871283109F030E0431711F029E0E1
:10294000822794FD877E08950E94EE1008950E94CC
:10295000EF152FEF86E791E0215080409040E1F79E
:1029600000C000000E94EF1580E00E94E41480FF88
:1029700004C00E94A4140E946F2B08950E94A71403
:1029800008950E94F510811102C00E9498110E94C2
:10299000011180937C020E940B119093B5028093E9
:1029A000B4020E94BE140E9406110E94BD0B8091C9
:1029B00010020E94D50B089508950E94DC1408951A
:1029C00008950E94E0140895E82FF0E0EE0FFF1F35
:1029D000E054FD4F808191810895B0E0A0E0E3EFE5
:1029E000F4E10C94153482E392E00E94EE0580EC51
:1029F000E82E82E0F82ED0E0C0E09DE2C92E92E001
:102A0000D92E04E212E0DF93CF93DF92CF920E949F
:102A100087068AE292E00E94EE05F701819191918A
:102A20007F010E94D8079F938F931F930F930E945B
:102A3000870682E292E00E94EE0521968DB79EB74E
:102A400008960FB6F8949EBF0FBE8DBFC530D10556
:102A5000D1F6CDB7DEB7E8E00C94313480EA8A9540
:102A6000F1F7089500C008950E942E150895F89476
:102A7000E82FE295EF70F0E031A1282F2F7081E070
:102A800090E001C0880F2A95EAF7982F909593233C
:102A900091A392A1892B82A378940895CF93DF9379
:102AA000CCEAD1E089918F3F11F00E94371581E087
:102AB000C13BD807B9F7CDE9D1E089918F3F11F03B
:102AC0000E94371581E0CC3AD807B9F7DF91CF9152
:102AD0000895AF92BF92DF92EF92FF920F931F93F0
:102AE000CF93DF938C01D62EC62FD0E0CE01845534
:102AF0009E4F7C01FC0120812F3F09F44DC0F894CA
:102B0000E22FE295EF70F0E031A12F7081E090E0CC
:102B100001C0880F2A95EAF7932F982B91A392A1D1
:102B20008095892382A378940E943215EDE9F1E023
:102B30004CEA51E021E030E0B12CA12C61916F3FD3
:102B4000A9F1A62FA295AF70B0E090968C9190E07D
:102B50006F7002C0959587956A95E2F780FD26C053
:102B6000C901A82AB92A220F331F4E175F0731F770
:102B7000F70180818F3F11F00E94371561E0A114A9
:102B8000B10409F460E08D2D0E943415CC0FDD1FD7
:102B9000C00FD11FB982A882DF91CF911F910F91F1
:102BA000FF90EF90DF90BF90AF90089590E080E0AD
:102BB000D8CF0E944E158AE0E0ECF2E0DF01982FBA
:102BC0001D929A95E9F7E6EBF2E0DF011D928A95F6
:102BD000E9F785E00E942A160E94DD140895AAE014
:102BE000B0E0E5EFF5E10C9418348E010F5F1F4F54
:102BF0008AE0F80111928A95E9F7F12C6F2DC8014E
:102C00000E946915F394F5E0FF12F8CF4AE050E016
:102C1000B80186EB92E00E94853421E0009709F428
:102C200020E0892B41F08AE0F801A6EBB2E00190A8
:102C30000D928A95E1F745E060EC72E086EB92E058
:102C40000E942B16182F0E94E114812F2A96E5E08E
:102C50000C9434340895B0E0A0E0E1E3F6E10C9484
:102C600015346C017B01042FC22F222379F081E0FF
:102C700080937F020E94242B90937E0280937D029A
:102C800080E0CDB7DEB7E8E00C943134D0917F021C
:102C9000DD23B1F380917D0290917E020E943C2B56
:102CA000059770F310E0000F111FA801B601C701CE
:102CB0000E948534892B31F0A801B601C7010E941A
:102CC0009234CD2F10927F028C2FDBCF0E94CA2D21
:102CD0000E94FE110E94D72D08950E94DC2D0E94B3
:102CE0000B120E94FE2D08950E94BD2A0E94B02D55
:102CF0000E94E1110E9466160E946D160E94F41156
:102D0000FBCF9093EB018093EA010895EF92FF923D
:102D10000F931F93CF93DF93EB01E82FD1110EC0D8
:102D2000442321F0F0E0E25BF84FE4916E2F7E2F18
:102D30008E2FCDB7DEB7E6E00C9433340D2F10E0C4
:102D4000282F30E0442329F0225B384FF9012491E9
:102D500030E0F6E0CF9FC0011124EFEFF0E0BF01BB
:102D60000E948333AB018C2F90E0880F991FA5E55B
:102D7000A49FB001A59F700D1124861B970B982F5F
:102D8000990F980FBF01601B710B629FD001639F69
:102D9000B00D729FB00D11248B2F9D9FB001112497
:102DA000672F7727EF01C61BD70BBE01629FE0019B
:102DB000639FD00D729FD00D11247F01E91AF10895
:102DC000E09EB001E19E700DF09E700D1124672F02
:102DD0007727E61BF70BE29F8001E39F100DF29F20
:102DE000100D1124E12F722F4230510599F048F453
:102DF0004115510569F04130510581F0EB2F8D2FC0
:102E000007C04430510569F080F046305105B1F7F4
:102E10006E2F8FCFE22F7B2F812FFACFE22F7D2FC6
:102E2000F7CFEB2F822F712FF3CF7B2F822FED2F38
:102E3000EFCF41E00E948616089508950E94191769
:102E40000895CF93DF93762FE901682F842F0E9496
:102E50001E17798368838A83DF91CF9108958091CB
:102E6000CA02982F9C7F29F4837084608093CA02E1
:102E700008958439E8F383708069F8CFB0E0A0E06A
:102E8000E4E4F7E10C94153488E090E00E94A33468
:102E90006B017C0184E290E00E949B34282F30E09B
:102EA00040E050E060E070E080E090E000E20E94EE
:102EB0004234B22FA32FF42FE52FD62FC72F97011F
:102EC0008601BC29A12BFE295E2F532B2B2F3A2FD5
:102ED0004F2F6D2F7C2FCDB7DEB7E8E00C94313447
:102EE000B0E0A0E0E6E7F7E10C94113449015A01A3
:102EF0006B017C010E942F178401A4016A2D7B2D98
:102F000088E090E00E94D13494014A2D5B2DB601F7
:102F1000C70100E20E945D34622F84E290E00E94CB
:102F2000BF34CDB7DEB7ECE00C942D34EAECF2E020
:102F300020813181428153816481758186819781AD
:102F40000E9470170895EAECF2E085E08083118218
:102F50008FEF828383831482758125E030E04FEF09
:102F60005FEF60E0868197810E94701708958091DD
:102F70007C0280FF8BC08EE196E09F938F930E942E
:102F8000870680917C020F900F9080FF7FC0809118
:102F9000CA0281701F928F9381E096E09F938F9376
:102FA0000E94870680917C020F900F900F900F90E7
:102FB00080FF6CC08091CA02869581701F928F93AA
:102FC00081EE95E09F938F930E94870680917C020B
:102FD0000F900F900F900F9080FF58C08091CA0201
:102FE000869586951F928F9386EC95E09F938F939D
:102FF0000E94870680917C020F900F900F900F9097
:1030000080FF44C08091CB021F928F938CEA95E0A1
:103010009F938F930E94870680917C020F900F9060
:103020000F900F9080FF32C08091CC021F928F933F
:1030300082E995E09F938F930E94870680917C029E
:103040000F900F900F900F9080FF20C08091CD02C5
:103050001F928F9388E795E09F938F930E94870636
:1030600080917C020F900F900F900F9080FF0EC008
:103070008091CE021F928F938CE595E09F938F9362
:103080000E9487060F900F900F900F9008958091E7
:10309000CA0280FF03C086958695089580E0089552
:1030A0008091CA02817008959091CE02933018F4F5
:1030B0009F5F9093CE02882391F02091CA023091B5
:1030C000CB024091CC025091CD026091CE02709122
:1030D000CF028091D0029091D1020E947017089582
:1030E00081E00E94541808959091CE02992319F01E
:1030F00091509093CE02882391F02091CA02309192
:10310000CB024091CC025091CD026091CE027091E1
:10311000CF028091D0029091D1020E947017089541
:1031200081E00E94741808958091CE0208958093E2
:10313000CE02662321F12091CA023091CB02409148
:10314000CC025091CD027091CF02682F8091D002B5
:103150009091D1020E94701780917C0280FF0EC076
:103160008091CE021F928F938EE992E09F938F936E
:103170000E9487060F900F900F900F9008959091E6
:103180007C0290FFFBCF1F928F938BE792E0EECFF4
:1031900060E00E94971808958091CB020895809175
:1031A000CC0208958091CD02089570E00E94BB1F6B
:1031B0000895609106018091CA0280FF0BC0809142
:1031C000050123E0829FC00111248E529D4F0E9471
:1031D000D5180895809107019091080123E0829FFE
:1031E000F0011124EE52FD4F891748F71182108229
:1031F00012828F5F3396F8CF9091CA0290FF0EC073
:10320000909107012091080133E0939FF001112470
:10321000EE52FD4F921718F00E94D918089581833D
:10322000608342839F5F3396F5CFA3E0B0E0EBE18C
:10323000F9E10C941B349091CA0290FF0AC09E01E0
:103240002F5F3F4F0E9421174B8169818A810E9425
:10325000FC182396E2E00C943734CF93DF93EC0113
:10326000EC81F0E0E75BF94F4491EAECF2E0628137
:1032700081810E9415198C818F5F8C83DF91CF91A2
:103280000895CF93DF93EC01EAECF2E04381628191
:103290008C810E9415198C818F5F8C83DF91CF9177
:1032A0000895A3E0B0E0E7E5F9E10C9419348C014E
:1032B0008091800281110AC09E012F5F3F4F4FEF26
:1032C0006FEF0E9421178A8180938002F801648148
:1032D000613069F08091800240E0662361F040E057
:1032E000623011F44091800280E060E004C060919F
:1032F000800240E080E00E94FC18F801848190E0A8
:10330000019663E070E00E94973384832396E4E0A3
:103310000C943534A3E0B0E0E0E9F9E10C940E340C
:10332000082FE62EF42EC22E9091CA0290FF4BC0B9
:10333000E92FE695E695AE2FB0E0AF54BE4F8C91E5
:1033400080938C029C7F943009F041C09E012F5FD6
:103350003F4F802F0E9421174B8169818A810E94F3
:10336000FC180093CB02E092CC02F092CD02CC206C
:1033700009F48AC02091CA026091CE027091CF02F6
:10338000302FA7018091D0029091D1020E94701736
:1033900080917C0280FF17C08091CD021F928F9395
:1033A0008091CC021F928F938091CB021F928F93BA
:1033B00086EE92E09F938F930E9487060FB6F89453
:1033C000DEBF0FBECDBF2396EFE00C942A348230CF
:1033D00019F4F090CD02C5CF863019F40091CB02DC
:1033E000C0CF8930D9F3893109F0BBCFE9518E2F95
:1033F0008170782E8E2F80958170D82EE695F0E022
:10340000E75BF84F1491612C9BE0A92E93E0B92E55
:1034100060910901661618F00E94D918A2CF619E2A
:10342000C001112470E00E948333502E71102AC015
:10343000560E862C912C80917C0280FF11C01F9229
:103440001F931F92DF921F925F921F926F92BF9203
:10345000AF920E9487060FB6F894DEBF0FBECDBFB5
:1034600020910701820E911C9401220F331F280D19
:10347000391D2E523D4F4F2D6E2D852D0E94211747
:103480006394C6CF561AD5CF80917C0280FF9BCF24
:103490001F92FF921F92EF921F920F938FEB92E079
:1034A00089CFEAECF2E09181282F4381628188E0A4
:1034B000890F0E948A19089581E00E94511A089587
:1034C000EAECF2E09181282F4381628188EF890F35
:1034D0000E948A19089581E00E94601A0895EAEC1A
:1034E000F2E0628128E0620F08F46FEF282F438139
:1034F00081810E948A19089581E00E946F1A0895BF
:10350000EAECF2E0628128E0621B08F460E0282F18
:10351000438181810E948A19089581E00E94801A66
:103520000895EAECF2E0438128E0420F08F44FEFFF
:10353000282F628181810E948A19089581E00E946A
:10354000911A0895EAECF2E0438128E0421B08F466
:1035500040E0282F628181810E948A19089581E0CC
:103560000E94A21A089520E00E948A190895EF92FD
:10357000FF921F93CF93DF93EC0110E0EE24EA94C7
:10358000F12C60910901161770F00E94D9189A81E8
:103590008C8190FF27C08F5F8C83DF91CF911F912B
:1035A000FF90EF90089520910701422F410F55277A
:1035B000551FCA019A01220F331F280F391F2E529F
:1035C0003D4F70E0C7010E949733962F8C81409148
:1035D000CD026091CC02199F800D11240E94211709
:1035E0001F5FCFCF8150D8CFB0E0A0E0EAEFFAE183
:1035F0000C941434FC0182810FEF80FF01E010E095
:1036000080910901181798F00E94D91880918202C0
:10361000013009F04CC0811102C080910901815034
:1036200080938202CDB7DEB7E9E00C943034C091CC
:103630000701C12ED12CCC0DDD2DD11DCE01880F5F
:10364000991FC80FD91FCE52DD4F198218821A82D6
:1036500034E0E32EF12CB12C809182028B0D893065
:1036600004F18770082E000C990BC816D90691F446
:103670008091CD028E9DA0018F9D500D11245595F6
:103680004795559547959E016091CC028091CB025C
:103690000E942117B00EF1E0EF1AF108E9F61F5F62
:1036A000AFCF87FFDFCF90910901890FDBCF90E08B
:1036B00001966091090170E00E949733B1CF0F939A
:1036C0001F93CF93DF93809107019091080123E02E
:1036D000829FF0011124EE52FD4F891740F1C0E0A6
:1036E000D3E060910901C61740F10E94D9182091DA
:1036F000030180918102820F8093810290910401E5
:10370000920F90930401191654F4082E000C990B93
:10371000409109014150550B841795071CF02195E4
:1037200020930301DF91CF911F910F910895118292
:10373000108212828F5F3396D0CF0C2F10E070E092
:10374000C8010E94973320910701820F482F50E053
:1037500020918102022E000C330B02171307BCF0DC
:1037600020910401022E000C330B201731077CF04E
:103770008D9F900111242E523D4F4091CD026091BA
:10378000CC028091CB020E942117CF5FAACFFA0111
:10379000EE0FFF1FE40FF51FEE52FD4F1182108256
:1037A0001282F3CFB0E0A0E0E8EDFBE10C9411341D
:1037B000EC014C81042F10E09801D8010E94E23303
:1037C0009B01AC010E94F8334B015C01E0E2F0E0A8
:1037D000E01BF10BA5E5B0E0AC019B010E94F833C2
:1037E0006B017C019F01DF010E94DA339B01AC0178
:1037F0000E9403349B01AC01280D391D4A1D5B1D3D
:10380000C701B6010E94AB33F22E822F90E039E25D
:103810003F1520F143E0249F900111243595279511
:10382000122F109500E085E5E82EEF188091090130
:10383000081718F10E94D9189C8181E0992319F08A
:10384000903219F48FEF8093020180910201890F69
:103850008C83CDB7DEB7ECE00C942D3425E530E059
:10386000B901681B790B9B01220F331F260F371FED
:1038700037FFD4CF2F5F3F4FD1CF8E2D01FD8F2D3E
:1038800020910701622F600F7727771F9B01220F7E
:10389000331F260F371F2E523D4F412F6091CC0210
:1038A0000E9421170F5FC2CF0F931F93CF93DF9317
:1038B000EC0110E000E0909109019017110609F069
:1038C0006CF40E94D9188C8190E001968170992740
:1038D0008C83DF91CF911F910F9108952091070163
:1038E000A801420F511D9A01220F331F240F351FCB
:1038F0002E523D4F4C816091CC028091CB02969527
:103900009017110651F04CF0442349F04091CD023C
:103910000E9421170F5F1F4FCECF4423B9F340E021
:10392000F7CF6091CA026695669570E04BE050E073
:103930008AE091E00E947834892B19F481E0809329
:103940008D020E94242B90938402809383028091A5
:103950007C0280FF08C082E692E09F938F930E94D2
:1039600087060F900F90089510928D0280917C022F
:1039700080FF08C089E492E09F938F930E9487069E
:103980000F900F9008959091CA0290FF49C09370D4
:10399000811147C094609093CA022091CA026623A5
:1039A00009F447C03091CB024091CC025091CD0236
:1039B0006091CE027091CF028091D0029091D1029D
:1039C0000E94701780917C0280FF10C08091CA0213
:1039D000869586951F928F9382EA94E09F938F93AA
:1039E0000E9487060F900F900F900F906091CA026F
:1039F0006695669570E04BE050E08AE091E00E94A9
:103A00007834892B09F10E94B41C81E080938602EE
:103A10004091CD026091CC028091CB020E94B31AFA
:103A20000895853210F09069B6CF880F880F982BD3
:103A3000B2CF80917C0280FFD9CF269526951F9228
:103A40002F9384E894E0CACF0E94911CDECF682FA8
:103A50009091CA029695969581E0890F853208F07B
:103A600081E00E94C31C089581E00E94271D0895F3
:103A7000682F9091CA02969596958FEF890F09F459
:103A800084E20E94C31C089581E00E94381D0895BD
:103A900061E00E94C31C08958091CA0281608093F6
:103AA000CA0280917C0280FF0DC01F9281E08F933B
:103AB0008DED93E09F938F930E9487060F900F9058
:103AC0000F900F908091CA02869586950E94481D9E
:103AD000089560E00E94C31C089580918B028111BB
:103AE00071C080917C0280FF14C085E495E09F93B3
:103AF0008F930E94870680917C020F900F9080FF29
:103B000008C08FE295E09F938F930E9487060F90E5
:103B10000F900E94F510811110C080917C0280FFEF
:103B200008C087E095E09F938F930E9487060F90CF
:103B30000F900E9498110E94A3170E943E17209395
:103B4000CA023093CB024093CC025093CD026093D3
:103B5000CE027093CF028093D0029093D1022C7F3B
:103B600001F580917C0280FF08C08EEB94E09F936A
:103B70008F930E9487060F900F900E94A3170E94B8
:103B80003E172093CA023093CB024093CC0250934D
:103B9000CD026093CE027093CF028093D0029093B7
:103BA000D1020E942F170E94B71710928D028091A8
:103BB000CA0280FF04C0869586950E94691D81E037
:103BC00080938B0208958091CA0281608093CA021B
:103BD00080917C0280FF0DC01F9281E08F9384EA68
:103BE00093E09F938F930E9487060F900F900F9002
:103BF0000F908091CA02869586950E94691D08954E
:103C000010928A028091890281110E94E31D0E9414
:103C1000911C08952091CA022E7F2093CA023091F0
:103C2000CB024091CC025091CD026091CE027091B6
:103C3000CF028091D0029091D1020E9470178091A2
:103C40007C0280FF0FC08091CA0281701F928F9307
:103C50008CE693E09F938F930E9487060F900F90BE
:103C60000F900F900E94B41C0E94D9180895809163
:103C70007C0280FF10C08091CA02809581701F92E3
:103C80008F938DE494E09F938F930E9487060F900B
:103C90000F900F900F908091CA0280FF03C00E9486
:103CA0000A1E08950E944C1D08958091CA028E7FBD
:103CB0008093CA0280917C0280FF0CC01F921F92E9
:103CC00082E393E09F938F930E9487060F900F905B
:103CD0000F900F900E94B41C0E94D91808958091F3
:103CE0007C0280FF10C08091CA02809581701F9273
:103CF0008F9384E194E09F938F930E9487060F90A7
:103D00000F900F900F908091CA0280FF03C00E9415
:103D1000551E08950E94E31D08950E94B41C8091D1
:103D20008A0281110AC081E080938A028091CA02CE
:103D30008170809389020E94551E08950F931F93EE
:103D4000CF93DF9380918D028823C1F180918C0203
:103D5000E091CA02E695E695E81BE0938502823081
:103D600091F5F0E0EB5BF94FE491CE2FD0E00DE25E
:103D700019E180918602882361F0109286020E94E8
:103D8000242B9093840280938302109288021092D5
:103D900087020E94242BE0918302F09184028E1B03
:103DA0009F0B8F3F9F4750F4EC0FFD1FF093840251
:103DB000E093830283E892E0F8010995DF91CF91C7
:103DC0001F910F910895863049F4F0E0EE5BF94FB2
:103DD000E491CE2FD0E001E419E1CBCF893051F44A
:103DE000E695F0E0E15CF94FE491CE2FD0E007EBEF
:103DF0001AE1BFCF8F3051F4E695F0E0E45CF94F63
:103E0000E491CE2FD0E004EF1AE1B3CF853149F42D
:103E1000F0E0E75CF94FE491CE2FD0E00FE51BE135
:103E2000A8CFC8E2D0E002ED1BE1883109F4A1CFB0
:103E3000833239F4E7E3F6E0C591D49101E519E165
:103E400098CFC4EFD1E004E51CE1843209F491CFAE
:103E5000C0EDD7E00DE117E18CCF08950E949E1EC2
:103E60000895FA01811101C0FB0109950895CF93CE
:103E7000DF93C82FD62F0E9447188C1748F00E9456
:103E800047188D1728F40E94341DDF91CF910895B3
:103E90008C2F0E94481DF9CF1F93CF93DF93EC0125
:103EA000FB011581111110C00E94E90F8272FE0101
:103EB000E052F847E531F10508F05BC0EF5FFA4CDE
:103EC0000C94CD330E94371E812FDF91CF911F912B
:103ED000089544E45DE164E37DE10E94311FF4CF85
:103EE00044E35DE164E47DE1F8CF4BE65AE16CE543
:103EF0007AE1F3CF4CE55AE16BE67AE1EECF4DE89B
:103F00005AE16CE77AE1E9CF4CE75AE16DE87AE1F2
:103F1000E4CF4FEA5AE16EE97AE1DFCF4EE95AE1A8
:103F20006FEA7AE1DACF40E958E160E778E1D5CF8E
:103F300040E758E160E978E1D0CF81E00E94481D78
:103F4000C3CF65E082E00E94371FBECF68E086E005
:103F5000FACF6EE089E0F7CF64E18FE0F4CF67E15C
:103F600085E1F1CF88E1EACF62E289E1ECCF83E23B
:103F7000E5CF11E0A9CF6E9A4EB14F7B5EB1506490
:103F8000EFB7F8949B01220F331F260F371F280F1E
:103F9000391F2817390741F4EFBF8FE594E00197E7
:103FA000F1F700C000000895DC016D91CD0178E0CB
:103FB0005EB9000000C067FF4EB9660F000000C088
:103FC00000C000C04EB900C07A9591F7E2CF84E0FE
:103FD000089550E0440F551F9EE1699F400D511D0B
:103FE000112496E9899F400D511D1124CA0189961B
:103FF00008950F931F93CF93DF938430C8F46530F7
:10400000B8F44F30A8F40E94E91F8C010E949B3441
:10401000C82FD0E0DC2FCC27C80101960E949B342A
:104020009E01282BC901DF91CF911F910F91089517
:1040300090E080E0F8CF0F931F93CF93DF93122F80
:10404000032F843078F4653068F44F3058F40E94C0
:10405000E91FEC01602F0E94BF34612FCE01019651
:104060000E94BF34DF91CF911F910F9108951F934C
:10407000CF93DF93D0E0C0E011C0412F6C2F8D2F84
:104080000E9490069C01412F6C2F8D2F0E941B20B7
:104090001F5F1F3091F7CF5FC53011F010E0EDCFFB
:1040A000DF5FD43041F7DF91CF911F910895EF92F8
:1040B000FF920F931F93CF93DF93EC018A017C0152
:1040C000E60EF71ECE018996CE15DF0529F4CDB791
:1040D000DEB7E6E00C943334C83522E0D20740F472
:1040E0000E949B34F80180830F5F1F4F2196EACF17
:1040F000F8011082F9CFB0E0A0E0E1E8F0E20C9422
:1041000015347C016A018C01060F171FEC01CE01EA
:104110008996C017D10729F4CDB7DEB7E8E00C9433
:104120003134C83522E0D20740F4FE01EE19FF0910
:10413000EC0DFD1D60810E94BF342196E8CF8430D4
:1041400038F4653028F44F3018F40E94F91F0895B0
:1041500090E080E0089580E108958FE791E0089570
:10416000EF92FF920F931F93CF93DF93EC018A019D
:104170007C01E60EF71ECE018F579D4FCE15DF0551
:1041800029F4CDB7DEB7E6E00C943334CF3721E025
:10419000D20740F40E949B34F80180830F5F1F4FC9
:1041A0002196E9CFF8011082F9CFB0E0A0E0EBED65
:1041B000F0E20C9415347C016A018C01060F171F84
:1041C000EC01CE018F579D4FC017D10729F4CDB711
:1041D000DEB7E8E00C943134CF3721E0D20740F469
:1041E000FE01EE19FF09EC0DFD1D60810E94BF3438
:1041F0002196E7CFCF93DF93C1E8D2E060E0CE0114
:104200000E94BF342196C11584E0D807B9F7DF9129
:10421000CF910895A8E0B0E0E0E1F1E20C9413340E
:10422000F82E8FE08F1508F46EC08FEF93E00E9498
:104230009B34811168C001E812E0F11035C0FE0125
:1042400031966F0188E011928A95E9F77801FFEFC6
:10425000EF1AFF0AC8010E949B3489831A828823BF
:1042600009F451C08130D1F4580182E0A80EB11C8C
:10427000C7010E949B348A83882309F444C09FEFBE
:10428000980F9330F0F4780193E0E90EF11CC5012A
:104290000E949B348B838823B1F11C8260E0C601AD
:1042A0000E9402268701D2CF011594E0190759F127
:1042B000C8010E949B34811101C0FA940F5F1F4F07
:1042C000BCCF7501843051F702E010E07501EFEFCB
:1042D000EE1AFE0AC5010E949B34F601E00FF11FA1
:1042E0008083882381F08C3741F4E2E0F0E0EC0F2A
:1042F000FD1FE00FF11F1082D1CF0F5F1F4F57013D
:104300000730110519F72896EAE00C942F34CF9363
:10431000DF93EB0186319C4711F50E94E90F9D81E7
:10432000992399F08A7A91E009F490E090938E02B3
:10433000811109C089E20E94362A0E94781080E02B
:10434000DF91CF91089585E3F6CF80918E028111A0
:1043500004C089E20E943E2AF0CF85E3FBCF81E0D2
:10436000EFCFCF93DF93EC01FB018581882309F424
:10437000D2C09E0130572332310508F0B2C00E94EE
:104380000B119093B5028093B402FE01E150F04707
:10439000E232F10520F4EA5EFA4C0C94CD338091C0
:1043A000B40281608093B40293C08091B5028860AA
:1043B0008093B5028DC08091B4028260F3CF80916A
:1043C000B4028460EFCF8091B4028860EBCF80911B
:1043D000B5028160EDCF8091B5028260E9CF809116
:1043E000B4028061DFCF8091B4028062DBCF809124
:1043F000B4028064D7CF0E94720B8091B4028068AF
:10440000D1CF8091B4028C60CDCF8091B502836012
:10441000CFCF8091B4028E7FC5CF8091B502877FC8
:10442000C7CF8091B4028D7FBDCF8091B4028B7FC6
:10443000B9CF8091B402877FB5CF8091B5028E7FCE
:10444000B7CF8091B5028D7FB3CF8091B4028F7EBC
:10445000A9CF8091B4028F7DA5CF8091B4028F7BCC
:10446000A1CF0E94720B8091B4028F779BCF809175
:10447000B402837F97CF8091B5028C7F99CF8091D2
:10448000B40282FB992790F921E0922790FB82F9F0
:1044900090FB83F987CF8091B502982F909591700A
:1044A0008E7F892B90FB81F983CF9091B402892F65
:1044B0008F7B96FF806476CF0E94720B9091B4023E
:1044C000892F97FB87F980586DCF81E00E949B115F
:1044D0008091B4029091B5020E9410110E94720B5B
:1044E00080E0DF91CF91089580E0F0CF9091B40209
:1044F000892F8F7E94FF806155CF9091B402892FD0
:104500008E7F90FF81604ECF9091B502892F877F7B
:1045100093FF88604DCF81E0E4CF282F35EB230354
:10452000C001112497FF04C080589109892F089574
:1045300080589F4FFBCF8091950280FF0DC0609106
:104540001A0170E0660F771F6038710570F561150C
:10455000710569F1862F089581FF07C060911A01E6
:1045600084E0689FB0011124EFCF60911A0182FDB1
:104570000AC0809194028823A9F0209119016091CA
:104580001A01821710F088E0ECCF869FC001112439
:1045900033E0880F991F3A95E1F7622F70E00E948F
:1045A0009733D2CF68E070E0D5CF8FE7089581E0F0
:1045B00008958091950280FF0CC06091160170E013
:1045C00075956795759567956115710549F1862F04
:1045D000089581FF06C06091160170E0759567959A
:1045E000F3CF6091160182FD0BC090919302992345
:1045F000A1F06091150180911601961738F0682F8F
:1046000070E06038710500F38FE70895899FC0015D
:10461000112470E00E949733F4CF61E070E0D7CFAF
:1046200081E008959091980220919902922B209117
:104630009B02922B20919A02922B31F098E090935A
:10464000940291E0909393028D3C31F40E949B225E
:1046500081958093990208958E3C19F40E949B22C3
:10466000F8CF8F3C31F40E949B2281958093980271
:104670000895803D19F40E949B22F8CF893D29F4CA
:104680000E94D92280939A0208958A3D21F40E94C3
:10469000D9228195F7CF8B3D31F40E94D9228195A3
:1046A00080939B0208958C3D19F40E94D922F8CF83
:1046B0009FE2980F983070F4815D990B21E030E013
:1046C00001C0220F8A95EAF780919702822B80938E
:1046D000970208958D3D31F4809195028160809319
:1046E000950208958E3D21F4809195028260F7CF66
:1046F0008F3DB9F7809195028460F1CF4091980287
:104700008D3C59F48091990287FF0DC01092990257
:1047100041110BC01092940208C08E3C81F480912C
:10472000990218169CF3442381F080919A0290918B
:104730009B02892B09F05AC01092930208958F3C76
:1047400049F447FFF0CF10929802809199028111AD
:10475000ECCFE0CF803D19F41416ACF3E4CF909188
:104760009A02893D29F41916F4F610929A02DBCFC9
:104770008A3D19F497FFD7CFF8CF90919B028B3DDC
:1047800029F497FFD0CF10929B02CDCF8C3D19F426
:104790001916CCF3C8CF9FE2980F983090F4815D42
:1047A000990B21E030E0B90102C0660F771F8A95AE
:1047B000E2F7CB018095909197028923809397022D
:1047C000B2CF8D3D31F4809195028E7F809395021A
:1047D000AACF8E3D21F4809195028D7FF7CF8F3D3A
:1047E00009F0A1CF809195028B7FF0CF0895809141
:1047F0007C0283FF7EC085E798E00E94EE058091F1
:1048000097021F928F9380E798E09F938F930E9467
:1048100087068EE698E00E94EE0580919802282F88
:10482000082E000C330B3F938F938BE698E09F93F9
:104830008F930E94870689E698E00E94EE0580919A
:104840009902282F082E000C330B3F938F9386E696
:1048500098E09F938F930E94870684E698E00E94D9
:10486000EE0580919A02282F082E000C330B3F93FF
:104870008F9381E698E09F938F930E9487068FE540
:1048800098E00E94EE0580919B02282F082E000CD4
:10489000330B3F938F938CE598E09F938F930E9407
:1048A000870689E598E00E94EE05809194021F92A8
:1048B0008F9386E598E09F938F930E94870684E507
:1048C00098E00E94EE05809195021F928F9381E5FA
:1048D00098E09F938F930E9487068EE498E00E9451
:1048E000EE058DB79EB74C960FB6F8949EBF0FBEDF
:1048F0008DBF0E94242B9C01909198028091990277
:10490000982B21F0309392022093910290919A0279
:1049100080919B02982B21F03093900220938F027C
:1049200086E992E00E948E29089586E0E6E9F2E0A9
:10493000DF011D928A95E9F710929402109293027A
:10494000109295020895FC01828181110EC083812D
:1049500081110BC08481811108C091E08581811192
:1049600001C090E0892F8170089581E0FCCFA6E01E
:10497000B0E0EDEBF4E20C941A3486E0E6E9F2E004
:10498000DE01119601900D928A95E1F7109298023E
:104990001092990210929A0210929B028B819C8134
:1049A000892B89F080919102909192020E943C2B78
:1049B000AC01909194029923C9F180911B01841755
:1049C000150608F440C08D819E81892B91F080915D
:1049D0008F02909190020E943C2BAC019091930227
:1049E000992309F46AC0809117018417150608F409
:1049F00072C0BE016F5F7F4F86E992E00E94512A2C
:104A0000811105C086E992E00E94A32481110E94D1
:104A1000F72386E0FE013196A6E9B2E001900D92FF
:104A20008A95E1F72696E3E00C94363420911C0138
:104A30008AE0289F900111242417350720F69F5FF4
:104A40009093940202C09F3FD1F71B81112359F02C
:104A50000E949B229FEF11160CF491E0899F802DFC
:104A60001124809398021C81112359F00E949B22EB
:104A70009FEF11160CF491E0899F802D11248093F3
:104A8000990280919802882309F49DCF1091990290
:104A9000112309F498CF0E948D22882351F080932E
:104AA0009802812F0E948D22882329F080939902F9
:104AB0008ACF81E0F4CF81E0F9CF209118018AE01C
:104AC000289F900111242417350708F092CF9F5F8B
:104AD0009093930202C09F3FD1F71D81112359F09B
:104AE0000E94D9229FEF11160CF491E0899F802D2E
:104AF000112480939A021E81112359F00E94D92219
:104B00009FEF11160CF491E0899F802D1124809362
:104B10009B0280919A02882309F46BCF10919B022B
:104B2000112309F466CF0E948D22882351F08093CF
:104B30009A02812F0E948D22882329F080939B0264
:104B400058CF81E0F4CF81E0F9CFB0E0A0E0EBEA0C
:104B5000F5E20C941634E82FF0E0E856F74FD490C5
:104B6000282F26952695269530E0F901E85CF64F2A
:104B70000491877010E0082E02C0159507950A94DD
:104B8000E2F701701127F901E85DF64FE490F12C8E
:104B9000082E02C0F594E7940A94E2F791E0E92226
:104BA000FF24F901E85EF64FC491D0E002C0D5952C
:104BB000C7958A95E2F7C170DD270115110519F037
:104BC00081EE0E948908E114F10419F086EE0E943A
:104BD00089088D2D0E941D09E114F10419F086EE5B
:104BE0000E94D2080115110519F081EE0E94D20829
:104BF000CD2B19F08CE20E941D09CDB7DEB7E7E09E
:104C00000C943234EF92FF920F931F93CF93DF9364
:104C1000EC01162F0AE08881882309F454C0813002
:104C200009F04EC08981813099F47E0122E0E20EC4
:104C3000F11C8A810E941D09E7012196812F815074
:104C400050F3EFE9FFE03197F1F700C00000F7CF34
:104C5000823041F47E0182E0E80EF11C8A810E94DC
:104C60008908EACF833041F47E01E2E0EE0EF11CC8
:104C70008A810E94D208E0CF843011F02196DDCFE6
:104C80002A81229690E080E0AE014F5F5F4F205373
:104C9000330B2A30310548F0019778F2EFE9FFE055
:104CA0003197F1F700C00000F7CF089FB001099FCE
:104CB000700D1124C901860F971F2981EA01E4CFE5
:104CC0000E94A525BACFCDB7DEB7E6E00C94333409
:104CD0000F931F93CF93DF93C42FD22FFC018581B5
:104CE0008823C9F040939E020E94242B90939D023A
:104CF00080939C0280E28C0F883040F4C77081E082
:104D000001C0880FCA95EAF70E942609DF91CF916A
:104D10001F910F91089510919E02141332C080913B
:104D20009C0290919D020E943C2B883C910548F585
:104D3000C0E2CD0F1D17B9F080E2810F883040F43A
:104D4000177081E001C0880F1A95EAF70E942D09BB
:104D5000C83048F481E09D2F977001C0880F9A9564
:104D6000EAF70E942609802F0E941D09C83070F6BC
:104D7000D77081E001C0880FDA95EAF70E942D090B
:104D8000C5CF80E28C0F883008F6C77081E001C083
:104D9000880FCA95EAF7F2CF0F93DB0188519C4741
:104DA00087309105A0F5FC01E85CFA4C0C94CD33FA
:104DB00006E221EE41EE6AE17CE7CD010E94682621
:104DC00080E00F91089507E225EE45EE6BE17CE768
:104DD000F4CF06E221EE40EE68E17CE7EECF07E299
:104DE00025EE44EE69E17CE7E8CF06E221EE42EEF3
:104DF0006CE17CE7E2CF07E225EE46EE6DE17CE771
:104E0000DCCF08E221E045EE6EE17CE7D6CF1596D7
:104E10008C91882319F010929E02D3CF81E0D1CFDC
:104E20001F93CF93DF9387372CE7920759F0C1E0A8
:104E300088379C47E1F4FB01C581CC2371F10E94C6
:104E4000532706C0FB01C581CC23B1F00E94502737
:104E50000E94EA0B0E945627D82F0E945327C82F82
:104E60000E9450274D2F6C2F0E94120DC0E08C2FF6
:104E7000DF91CF911F9108950E9450270E94F60B59
:104E80000E945627182F0E945327D82F0E94502780
:104E9000412F6D2F0E94120DEACF0E945327EECFB3
:104EA00080911F01089580911E01089580911D0138
:104EB000089585E290E00E949B34843289F486E272
:104EC00090E00E949B34813059F487E290E00E9488
:104ED0009B3491E0893209F090E0892F8170089528
:104EE00080E0FCCFCF93C82F6FEF811164E285E2A1
:104EF00090E00E94BF346FEFC11161E086E290E064
:104F00000E94BF346FEFC11169E287E290E00E9416
:104F1000BF34CF910895089588E290E00E949B34B9
:104F2000682F70E090E080E008950895CF93C62F39
:104F30000E9495276C2F88E290E00E94BF34CF91A9
:104F4000089580E00E94722760E070E0CB010E942B
:104F500096270E9437200E94FA2081E00E94722743
:104F600008950E948B270E948C270E9495270E94FB
:104F70005927811102C00E94A12708950E946F1E27
:104F800008959C01FB018581882351F0A9015757A1
:104F90004038510530F4822F0E940A2180E00895A4
:104FA00081E008952FEFFC012083089580E00895AB
:104FB000CF93DF93EC0188818230E9F028F48130CF
:104FC00071F0DF91CF9108958330F9F08430C9F703
:104FD0000E94CC1889830E94CF188A83F2CF0E9446
:104FE000D2182FEF829FC00111246FEF70E00E9452
:104FF00083336983E6CF0E945018882321F00E94F2
:1050000047188983DECF80E0FCCF0E949418F9CF47
:10501000CF93DF93EC018881823021F128F4813035
:1050200069F0DF91CF910895833041F18430C9F761
:105030000E94D218482F6A81898111C089812FEF7F
:10504000829FC00111246FEF70E00E948333D62F3E
:105050000E94CF18C82F0E94CC184D2F6C2F0E9491
:10506000B31ADFCF8981811103C00E94551ED9CFA9
:105070000E94E31D89810E94691DD3CF89810E940E
:10508000C818CFCFFC019C012E5F3F4F9081983014
:1050900041F0993051F0973059F4C9010E94082825
:1050A0000895C9010E94D82708950E94961708956F
:1050B0008FEF80830895FC012181223019F40E9432
:1050C000422808950E94D2270895B0E0A0E0EBE6C0
:1050D000F8E20C941534EC01C62E0E94D6278111FB
:1050E00010C0E881E150E331B8F4F0E0E15CFA4C43
:1050F0000C94CD3319828CE08A836C2DCE010E94F2
:10510000E82BCDB7DEB7E8E00C94313489818230EA
:10511000C1F028F4813061F08FEF8883EECF8330C7
:1051200099F08430C9F71A821B821C821D82E5CF58
:105130000E94302B0E94D3336A837B838C839D83B0
:10514000DCCF0E948C27F6CF8A81082F10E07E01E9
:105150009EE0D92ED80E0530110578F6802F0E94DA
:10516000E414F701938384830F5F1F4FF2E0EF0E87
:10517000F11CD012F0CFC1CF8981823031F085305F
:1051800059F68A810E94BE27B8CF6A817B818C81C3
:105190009D810E94D3330E949627AFCF4B816A81B5
:1051A00089810E94F91F9827892798279D838C83DE
:1051B000A4CF2C813D813227232732274B816A815E
:1051C00089810E941B2099CF0E94372096CF6C2D99
:1051D000CE010E945B2891CF0E94AB2089838DCFA6
:1051E0000E94AD209827892798279A83898385CFA5
:1051F0006B8170E089819A81AE014C5F5F4F982787
:10520000892798270E94B02078CF6B8170E0898130
:105210009A81AE014C5F5F4F9827892798270E949B
:10522000D5206BCF0E94FA2068CF0E94E71FD6CF0F
:105230006B8170E089819A81AE014C5F5F4F982746
:10524000892798270E94572058CF6B8170E0898169
:105250009A81AE014C5F5F4F9827892798270E945B
:105260007B204BCF9093A4028093A3020895E091FA
:10527000A302F091A402309729F00190F081E02D73
:105280000995089580E00895EF92FF920F931F9380
:10529000CF93DF93EC01E091A302F091A402309749
:1052A000C1F10280F381E02D099580917C0282FF9B
:1052B00030C080FF0DC088811F928F9380E599E0F8
:1052C0009F938F930E9487060F900F900F900F90DF
:1052D0007E0186E0E80EF11C0AE419E080917C0270
:1052E00080FF0BC08A811F928F931F930F930E94A0
:1052F00087060F900F900F900F902196CE15DF0527
:1053000069F780917C0280FF04C088E499E00E94E4
:10531000EE05CDB7DEB7E6E00C943334E091A3029E
:10532000F091A402309739F022E0DC012C93068042
:10533000F781E02D09950895A3E0B0E0E2EAF9E2F3
:105340000C941B342091A1023091A2022817390736
:10535000A1F09093A2028093A102E091A302F091A8
:10536000A402309751F023E029839B838A83008431
:10537000F185E02DCE01019609952396E2E00C948B
:105380003734A3E0B0E0E7ECF9E20C941B34209151
:105390009F023091A00228173907A1F09093A00234
:1053A00080939F02E091A302F091A402309751F004
:1053B00024E029839B838A830084F185E02DCE013C
:1053C000019609952396E2E00C9437344091000150
:1053D000509101019A012E5F3F4F485F5F4F80E07F
:1053E0002417350709F40895F90191919F01992334
:1053F000B9F38F5FF5CF882371F0209100013091D0
:105400000101F9013296285F3F4F9191981729F0D9
:10541000E217F307D1F780E0089581E008959C0139
:10542000FC0132969FEF80E04191461751F09F3F7B
:1054300019F4411101C0982F8F5F8630A9F79F3F63
:1054400009F40895290F311D97FD3A95F9016283FA
:105450000895FC01329608962191261303C0DF01BE
:1054600011971C92E817F907B9F70895682F8091F2
:105470000001909101010E940F2A0895682F8091E8
:105480000001909101010E94292A0895E0910001F4
:10549000F0910101329686E0DF011D928A95E9F7CD
:1054A0000895DC01FB0111969C911197818198135D
:1054B00022C012968C911297882319F09281891339
:1054C0001AC013968C911397882319F0938189132E
:1054D00012C015968C911597882319F09581891320
:1054E0000AC014969C91992321F081E0248129130C
:1054F00003C080E001C081E08170089508950E949A
:105500007E2A0895811106C081E08093A5020E9441
:105510007F2A089582E0F9CF83E08093A5020E945C
:105520007F2A08950E94822A089581E08093A5022F
:105530000E947F2A08950E94952A0895089508954B
:105540000E949F2A0895089508950E949E2A089512
:10555000CF930E94A32A0E94EF150E94A42AC0E0C4
:105560008C2F0E94E414892B31F4CF5FC530C1F732
:1055700080E0CF91089581E0FCCF85B7806885BF3A
:1055800085B7806885BF08951F921FB61F921124AA
:105590008F939F93AF93BF938091A602811113C005
:1055A0008091EA029091EB02A091EC02B091ED02A1
:1055B0004196A11DB11D8093EA029093EB02A09346
:1055C000EC02B093ED02BF91AF919F918F911F902C
:1055D0001FBE1F9018958091F202843031F10E9415
:1055E000B2071092A60288E190E020E40FB6F8948A
:1055F000A895809360000FBE2093600083B7817FE1
:10560000846083BF83B7816083BF7894889583B7B4
:105610008E7F83BF0FB6F894A89580916000886153
:1056200080936000109260000FBE08950E94720B7C
:105630000E94B907089582E084BD93E095BD9AEF7A
:1056400097BD80936E0008952FB7F8948091EA0279
:105650009091EB02A091EC02B091ED022FBF089562
:105660002FB7F8946091EA027091EB028091EC02FE
:105670009091ED022FBF08959C014FB7F89480914F
:10568000EA029091EB02A091EC02B091ED024FBFC3
:10569000821B930B089578941F921FB61F921124BA
:1056A0008F939F93AF93BF938091EA029091EB0207
:1056B000A091EC02B091ED020196A11DB11D809365
:1056C000EA029093EB02A093EC02B093ED02BF913B
:1056D000AF919F918F911F901FBE1F90189581E0F1
:1056E0008093E00080E28093D8001092C9008FE19F
:1056F0009EE40197F1F700C0000087E090EBDC0129
:105700008093FB029093FC02A093FD02B093FE02F3
:1057100088E19CE00FB6F894A895809360000FBED6
:1057200090936000FFCF88E19CE00FB6F894A895B5
:10573000809360000FBE90936000FFCF8091B20213
:10574000089508959B01BA019091F2029430E9F412
:105750008F708093E9009FEF8091E800915085FD64
:1057600006C085ED8A95F1F700009111F5CF809183
:10577000E80085FF0AC050E040E0C9010E94A22E67
:105780008091E8008E778093E800089543E050E030
:10579000BC0184E00E94A22B089546E050E0BC01C9
:1057A00084E00E94A22B0895CF93DF93EC0148E0A0
:1057B00050E0BC0181E00E94A22B88E0FE01AAEA31
:1057C000B2E001900D928A95E1F7DF91CF910895B3
:1057D000603231F440E250E0BC0182E00E94A22B32
:1057E00008958FE899E00E94EE058091F102811101
:1057F00009C00E9481300E94DE308091E200846006
:105800008093E20008958BE899E00E94EE051092E3
:10581000F102089587E899E00E94EE050E94952A1A
:10582000089583E899E00E94EE056091EE0281E020
:10583000611101C080E00E948C2A08958FE799E0F1
:105840000E94EE059091F20281E0943009F080E030
:105850006091EE020E94922A08952091A8022F5F83
:10586000822F62E30E947733992319F02093A802D4
:1058700008951092A8028091A9028823F1F08091E6
:10588000F2028430C1F49091E9009F702091EC0005
:10589000822F817020FD80E8892B95E09093E900AC
:1058A0009091EB0090FF04C09091EE0097FD08C02E
:1058B0008F708093E9001092A90208951092F10070
:1058C0009091E80095FDFACF9091E80090FFF0CF1D
:1058D0009091E8009E779093E800EACF42E061EC77
:1058E00081E00E94FD2F42E261EC84E00E94FD2FE6
:1058F00042E261EC82E00E94FD2F42E260EC83E034
:105900000E94FD2F42E261EC85E00E94FD2F909104
:10591000F20281E0943009F080E06091EE020E9492
:10592000822A08958091F402833009F463C030F430
:105930008130E1F1823009F4A0C008958A3009F481
:105940008CC08B3009F471C0893009F052C080914D
:10595000F302813209F04DC08091F7029091F80274
:10596000009719F0029709F044C08091E800877F02
:105970008093E8008091E80082FF37C09091F300A7
:105980008091F200029731F48091F100813011F0A2
:10599000863021F48091F1008093B2028091E8007A
:1059A0008B778093E8000E94313023C08091F3020E
:1059B000813AF9F48091E800877F8093E800809134
:1059C000F7029091F802892B61F468E08AEA92E08C
:1059D00070E00E94402F8091E8008B778093E80070
:1059E000089560E090E080E0F3CF8091F2028111B1
:1059F000C1CF08958091F302813AD9F78091F702DF
:105A00009091F802892BA9F78091E800877F809315
:105A1000E8008091E80080FFFCCF80912A0180930C
:105A2000F1008091E8008E77BCCF8091F302813243
:105A300001F78091F7029091F802892BD1F68091BD
:105A4000E800877F8093E8000E9431308091F50262
:105A500080932A010E94720B08958091F302813293
:105A600041F68091E800877F8093E8000E94313002
:105A70008091F6028093B30208958091F302813AF7
:105A800009F0B7CF8091E800877F8093E80080918C
:105A9000E80080FFFCCF8091B302C1CF9FB7F8949C
:105AA0001092A9029FBF9091F202943009F048C071
:105AB0002091E9002F703091EC00932F917030FD10
:105AC00090E8922B25E02093E9002091EB0020FF45
:105AD00034C02091EE0027FF30C02091A70222237E
